:020000040800F2
:1000000098D6002075020008E5340008012D00088C
:10001000E3340008BF0400084F5C00080000000043
:100020000000000000000000000000007D4100080A
:10003000FD04000800000000F53400083942000803
:100040008F0200088F0200088F0200088F0200084C
:100050008F0200088F0200088F0200088F0200083C
:100060008F0200088F0200088F0200088F0200082C
:100070008F0200088F0200088F0200088F0200081C
:100080008F0200088F0200088F02000800000000A5
:100090000000000000000000000000008F020008C7
:1000A0008F020008F54200088F0200088F02000846
:1000B0008F0200088F0200088F0200088F020008DC
:1000C0008F0200088F0200088F0200088F020008CC
:1000D0008F0200088F0200086D4500080000000034
:1000E0008F0200088F0200088F0200080000000045
:1000F0000000000000000000000000008F02000867
:10010000000000008F0200088F0200088F02000824
:1001100000000000000000000000000000000000DF
:100120008F0200088F0200088F020008C104000837
:100130008F02000800000000000000000000000026
:10014000000000000000000000000000E93400088A
:100150008F0200088F0200088F0200088F0200083B
:100160008F0200088F02000800000000000000005D
:10017000000000000000000000000000000000007F
:10018000000000008F0200080000000000000000D6
:100190008F02000800F002F800F05CF80AA090E876
:1001A000000C82448344AAF10107DA4501D100F032
:1001B00051F8AFF2090EBAE80F0013F0010F18BFA3
:1001C000FB1A43F001031847C0750000E0750000FA
:1001D0000A444FF0000C10F8013B13F0070408BF6D
:1001E00010F8014B1D1108BF10F8015B641E05D00B
:1001F00010F8016B641E01F8016BF9D113F0080FC0
:100200001EBF10F8014BAD1C0C1B09D16D1E58BF51
:1002100001F801CBFAD505E014F8016B01F8016B88
:100220006D1EF9D59142D6D37047000000230024FB
:1002300000250026103A28BF78C1FBD8520728BFF6
:1002400030C148BF0B6070471FB507F06AFA1FBD89
:1002500010B510BD00F0F9F81146FFF7F5FF07F0F3
:100260003DF800F017F903B4FFF7F2FF03BC00F00C
:100270001FF900000948804709480047FEE7FEE7EC
:10028000FEE7FEE7FEE7FEE7FEE7FEE7FEE7FEE746
:1002900004480549054A064B70470000E54200083E
:1002A000950100089886002098D6002098A6002086
:1002B00098A6002053EA020C00F069802DE9F04B6B
:1002C0004FF00006002B1FBFB3FA83F503FA05F4C5
:1002D00024FA05F65E4012BF1643B2FA82F502FA1E
:1002E00005F4C5F120051EBF22FA05FC44EA0C0402
:1002F000203556EA044C4FEA144418BF641C4FF0F2
:1003000000084FF00009904271EB030C39D300292B
:1003100019BFB1FA81F701FA07F6B0FA80F700FACF
:1003200007F6C7F120071EBF20FA07FC46EA0C06B5
:100330002037B6FBF4FCA7EB0507103F07F01F0BB7
:10034000CBF120062CFA06F60CFA0BFB44BFB346A1
:100350000026202FA4BF5E464FF0000B5BEA060C80
:1003600008BF4FF0010B19EB0B0948EB0608ABFB7C
:10037000027C06FB02CC0BFB03CCC01B71EB0C0117
:10038000C1E70B46024641464846BDE8F08B13B52F
:100390004FF000004FF00001AFF30080BDE81C40BB
:1003A000704702F0FF0343EA032242EA024200F0F0
:1003B0002CB84FF0000200B51346944696462039FB
:1003C00022BFA0E80C50A0E80C50B1F12001BFF40E
:1003D000F7AF090728BFA0E80C5048BF0CC05DF874
:1003E00004EB890028BF40F8042B08BF704748BFC2
:1003F00020F8022B11F0804F18BF00F8012B704736
:100400007047704770474FF000020429C0F0128017
:1004100010F0030C3FF4CFAFCCF1040CBCF1020F91
:1004200018BF00F8012BA8BF20F8022BA1EB0C018C
:10043000FFF7C1BF5FEAC17C24BF00F8012B00F8C1
:10044000012B48BF00F8012B7047754600F02CF8CF
:10045000AE4605006946534620F00700854618B0B1
:1004600020B5FFF715FFBDE820404FF000064FF024
:1004700000074FF000084FF0000BAC46ACE8C00995
:10048000ACE8C009ACE8C009ACE8C00921F007013C
:100490008D46704710B50446AFF300802046BDE896
:1004A0001040FFF7E0BE00000048704778010020D0
:1004B00001491820ABBEFEE7260002007047FEE7A8
:1004C000014800F0DFB800BF1081002001686FF024
:1004D0000F0240F2FF3352FA81F2994318235F2A48
:1004E000B2FBF3F203A388BF043181659A5CC26555
:1004F0000846704700061016000610167047EFF306
:10050000108072B6FEE70000002200F001B8000083
:1005100010B5844645F6CC54C2F20004607A002837
:100520001CBF012010BD94F809E0002004F80E0063
:10053000637A04EB8303C3F804C0637A23441A721A
:10054000627A531C6372C87042F63A73A1F80130A4
:1005500030320A7010BD0000B0B506F00DFF45F650
:10056000E054C2F200040EA12046012206F0C2F8B7
:1005700045F6D855C2F20005287040F20631C2F2A5
:10058000000145F6C853C2F200032046642206F07B
:10059000C9F92870204606F065F82870B0BD00BF84
:1005A000312E626D7000000047F61021C1F6FF7118
:1005B00008688A68801808BF7047B0B54C6840F278
:1005C0005C15C2F20005A91C082202F09BFB05F194
:1005D000120120460422BDE8B04002F093BB70B582
:1005E000866D044600F08AFA054694F83500022824
:1005F00028D12068016821F016010160416921F0CD
:1006000080014161216C09B9A16C19B1016821F027
:1006100008010160016821F00101016005E000F0BE
:100620006DFA401B052811D820680068C007F6D174
:10063000E06D3F2101FA00F0B060012084F8350040
:10064000002008E080206065012004E02020606533
:10065000032084F83500002184F8341070BD90F830
:100660003510022909D1052180F83510006801688C
:1006700021F00101016000207047802141650120C7
:1006800070470000F8B50446002008210090584843
:100690000568D4E916603768814039420CD0226879
:1006A00013685B0708D5136823F004031360B16077
:1006B000616D41F00101616501218140394208D03D
:1006C00022685269120604D5B160616D41F00201E1
:1006D000616504218140394208D02268126892077E
:1006E00004D5B160616D41F0040161651021814064
:1006F000394217D020680268120713D5B16002682A
:100700000168520306D4C9055EBF016821F00801E3
:10071000016001E0080301D4216C00E0A16C09B183
:1007200020468847E16D202000FA01F23A423BD092
:1007300020680368DB0637D5B26094F8353002686C
:10074000052B19D122F016020260426922F08002C4
:100750004261226C0AB9A26C1AB1026822F0080246
:1007600002603F208840B060002084F834000120FF
:1007700084F83500216D37E0016852030CD4C905B7
:100780000ED4016821F010010160002084F83400CB
:10079000012084F8350003E0080301D4616C00E017
:1007A000E16B09B120468847606D00B3606DC007FA
:1007B00019D005214FF4165084F83510B5FBF0F030
:1007C00021680A6822F001020A60009A013282421E
:1007D000009202D80A68D207F7D1002084F83400CA
:1007E000012084F83500E16C09B120468847F8BD46
:1007F0007C0000202DE9F041044600F07FF9002C38
:100800004FD00546002084F83400022084F83500DB
:100810002168086820F00100086005E000F06EF92A
:10082000401B052840D821680868C007F6D1086831
:10083000394AD4E9013504F10C0800EA020C98E8C1
:10084000C101D4E9072E43EA0C032B431843636A22
:1008500030433843042B40EA080040EA020040EAF3
:100860000E0225D1D4E90BE042EA0E02BEF1000FE0
:1008700040EA0200086051F8140FA26A20F0030059
:1008800040EA020040F0040C19D0B8F5005F28D00F
:10089000B8F1000F35D1022A36D0012A2BD09AB3F5
:1008A0000DE00120BDE8F08103252023032013E0A3
:1008B0000A6051F8140F20F0070040EA030C2046AC
:1008C000C1F800C0FFF702FEE16D3F2200230125C1
:1008D00002FA01F181600020636584F83550BDE8BB
:1008E000F081032AEBD8012540230120DFE802F044
:1008F000020C0203F0E7AEF1C070B0FA80F04009DC
:1009000004E0032A04D3DAD1CEF300600028D6D065
:10091000012540230120DFE73F8010F0B0B50446F9
:1009200000F0ECF805469748611C007818BF0444B5
:1009300000F0E4F8401BA042FAD3B0BD2DE9FC4F13
:10094000614A07274FF0010B4FF000094FF0000CF0
:100950004FF0000A90425D4A08BF042702444FEA64
:10096000B223042B38BF4FEAB2270097BCF1200F07
:1009700008BFBDE8FC8F0B680BFA0AF6334200F0A3
:100980009B804B6803F00308A8F10104012C17D8E1
:100990000322856802FA0CF425EA0402CD686FEAA6
:1009A000040E05FA0CF515438560C3F3001505FA2E
:1009B0000AF24568B54315434FEA4A0245600CE028
:1009C0000325B8F1030F624605FA0CF56FEA050E30
:1009D00003D162464FF0030821E0C4688D68B8F186
:1009E000020F04EA0E0405FA02F544EA0504C460A5
:1009F00015D109F01C030F2404FA03F86FF0030467
:100A000004EA5A0505442C6A24EA08080C6904FA29
:100A100003F343EA08032B624B6803F003080468FE
:100A200008FA02F513F4403F04EA0E0445EA04050F
:100A3000056041D0002209F00C040192264A136897
:100A400043F4804313601368214A03F4804317463C
:100A500001932AF003031344204A019D96469D58B2
:100A60000F22A24025EA0202009DA5402A4343F836
:100A70000E203A684D6842EA0603EC0358BF22EAAA
:100A800006033B60AC037A6842EA060358BF22EAD9
:100A900006037B60EC02BA6842EA060358BF22EA0A
:100AA00006030C4ABB60AD021746126842EA060311
:100AB00058BF22EA06033B6009F104090CF1020C5D
:100AC0000AF1010A52E700BF001002400000FEBF19
:100AD000003C01400C3C01404438024008FCFFFF50
:100AE000426902EA0103914341EA0341816170478F
:100AF000002A08BF090481617047000005480068AA
:100B0000704700BF1F48034900780A681044086016
:100B1000704700BF9486002080B50B48016841F4FF
:100B200000710160016841F480610160016841F475
:100B300080710160032000F071F80F2000F006F8CA
:100B400000F024F8002080BD003C024070B50D4E3E
:100B500004464FF47A713078B1FBF0F00A49096825
:100B6000B1FBF0F001F094FD01250F2C08D838B945
:100B70004FF0FF3021460022002500F031F874606C
:100B8000284670BD000000207C00002082B00020BC
:100B90000B4901904A6842F480424A604A6802F474
:100BA00080420192019A0090086840F080500860ED
:100BB000086800F080500090009802B0704700BFB5
:100BC00040380240002808DB00F01F0101224009E4
:100BD00002FA01F1014A42F82010704700E100E0FA
:100BE00080B5144B1B68C3F3022CBCF1030E8CF0D0
:100BF00007034FF0FF3C38BF4FF0000E042B28BF17
:100C000004230CFA03F399430CFA0EF301FA0EF1E4
:100C10009A431143BDE8804005F04CB905494FF6B1
:100C2000FF030A681A4060F30A2203481043086071
:100C3000704700BF0CED00E00000FA057047006847
:100C4000416200207047D0F800C00029DCF8240081
:100C50001BD080B5DCF82830A1F1010E00EB134366
:100C6000002006E00CEB81010130D1F8041103EB08
:100C70001143C1B28E45F5D80CEB8E0043EA024118
:100C8000C0F80411BDE8804003E040EA0240CCF81F
:100C90002800002070470000D0F8040403F0D8BEFC
:100CA000C1EBC10200EB8202926CD0F8040403F0A5
:100CB00045BE0000C1EBC10200EB8202D2F808225F
:100CC000D0F8040403F08EBED0F8040403F0C2BED2
:100CD00010B5044601F00F00090609D4C0EBC001AD
:100CE000002204EB810181F8FD2101F5FE7107E08E
:100CF000C0EBC001012204EB810181F83D203C31B1
:100D0000087094F8BC03012804BF022010BD012024
:100D100084F8BC03206804F079FB002084F8BC034D
:100D200010BDB0B5044601F00F006268904201D9D1
:100D3000012524E0090609D4C0EBC001002204EB20
:100D4000810181F8FD2101F5FE7107E0C0EBC001D2
:100D5000012204EB810181F83D203C31002508701F
:100D60008D7094F8BC03012801D1022507E0012011
:100D700084F8BC03206804F01FFD84F8BC532846A7
:100D8000B0BD10B5044690F8BC03012804BF022092
:100D900010BD01200A0684F8BC03206802D404F0C8
:100DA000FFFD03E001F00F0104F00EFE002084F8C7
:100DB000BC0310BD01F00F01C1EBC10100EB8100CC
:100DC000D0F81402704710B5044601F00F00090670
:100DD00009D4C0EBC00104EB810C00218CF8FD119B
:100DE0000CF5FE7108E0C0EBC00104EB810C0121A1
:100DF0008CF83D100CF13C018A60CB7008704A7889
:100E000002B1C880022B04BF0020087194F8BC0313
:100E1000012804BF022010BD012084F8BC03206813
:100E200004F040FA002084F8BC0310BD80B501F046
:100E30000F0CCCEBCC0100EB810E0021CEE984310C
:100E4000CEF808228EF8FD118EF8FCC10EF5FE7169
:100E50000369012B08BFCEF80C22DAB20068BCF19E
:100E6000000F02D004F0DCFC01E004F001FC0020E3
:100E700080BDB0B50446406801F00F05854284BFCF
:100E80000120B0BD080609D4C1EBC100002104EB6C
:100E9000800080F8FD1100F5FE7108E0C5EBC5008B
:100EA000012104EB800080F83D1000F13C0101209D
:100EB0000D70887094F8BC23012A04BF0220B0BDD5
:100EC00084F8BC03206804F08FFC2DB9217C2068D5
:100ED00004F5717204F044FC002084F8BC03B0BD3A
:100EE00010B501F00F0C0024CCEBCC0100EB810E0F
:100EF000714601F83CCFC1E905340123CA604B704B
:100F00000369012B08BFCEF84C20DAB20068BCF1AF
:100F1000000F02D004F084FC01E004F0A9FB0020E3
:100F200010BD00002DE9F04F87B0046881462046CF
:100F300004F06EFD10B107B0BDE8F08FD9F80000E5
:100F400004F092FD0028F6D0D9F8000004F08CFDE2
:100F50000146D9F80000890742BF416901F002014A
:100F6000416104F081FD0146D9F800000494C906EE
:100F70003FD5816921F010018161246AC4F34340A7
:100F800004F00F0506281CD002282BD147F6F0707C
:100F9000044027D0C5EBC500220909EB8005049861
:100FA000D5F8081204F064FDD5F80802D5F814123B
:100FB00000EB1410C5F8080201EB1410C5F8140278
:100FC00010E0049809F57171082204F051FDC5EB99
:100FD000C50009EB8000D0F81412C4F30A121144C2
:100FE000C0F81412D9F80000816941F01001816144
:100FF000049C04F039FD000340F1C280D9F80000E0
:1010000004F011FD064609F5717009F5057A002511
:101010004FF430680690002E00F0B280F00700F028
:101020008C805FFA85FBD9F80000594604F014FD66
:101030000746C00748D004EB080001218160D9F8B9
:10104000000008EB0001036C8A68D9F81040012CFD
:1010500010D114071AD4940633D4049C12F0280F2C
:1010600032D1E44CA3426FD312F400426CD04FF45F
:10107000004027E0DF4CFF34A34212D1049C10044F
:101080000BD4900644BF2020886015E0D948049C0A
:10109000834219D312F4004016D04FF40040886008
:1010A00012E0049CB8F5306F06D1D9F8101219B9C6
:1010B000069A002104F054FB48465946FFF7FAFD12
:1010C00002E020208860049C380723D504EB080048
:1010D0000821C84B8160D9F80010013B0A6C08EB6D
:1010E000010081689A4212D9090444BF4FF40041BB
:1010F0008160484600F024FBD9F81000012809D18E
:10110000D9F80000069A012104F02AFB02E04846C3
:1011100000F016FBF80642BF04EB080010218160C6
:10112000B80642BF04EB080020218160B80442BF2A
:1011300004EB08004FF4005181600AF11C0A08F129
:1011400020087608013566E75AE904230969B8F5ED
:10115000306F6FF3DF41A2EB0101CAF8001003EB1F
:1011600002014AF80C1C06D1D9F8101219B9069AD6
:10117000012104F0F5FA48465946FFF79BFDA2E726
:10118000D9F8000004F070FC400340F1B480D9F8B5
:10119000000004F041FC064609F5717004F5106783
:1011A000002301900297A3E0F00700F09F80D9F898
:1011B0000000D9B20593069104F03CFC0546C00737
:1011C00029D0059B0122D4F8341803F00F0002FA4D
:1011D00000F021EA0000C4F8340807EB43108260F5
:1011E000D9F81000012812D1C3EBC300002B09EB82
:1011F0008000D0E911121144816408D1D9F850005F
:1012000028B9D9F80000019A012104F0A9FA069939
:101210004846FFF745FD2807059B42BF07EB4310F3
:1012200008218160E80642BF07EB4310102181606E
:10123000680642BF07EB431040218160A80742BF08
:1012400007EB43100221816028064FD5C3EBC30092
:1012500009EB800AD3465BF8500FD84658F8042FA4
:10126000904243D3D9F800505AF8441F841A039689
:101270004F468C4288BF0C4605EB43110AF1040629
:1012800001F5106917E03C7CDAF800303168009411
:10129000841A28469C4288BF1C46069AA3B204F0D2
:1012A000C1FC306820443060D8F800000219C8F84A
:1012B0000020DBF80000D9F81830E11C9BB2B3EB3A
:1012C000910F28BF9042DED8B946DDE90276DDE90C
:1012D000044390420AD803F00F00012101FA00F004
:1012E000D5F8341821EA0000C5F83408760801332F
:1012F000002E7FF459AFD9F8000004F0B5FB0028A8
:1013000002DBD9F800001AE0D4F8040820F001004C
:10131000C4F8040899F8F403012807D1002000213B
:1013200089F8F4034846FFF789FC02E0484600F0DC
:10133000EBF9D9F80000416901F00041416104F086
:1013400093FB000502D4D9F800000CE0D4F808089B
:10135000C00702D0484600F019FAD9F800004169E8
:1013600001F40061416104F07FFBC00402D4D9F8AC
:1013700000005EE0D4F80408102120F00100C4F859
:101380000408D9F8000004F01FFBD9F8042004F584
:10139000106104F500604FF67F3318E08B60013A6E
:1013A0000F6827F400170F600F6847F000670F60A1
:1013B000C1F80832D1F8007227F40017C1F80072A2
:1013C000D1F8007247F00067C1F800722031002A9E
:1013D000E4D1C16941F00111C161D9F8301059B1AE
:1013E000D0F8841041F00B01C0F8841000F14401E2
:1013F00009E000BF0B30544F416942F22B02114308
:10140000416100F110010A6842F00B020A6009F51F
:101410007172016821F4FE61016099F81010D9F829
:10142000000004F09DF9D9F80000416901F48051F1
:10143000416104F019FB0146D9F8000089041AD56E
:1014400003F076FFD9F8000004F0D4FAC9F80C00D4
:10145000D9F8005000F0DEFA99F80C200146284631
:1014600004F068FB484600F03DF9D9F800004169F6
:1014700001F40051416104F0F7FA000702D4D9F8F1
:10148000000008E0484600F043F9D9F8000041693F
:1014900001F00801416104F0E7FAC00202D4D9F872
:1014A000000009E04846002100F03AF8D9F80000B1
:1014B000416901F48011416104F0D6FA800202D43E
:1014C000D9F8000009E04846002100F02DF8D9F8CD
:1014D0000000416901F40011416104F0C5FA4000C7
:1014E00002D4D9F8000008E04846FFF7D5FBD9F848
:1014F0000000416901F08041416104F0B5FA400704
:101500007FF519ADD9F800004468610704D5484655
:10151000FFF7DAFBD9F800004168214341600AE592
:10152000D0F8040403F0FCBAD0F8040403F00ABBBA
:101530002DE9F04F8BB0002800F08080044605684C
:1015400090F8BD0328B9002084F8BC03204600F0C1
:1015500085F8032084F8BD03E86BC0055CBF00205C
:101560002061206804F07EF8206804F1040E04F184
:101570001C0A0A909EE80E589AE8C007D4E90C505D
:10158000CDE9085003A88DE8005880E8C0070A9804
:1015900003F0DEFE00284ED120680021002504F073
:1015A00088FA6168012000220FE0C3EBC30704EB57
:1015B0008707A7F8423087F83C2087F83D003D6553
:1015C000C7E9115587F83F500132D3B29942ECD8A0
:1015D000002000220EE0C3EBC30304EB8303C3F837
:1015E0001002C3E9810083F8FF0183F8FC2183F82E
:1015F000FD010132D3B29942EDD8A06804F1140E76
:1016000004F1240A22680A90D4E903379EE840587E
:101610009AE80007D4E90C50CDE9085002A8CDE9BA
:10162000007680E8005805A880E8000710460A9A6E
:1016300003F04EFF38B1022084F8BD03012528468F
:101640000BB0BDE8F08F0025012084F8385084F8F5
:10165000BD03206803F02EFFF1E70000B0B586B0AF
:1016600000240594CDE90344CDE901440068B0F1BC
:10167000A04F01D006B0B0BD009443F63005C4F2CF
:101680000205286840F001002860286800F0010089
:10169000009000980A2005900320CDE90340022025
:1016A00002904FF4C05001900020C4F2020001A942
:1016B000FFF744F9686840F080006860009468694A
:1016C00040F480406861686900F4804000900098B0
:1016D000432000210022FFF783FA4320FFF772FA2C
:1016E00006B0B0BD10B50446C068022818BFFEF7AA
:1016F00006FFD4F80404012103F09AFAD4F8040494
:10170000BDE8104003F046BAD0F8040403F074BA00
:10171000D0F8040403F07ABA10B5044690F8BC037C
:10172000012804BF022010BD012084F8381084F87D
:10173000BC03206804F0EEF9002084F8BC0310BD5F
:10174000D0F8042400F57171104603F07FBA10B58B
:10175000044690F8BC03012804BF022010BD0121FB
:10176000206884F8BC13A16A012906D1A169012966
:101770001EBF816B41F48031816304F00BF9206856
:1017800003F08AFE002084F8BC0310BD10B50446A7
:10179000D0F8040403F09EFA2068D0F8001E41F04F
:1017A0000101C0F8001E206A002808BF10BD4EF6D7
:1017B0001050CEF20000016841F00601016010BD3A
:1017C000F8B50446006810F0050F25D0424F002000
:1017D0008D4E3860FFF792F905463068000105D557
:1017E000FFF78CF9401B0228F7D933E0D4E9010157
:1017F000090741EA8010C6F8840001203860FFF72D
:101800007DF905463068000105D4FFF777F9401BE4
:101810000228F7D91EE02068810754D500207A4EAF
:101820002E4F0090306C40F080503064306C00F0EF
:10183000805000900098386840F480703860FFF75E
:101840005DF905463868C00506D4FFF757F9401B17
:101850000228F7D903203DE0306F10F440701FD00C
:10186000E16801F4407188421AD0306F1C490122AE
:101870000A60002220F440700A603067306FC007B1
:101880000ED0FFF73BF9054641F28837306F8007ED
:1018900006D4FFF733F9411B0320B942F6D919E00A
:1018A000E068B2680F4900F4407322F4F812014076
:1018B0006FF31F30B3F5407F08BF0A43B260316F4A
:1018C000084330672068000742BF207C0449C1F804
:1018D000A003002001B0F0BD680047420070004046
:1018E000400E4742FFFCFF0F2DE9F041002800F0B9
:1018F0008780454B04468846D3F8000400F0070073
:10190000884207D283F80084D3F8000400F007006F
:10191000404575D12068810711D5410742BF9968BC
:1019200041F4E0519960010742BF996841F4604178
:1019300099609968A26821F0F00111439960C0078D
:101940002CD06068811E022903D21968890109D44C
:1019500056E0012803D11968890303D450E01968BF
:1019600089074DD599681D4621F003010843986009
:10197000FFF7C4F8064641F2883707E0FFF7BEF8E4
:10198000801BB84284BF0320BDE8F081A86861686D
:101990002B4600F00C00B0EB810FEFD1D3F8000420
:1019A00000F00700404507D983F80084D3F800040D
:1019B00000F00700404523D12068410705D599680C
:1019C000E26821F4E05111439960000706D5986858
:1019D000216920F4604040EAC10098601C4600F094
:1019E00037F8A168094AC1F30311515CC840154991
:1019F000086007480068FFF7A9F80020BDE8F081FB
:101A00000120BDE8F08100BF003802403C770008AB
:101A1000040000200B480068704700BF09480A49CD
:101A20000A4A00680968C1F38221515CC8407047C6
:101A300004480549054A00680968C1F34231515C10
:101A4000C84070477C000020083802404C770008EE
:101A500010B5134C606800F00C00082804D004286E
:101A600014BF1048104810BD2268206800234002AF
:101A700002F03F020C485CBF42F20040C0F2F400AA
:101A80002168C1F38811A0FB0101FEF713FC216856
:101A90000222C1F3014102EB4101B0FBF1F010BDA4
:101AA000043802400024F40040787D012DE9FC4117
:101AB000002800F03E8104460078BF4EC00743D0A6
:101AC000B06800F00C00042805D1306880033BD5D5
:101AD0006068C8BB2DE1B06800F00C00082802D196
:101AE00070684002F1D46768B7F5803F06D030686F
:101AF000B7F5A02F12D140F480203060306840F458
:101B000080303060FEF7FAFF0546306880031BD452
:101B1000FEF7F4FF401B6428F7D9ABE020F48030D7
:101B20003060306820F480203060FEF7E7FF054623
:101B3000002FEAD13068800306D5FEF7DFFF411B96
:101B400003206429F6D9F5E0207880072BD5B0680A
:101B500010F00C0F07D0B06800F00C00082809D175
:101B60007068400206D43068800715D5E068012807
:101B700012D0DEE0E06800287ED0904801210160AC
:101B8000FEF7BCFF05463068800705D4FEF7B6FFB8
:101B9000401B0228F7D96DE03068216920F0F80079
:101BA00040EAC10030602078000720D56169834891
:101BB00071B10121C0F8801EFEF7A0FF0546706FCD
:101BC000800714D4FEF79AFF401B0228F7D951E092
:101BD0000021C0F8801EFEF791FF0546706F800758
:101BE00005D5FEF78BFF401B0228F7D942E020788D
:101BF000400771D5306C4FF00008C0000CD4CDF810
:101C000004804FF00108306C40F080503064306C3C
:101C100000F0805001900198694F3868C0050FD4DA
:101C2000386840F480703860FEF768FF0546386811
:101C3000C00505D4FEF762FF401B0228F7D919E062
:101C4000A768012F05D0306F052F26D140F0040082
:101C50003067306F40F001003067FEF74FFF0546F8
:101C600041F28837306F80072FD4FEF747FF401BC3
:101C7000B842F7D903205DE0504800210160FEF72B
:101C80003DFF0546306880077FF58DAFFEF736FFD4
:101C9000411B03200229F5D94CE020F001003067F8
:101CA000306F20F004003067FEF728FF0546002F54
:101CB000D6D141F28837306F800706D5FEF71EFF78
:101CC000411B0320B942F6D934E0B8F1000F1EBF22
:101CD000306C20F080503064A769002F6AD0B06863
:101CE00000F00C00082828D1012F22D07068E1698B
:101CF00000F480028A421CD1216A00F03F028A422D
:101D000017D147F6C071626A0140B1EB821F10D152
:101D1000A16A4FF6FF72C903914300F44032A1F566
:101D200080318A4205D1E16A00F07060B0EB016F4A
:101D300040D0012002B0BDE8F08120490020884653
:101D40000866FEF7DBFE0546022F09D130688001E8
:101D500010D5FEF7D3FE411B03200229F6D9E9E78F
:101D60003068800126D5FEF7C9FE411B03200229F9
:101D7000F6D9DFE704F11C078FCF0843D90340EA07
:101D800082104FF6FF72914340EA0760A1F580315F
:101D9000084370600120C8F86000FEF7AFFE0446FB
:101DA0003068800106D4FEF7A9FE011B032002293A
:101DB000F6D9BFE70020BDE70038024000004742E7
:101DC0000070004010B50068002A406800F03F0332
:101DD0004FEA104C8B70C0F3042E81F801E081F8BB
:101DE00003C0C0F342340C701AD11B0900F00F0479
:101DF000020A43EA830302F00F0204EB43038B70F1
:101E00004FEA1E1343EA830302EB43024A70C0F316
:101E100003500CF00F0200EB800002EB4000C87092
:101E2000002010BD10B50068002A836A4B6003696A
:101E30006FF3DF338B6003684FF0400000EA13401C
:101E4000C87003F07F008870C3F3062E81F801E0AC
:101E5000C3F3054C81F800C01BD100091A0A1C0C01
:101E600003F00F0300EB800003EB4000887002F0EA
:101E70000F004FEA1E1202EB820200EB42004FEA13
:101E80001C12487004F00F0042EA820200EB42008C
:101E90000870002010BD0000B8B110B50446407FA6
:101EA00020B900202077204600F042F80220CA2105
:101EB00060772068416253214162204601F031FB86
:101EC000216820B1012004222BE00120704788689E
:101ED000164A104088606068D4E9042310438A6879
:101EE000184310438860E0680861A0680A6942EA04
:101EF00000400861C86820F08000C86088688006DB
:101F000005D4204600F0FEF821680028DAD1086CDC
:101F100020F480200864A0690A6C10430122086440
:101F20000020FF234B62627710BD00BFBFFF8FFF11
:101F300010B586B0044601A81421FEF73AFA2068CD
:101F4000094988420DD14FF480700490022001901D
:101F500001A8FFF735FC08B1FEF7D1FA03480121CB
:101F6000016006B010BD00BF002800403C0E474293
:101F70002DE9F0410D46017F04460220012908BFEA
:101F8000BDE8F08160770120002A207706D06878CC
:101F9000E978AE78000240EA014714E06F78DFF894
:101FA0005C81F80642BF07F0EF0000F10A076F708E
:101FB000E878C0470646F8B2C047000240EA064744
:101FC000A878C04706462068CA212D78416253216F
:101FD0004162204601F0A5FA18B1216801200422CF
:101FE00016E047EA0600216820F0C00040EA4530CC
:101FF0004860C86820F08000C8608868800605D402
:10200000204600F07FF821680028E7D10020012257
:10201000FF234B62002121776277BDE8F08100BF8A
:102020002DE9F0470D46017F04460220012908BF33
:10203000BDE8F08760770120002A20772768B8681C
:1020400000F040000FD0002807BF4FF0000885F8CF
:102050000380E8784FEA004869782878AE7809026A
:1020600041EA004915E0002807BF4FF0000885F855
:102070000380E8784FEA0048DFF880A02878D0474E
:1020800006466878D047000240EA0649A878D0475B
:102090000646CA20786253207862204601F041FA51
:1020A00018B121680120042220E049EA0600144901
:1020B00040EA0800084021680860886820F4802011
:1020C0008860D5E903028B68104318438860C868AC
:1020D00020F08000C8608868800605D4204600F0A3
:1020E00011F821680028DDD100200122FF234B6276
:1020F000002121776277BDE8F08700BFF734000840
:102100007F7F7F00B0B504460068C16821F0A00160
:10211000C160FEF7F3FC05462068C068800644BF36
:102120000020B0BDFEF7EAFC401BB0F57A7F84BF0B
:102130000320B0BDF0E770B550B1D0F824C004461C
:10214000BCF1000F06D00021216104F1140107E069
:10215000012550E06168B1F5827F03D004F11C01D4
:1021600000220A6000254FF0000EA56294F851107D
:1021700041B9204684F8505000F040F8D4E909C134
:1021800001F4005E022284F851202268136823F0D3
:1021900040031360D4E90130D4E9031603F48273D9
:1021A00000F4044001F400611844084406F0020100
:1021B0000844616901F001010844A16901F4007358
:1021C0001844E36903F038031844236A03F08003DA
:1021D000184340EA0E001060042000EA11400CF0A1
:1021E000100108445060D06920F40060D0610120E3
:1021F000656584F85100284670BD00002DE9F04F58
:1022000087B0044602A81421FEF7D3F82068454998
:1022100088425FD04449884240F08080002743488C
:10222000434D02AE4FF005094FF0030A4FF0020B89
:102230004FF040080197416941F480514161416983
:1022400001F48051019101990197016841F0010168
:102250000160016801F00101019101990197016894
:1022600041F0020101603146006800F00200019077
:102270000198CDF81890CDE9047ACDF80CB0CDF8DE
:102280000880A5F58060FEF759FB2820CDE905A957
:10229000CDE903B7314602902846FEF74FFB254DA6
:1022A0004FF48030244A4FF0C061C5E908074FF46D
:1022B0008060C5E90021C5E90287C5E90407284611
:1022C000C5E90677FEF796FA08B1FEF718F9A56496
:1022D000AC6323E00020154901900A6942F4804272
:1022E0000A610A6902F480420192019A01900A6827
:1022F00042F002020A60096801F0020101910199AD
:10230000052106910321CDE90401022002A90390D1
:102310004FF4604002900648FEF710FB07B0BDE89E
:10232000F08F00BF003800400030014030380240DC
:102330000004024010810020586402402DE9F84357
:10234000044690F85000012801D10220A8E04FF087
:1023500001091D4616460F4684F85090FEF7CEFB45
:10236000804694F85100012858D10120002F00F038
:102370009280002E00F08F80032084F8510000200E
:102380006065E686A6862763A087A063C4E910007F
:10239000E087A1682068B1F5004F07D1016821F0FE
:1023A00040010160016841F4804101600168490613
:1023B0005EBF016841F0400101606268711EE36820
:1023C000B1FA81F1B2FA82F24909B3F5006F4FEA2E
:1023D000521241EA020123D131B137F8021BC16028
:1023E0002763E08E0138E0866E1C13E02068816868
:1023F000890707D4FEF782FB66B1A0EB0800A8426C
:1024000008D347E0216B31F8022BC2602163E08ED4
:102410000138E086E08E0028E8D124E002203AE08E
:1024200039B139780173206B01302063E08E0138B7
:10243000E0866E1C14E020688168890707D4FEF7E7
:102440005DFB6EB1A0EB0800A84209D322E0216B2E
:1024500009780173206B01302063E08E0138E0863B
:10246000E08E0028E7D120462946424601F0A4FD2F
:1024700008B120206065A06838B90020009020686D
:10248000C1680091806800900098606D002818BFB6
:10249000012000E00320002184F8501084F85190BE
:1024A00001B0BDE8F0832DE9F843044690F85000F0
:1024B000012801D10220C7E001201E4615460F4623
:1024C00084F85000FEF71AFB94F851108146012958
:1024D0006BD10120002F00F0B180002D00F0AE8004
:1024E000002E00F0AB8094F85100DDF82080042825
:1024F0001CBF052084F8510000206065E687A563B5
:10250000A6872763C4E91000A686E68620680168CE
:1025100049065EBF016841F0400101606268711EBA
:10252000E368B1FA81F1B2FA82F24909B3F5006FBA
:102530004FEA521241EA020145D131B137F8021B8C
:10254000C1602763E08E0138E086012608F10105AD
:10255000E08E10B9E08F002879D020688168890763
:102560000CD5E18E012E09D141B1216B002631F845
:10257000022BC2602163E18E0139E1868168C907BF
:102580000AD0E18F41B1C068A16B012621F8020B8E
:10259000A163E08F0138E087FEF7B0FA002DD7D0B5
:1025A000A0EB09004045D3D347E06068B0F5827FD7
:1025B00007D10220042941D1A16800293FF489AF45
:1025C0003CE002203AE039B139780173206B0130E8
:1025D0002063E08E0138E086012608F10105E08ED7
:1025E00008B9E08F98B32068816889070ED5E18E1D
:1025F000012E0BD151B1216B002609780173216B9B
:10260000206801312163E18E0139E1868168C907C3
:102610000BD0E18F49B1C068A16B01260870A06B97
:102620000130A063E08F0138E087FEF767FA002DE4
:10263000D5D0A0EB09004045D1D30320002184F878
:102640005010012184F8511001B0BDE8F0832046FC
:1026500041464A4601F0B0FC18B1202060650120D7
:10266000ECE7A16800200029E8D100902168CA6841
:102670000092896800910099E0E700000C49042865
:102680000A6822F0040308BF42F004030B6070479D
:10269000411E0020B0EB116F1CBF01207047044A9F
:1026A000F023516003490B7007219060116070475F
:1026B00010E000E023ED00E07047704740B310B534
:1026C000044690F83D0028B9002084F83C002046DC
:1026D00000F020F80220211D84F83D00206801F060
:1026E0000FFE012084F8460084F83E0084F83F0085
:1026F00084F8400084F8410084F8420084F84300E4
:1027000084F8440084F8450084F83D00002010BDA2
:102710000120704700680D49884218BF7047E0B536
:102720000020002201900A48016841F40031016054
:102730000021006800F40030019001981920FEF794
:102740004FFA1920BDE88C40FEF73CBA0044014026
:102750004438024090F83D1001291CBF0120704709
:10276000022180F83D100068C168B0F1804F41F04F
:102770000101C1600ED00D4988420BD00C4988423E
:1027800008D00C49884205D00B49884202D00B4939
:10279000884204D1816801F00701062903D001684D
:1027A00041F0010101600020704700BF00040040BB
:1027B00000080040000C00400040014000000140C3
:1027C000704710B5044600680169890744BFC168B5
:1027D0005FEA817138D40169490744BFC1685FEA83
:1027E00041713DD40169090744BFC1685FEA0171C5
:1027F00043D40169C90644BFC1685FEAC16148D4D6
:102800000169C9071CBFC1685FEAC1714ED1016986
:10281000090644BFC1685FEA01614FD401694906F6
:1028200044BFC1685FEA416150D40169890646BF6F
:10283000C1685FEA816110BD6FF02001016120462F
:10284000BDE81040FFF739BF6FF0020101610121BF
:1028500021778069800741D02046FFF7B1FF43E030
:102860006FF00401016102212177806910F4407F3B
:102870003ED02046FFF7A4FF40E06FF00801016161
:1028800004212177C06980073CD02046FFF798FFDC
:102890003EE06FF01001016108212177C06910F45A
:1028A000407F39D02046FFF78BFF3BE06FF00101FE
:1028B0000161204600F03CF82068A8E76FF0800135
:1028C00001612046FFF7F8FE2068A7E76FF040019E
:1028D0000161204600F062F82068A6E7204600F07B
:1028E00025F8204600F023F800202077206872E7C2
:1028F000204600F01BF8204600F019F80020207751
:1029000020686FE7204600F011F8204600F00FF82D
:102910000020207720686CE7204600F007F820466A
:1029200000F005F800202077206869E770477047BD
:10293000B0B5184D05F11C01884200D0B0BD288803
:1029400001302880012004F0BFFC2888B0F57A7F90
:1029500004BF0020288004F013FC28886421B0FB09
:10296000F1F202FB1100002818BFB0BD0A4C05F1BE
:10297000080100222046FFF755FAA91C2046002234
:10298000FFF720FAF1484FF48061BDE8B040FEF750
:10299000A7B800BFD8010020788500207047704795
:1029A000704700001CB5044600680168D0F80CE0D0
:1029B00043695FEA017C5DD00EF4907203F001037D
:1029C000D21860D0CA071FBF1EF48072226C42F07A
:1029D000010222644A0704D51BB1226C42F00202B4
:1029E00022648A0704D51BB1226C42F004022264DF
:1029F000BCF1000F07D50EF02002D2181EBF226CCA
:102A000042F008022264226C002A00F0FE8001EAF3
:102A10000E01890603D5204601F0E1FC20684069DB
:102A2000216C00F0400001F00801401800F0DB804C
:102A3000204601F0ADFC20684169490601D4CDE093
:102A4000206850E8050F216820F0400041E80502A9
:102A5000002AF5D1A06B002800F0C0807049016504
:102A6000FDF7FDFD002800F0D080A06B016DBDE8F2
:102A70001C40084701EA0E018A0606D52046BDE83B
:102A80001C4001F0ACBC01EA0E01226BCB063AD52A
:102A9000012A38D100210191016801914168019119
:102AA0000199416949063ED4E18DA28DE38D002B49
:102AB00000F0AB80511A0A0401D1A6E0206850E86A
:102AC000030F226820F4907042E80303002BF5D135
:102AD000206850E8050F226820F0010042E8050355
:102AE000002BF5D1202084F83E00002020632068D0
:102AF00050E8030F226820F0100042E80303002B87
:102B0000F5D189B255E00A0658D449067DD5C16889
:102B100021F04001C160202084F83D002046BDE83E
:102B20001C4000F0ECB8A26B11684B6899B2002908
:102B30006BD0B4F82CC0614567D2E385D169B1F59B
:102B4000807F01D131E0206850E8030F216820F434
:102B5000807041E80302002AF5D1206850E8050F93
:102B6000216820F0010041E80502002AF5D1206823
:102B700050E8050F216820F0400041E80502002AD6
:102B8000F5D1202084F83E0000202063206850E822
:102B9000030F216820F0100041E80302002AF5D15C
:102BA000A06BFDF71CFDB4F82CC0E08DACEB000071
:102BB00081B22046BDE81C40FFF7F1BE94F83D10FD
:102BC000212922D1A168B1F5805F01D1216981B1AC
:102BD000216A4A1C22620978416011E02046BDE862
:102BE0001C40FFF7DDBE2046FFF7DAFE0020206420
:102BF0001CBD216A31F8022B6FF35F224260216213
:102C0000E18C0139E184090400D01CBDC16821F0C8
:102C10008001C160C16841F04001C1601CBD00BFBE
:102C20008543000850B310B5044690F83D0028B91C
:102C3000002084F83C00204600F022F8242084F88C
:102C40003D002068C16821F40051C160204601F0B8
:102C500027FC2068016921F490410161416921F05C
:102C60002A014161C16841F40051C1600020202166
:102C7000206484F83D1084F83E1010BD0120704798
:102C800010B586B0044601A81421FDF792FB216817
:102C9000184881422BD10021174A00F5DE300091FF
:102CA000136943F400331361136903F40033009391
:102CB000009B0091136843F001031360126802F057
:102CC00001020092009A072205920322CDE9031225
:102CD000022102910C21019101A9FDF72FFE26206E
:102CE00000210022FDF77CFF2620FDF76BFF06B0D8
:102CF00010BD00BF004400403038024070477047AC
:102D0000FEE7000010B5002A08BF10BD01314FF0EA
:102D1000000C4FF0370E00BF81F800C00EEB1073AF
:102D2000040FB0F1204F38BF04F1300301F8013C2B
:102D3000013A01F102014FEA0010EDD110BD00008F
:102D400002484FF450710122FDF7D2BE0004024048
:102D500070B5FFF7F5FF5B4C454E206820F400701E
:102D60002060C820B047206840F400702060C82070
:102D7000B047C820B0473F4C1120A047DC20B047E7
:102D80003620A0473C4DC020A8473A20A047052048
:102D9000A847B220A0470C20A8470C20A847002035
:102DA000A8473320A8473320A847B720A04735209D
:102DB000A847BB20A0473220A847C220A047012037
:102DC000A847C320A0471520A847C420A04720201B
:102DD000A847C620A0470F20A847D020A047A4207E
:102DE000A847A120A847E020A047D020A847082056
:102DF000A8470E20A8470920A8470920A847052072
:102E0000A8473120A8473320A8474820A8471720C3
:102E1000A8471420A8471520A8473120A8473420E8
:102E2000A847E120A047D020A8470820A8470E20A7
:102E3000A8470920A8470920A8471520A8473120FE
:102E4000A8473320A8474820A8471720A8471420A0
:102E5000A8471520A8473120A8473420A84721209B
:102E6000A0472920A04764203146BDE870400847AC
:102E70001D0900087D2E0008992E000810B5114C80
:102E8000216821F48071216000F006F8206840F488
:102E90008070206010BD00BF1CB50A4C8DF8070083
:102EA0000DF1070101224FF6FF73206820F040006A
:102EB00020600548FFF742FA206840F0400020609B
:102EC0001CBD00BF1404024098850020B0B5D0F8A6
:102ED000BC52002D08BFB0BD044641F21C00285C66
:102EE00088B12046812101F0E1FE687A022809D1EB
:102EF0002046812101F0DAFE20460121BDE8B040E4
:102F000001F0D4BEB0BD41F2180028580028E8D026
:102F1000687A0028E5D12046012101F0C7FEE0E7EC
:102F2000B0B5D0F8BC52ADB3044641F214002858F5
:102F300041F23401685041F21800285841F238013A
:102F400068502046012101F09DFD1F2813D141F258
:102F50001000285845F25531C4F2423188420AD156
:102F600041F21D00295C012905D841F21E00285CB0
:102F7000013810280FD341F21D00295C204605229C
:102F8000202300F08DFE022068722046BDE8B0408C
:102F9000FFF79CBFB0BD41F21F002A18204600F089
:102FA00073FB297AB0F1FF3F0CDD481E032838BFC0
:102FB000B0BDEA6872B105F110012046BDE8B0402D
:102FC00000F0E6B80529E0D120460121BDE8B04077
:102FD00000F0BAB820460021BDE8B04000F0B4B817
:102FE00010B50446D0F8BC02C8B1407A022809D115
:102FF0002046812101F05AFE20460121BDE8104003
:1030000001F054BE49B2B1F1FF3FC8BF10BD012865
:1030100005D020460121BDE8104000F095B810BD54
:1030200010B50446D0F8BC02F0B1017ACA1E022ADB
:1030300005D220460021BDE8104000F085B80229E5
:1030400012D141F21D01415C41F21F0202442046AF
:1030500000F01AFBB0F1FF3FC8BF10BD20460121B0
:10306000BDE8104000F070B810BD000010B5044677
:10307000D0F8BC02B0B1017A012907D0002918BFED
:1030800010BD2046BDE81040FFF74ABF41F21D01C8
:10309000415C41F21F020244204600F0F5FAB0F113
:1030A000FF3F00DD10BD20460121BDE8104000F0CB
:1030B0004BB80000D0F8BC0200281CBF00210172F0
:1030C00070470000B0B5D0F8BC52002D08BFB0BDAD
:1030D000044641F26200002129544FF483502952E2
:1030E0002981D4F8C00201680020884720460121C8
:1030F00001F0BEFC2046812101F0BAFC41F2100033
:103100002A18204601211F23BDE8B04001F038BD38
:10311000B0B5D0F8BC52002D08BFB0BD04464FF486
:10312000807028812046812101F0F4FB2046012196
:1031300001F0F0FB41F210002A18204601211F2364
:10314000BDE8B04001F01CBDB0B5D0F8BC52002DB8
:1031500008BFB0BD044641F23C00295441F23000A2
:1031600045F25531C5F242312950002129722A1801
:10317000204681210D2301F0B7FD41F210002A18ED
:10318000204601211F23BDE8B04001F0F9BC00003A
:103190008C46D0F8BC12002908BF704710B5134602
:1031A00041F218028A5841F23C0E002401F80E4008
:1031B00041F2380E51F80E40E41A41F80E40042452
:1031C0000C729A4238BF134681216246BDE8104016
:1031D00001F08ABDE0B50020002201904648016858
:1031E00041F4800101600021006800F4800001903A
:1031F00001983B20FDF7F4FC3B20BDE88C40FDF737
:10320000E1BC00BF80B540F26400C2F2000044F6A9
:10321000C051C2F20001FDF777F948F28C61C2F2A9
:103220000001087080BD00002DE9F04186B0002546
:103230003148324C002205950095016841F00401A7
:103240000160016801F00401009100990095016896
:1032500041F080010160016801F080010091009956
:103260000095016841F001010160016801F0010170
:10327000009100990095016841F0020101604FF44E
:10328000A051006800F00200009000982046FDF771
:103290002FFC20464FF4707101220126FDF728FC17
:1032A0000495CDE902654FF4806001ADDFF85080F0
:1032B000019020462946C04702274FF480502946F6
:1032C0000497CDE9026701902046C04703202946B4
:1032D00004904FF45070CDE9026601902046C0473B
:1032E00080200496CDE90267294601902046C04718
:1032F00006B0BDE8F08100BF303802400004024053
:103300003D09000810B586B001A81421FDF751F859
:103310001548164B0024FF217F22C0E90034C0E984
:103320000221C0E9044484610094FEF7B5FD08B1B0
:10333000FDF7E5F80C4801A90122CDE904448DF818
:103340000640ADF80440FEF76BFE08B1FDF7D7F874
:1033500007486946012200900348FEF709FE08B1BC
:10336000FDF7CDF806B010BD78850020002800409C
:103370000101010080B50E480E4A4FF4827100230E
:103380004FF4007CC0E900210A21C0E90233C0E902
:103390000433C0E906C3C0E90833C0E90A31FEF7C7
:1033A000CAFE002814BFBDE8804080BDFDF7A7B865
:1033B000988500200030014080B50F4800230F4A57
:1033C0000A214FF4827C4FF0080EC0E90833C0E9AF
:1033D0000A314FF40071C0E9002CC0E90233C0E9A2
:1033E0000433C0E9061EFEF7A6FE002814BFBDE8A0
:1033F000804080BDFDF783B8F08500200038004094
:1034000080B50B480B4940F2E732472340F81C1FB8
:10341000802181610021C0E90131C0E90321FFF76A
:103420004DF9002814BFBDE8804080BDFDF767B8A6
:10343000D80100200044014010B50B480B4C4FF45C
:10344000165300210C22C0E90043C0E90211C0E973
:103450000412C0E90611FFF7E5FB002814BFBDE820
:10346000104010BDFDF74BB84886002000440040D6
:1034700080B547F64060C2F2000040F20801C2F297
:103480000001002201F030FA002818BFFDF737F8DC
:1034900047F64060C2F2000040F29801C2F200011B
:1034A00001F034FD002818BFFDF729F847F6406009
:1034B000C2F2000040F23C11C2F2000101F09CFC9B
:1034C000002818BFFDF71BF847F64060C2F2000065
:1034D00001F0C4FD002814BFBDE8804080BDFDF7A9
:1034E0000EB8FEE7FEE700000148FDF71BBD00BF78
:1034F000708100207047014609284FF00A0328BF59
:103500000921C94301440A31CAB2B2FBF3F202EB0A
:103510008203A1EB4303591A084440EA0210C0B2E7
:103520007047B0B504460068C168490612D44FF030
:10353000FF31C160FDF7E2FA054607E0FDF7DEFA6C
:10354000401BB0F57A7F84BF0320B0BD2068C068FF
:103550004006F3D50020B0BDD0F8BC0250B10979C7
:10356000002918BF012141F2620281540021C1608B
:1035700048B27047FF2148B270470000D0F8BCC283
:10358000BCF1000F14D041F268015CF801101A443C
:103590008A429EBF002040B2704780B500210522BC
:1035A000212300F07DFBFF20BDE8804040B2704742
:1035B000FF2040B27047000080B58446D0F8BC02BE
:1035C00098B341F21803C35883B15378DB0712D183
:1035D000DCF8C032DB6901EBC10103EB81010B793F
:1035E000053312799A4288BF1A4613E060460021DB
:1035F0000522202317E09178802906D079B940F27E
:103600005601C2F20001062204E040F25C01C2F25F
:103610000001082200F0C0FB002040B280BD6046DF
:1036200000210522242300F03BFBFF2040B280BD97
:10363000D0F8BC0278B180B50A7A1B2A28BF1B22B9
:1036400040F22401C2F2000100F0A6FB0020BDE818
:10365000804040B27047FF2040B27047D0F8BC02B3
:1036600078B180B50A79172A28BF172240F23F01A6
:10367000C2F2000100F090FB0020BDE8804040B2A3
:103680007047FF2040B27047B0B5D0F8BC52002D53
:1036900000F0848013789D2B00F337805A2B00F2C2
:1036A0007680DFE803F02E74743C74747474747460
:1036B00074747474747474744174747474747474FD
:1036C000454A74744E7474747453745774745B7490
:1036D0005F747474746374747474747474747474D0
:1036E000747474747474747474747474747474749A
:1036F000747474747474747474747474747474748A
:103700006700BDE8B04000F01DBB9E2B37D0A82B52
:1037100039D0AA2B3BD1BDE8B04000F0DDBB11464B
:10372000BDE8B04000F070BABDE8B040FFF744BF5C
:103730001146BDE8B040FFF791BFBDE8B04000F0D2
:10374000D1BA1146BDE8B040FFF706BFBDE8B040B2
:1037500000F022BABDE8B04000F0A6B9BDE8B04024
:1037600000F0DAB8BDE8B04000F048BBBDE8B040BA
:1037700000F026BB1146BDE8B040FFF759BFBDE8D9
:10378000B04000F0C3B9BDE8B04000F029B9002155
:103790000522202300F084FA022068724FF0FF30E7
:1037A000B0BD00002DE9F04F81B0D0F8BC72002F01
:1037B00043D0054641F2640A37F80A0041F2700B23
:1037C00057F80B2002FB00F441F26C02BA58B4F532
:1037D000805F28BF4FF480541FFA84F8B8FBF0F3E1
:1037E000D5F8C002066907F1100908464946B047F6
:1037F000B0F1FF3F23DDBA44BB4441F26C003E18F8
:10380000284681214A46234601F06EFABAF80000A4
:10381000B8FBF0F0316801443160DBF80010081AA1
:10382000CBF8000041F238003958A1EB04013950BF
:1038300004BF03203872002008E0FF2006E028467D
:1038400000210422112300F02BFAFF2040B201B026
:10385000BDE8F08F2DE9F04F81B0D0F8BC62002EAA
:1038600046D0044641F26400305A41F2700956F8DD
:10387000092002FB00F741F26C0A56F80A20B7F55E
:10388000805F28BF4FF480571FFA87F8B8FBF0F32A
:10389000D4F8C002456906F1100B08465946A847FE
:1038A000B0F1FF3F26DD41F26400304406EB09022F
:1038B00006EB0A010088B8FBF0F30D681D440D60AB
:1038C0001168C91A116041F23802B358A3EB07031B
:1038D000B35017D001FB00F3B3F5805F28BF4FF45E
:1038E0008053204601215A4601F04AF900250EE096
:1038F000FF250CE0204600210422032300F0D0F92C
:10390000FF2504E0002520460021FFF71DFC68B2DA
:1039100001B0BDE8F08F0000F0B581B0D0F8BC7206
:1039200097B30D460446387A48B14FF48050F8609A
:103930002046294601B0BDE8F040FFF733BF41F211
:103940001C003856002806DB2046002105222023D3
:1039500000F0A6F918E041F26200385C022806D1B6
:103960002046002102223A2300F09AF90CE0164684
:10397000D4F8C00281682846884748B12046002113
:1039800002223A2300F08CF94FF0FF3001B0F0BD75
:10399000D6F8020002BA41F26C003A50F079317A5E
:1039A00041EA002341F27006BB5120462946FFF749
:1039B000E5FD0028E8DBB81941F21801795841F219
:1039C0006402BA5A00685043814202D10220387220
:1039D000ABE7204600210522202300F061F9D3E760
:1039E000F0B581B0D0F8BC7297B30D460446387A72
:1039F00048B14FF48050F8602046294601B0BDE838
:103A0000F040FFF7CFBE41F21C003856002806DB1D
:103A1000204600210522202300F042F918E041F25F
:103A20006200385C022806D12046002102223A2397
:103A300000F036F90CE01646D4F8C002816828463A
:103A4000884748B12046002102223A2300F028F995
:103A50004FF0FF3001B0F0BDD6F8020002BA41F2DB
:103A60006C003A50D6F8060003BA41F27006BB511A
:103A700020462946FFF782FD0028E9DBB81941F20C
:103A80001801795841F26402BA5A006850438142E1
:103A900002D102203872ACE7204600210522202303
:103AA00000F0FEF8D4E7000070B5D0F8BC62BEB1FB
:103AB000054641F264003418D5F8C0024368221D5F
:103AC000084611462246984720B941F26200305C10
:103AD000022808D12846002102223A2300F0E0F80B
:103AE000FF2040B270BD61680020B0820139F174DE
:103AF0000A0AB2740A0C7274090E31742188082201
:103B0000F260F175090AB17540B270BDF0B581B0CF
:103B1000D0F8BC72D7B11446064641F264003D1895
:103B2000D6F8C00243682A1D084611462A4698471F
:103B300020B941F26200385C022809D130460021E8
:103B400002223A2300F0ACF8FF2022E0FF2020E020
:103B5000D4F80A0000BAF86040B100210023002226
:103B60003B4419740132D3B29842F9D869680020F5
:103B700038830139F9750A0ABA750A0C7A75090E83
:103B800039752988F976090AB976D4F80A1009BA7C
:103B9000F96040B201B0F0BDB0B582B0D0F8BC520F
:103BA000BDB10446D0F8C0024368EC460DF10602F0
:103BB00008466146984720B941F26200285C022815
:103BC00009D12046002102223A2300F069F8FF20A3
:103BD00017E0FF2015E04FF00060286100980221F7
:103BE00029830138E875010AA975010C6975000E71
:103BF0002875BDF806000C21E960E876000AA87671
:103C0000002040B202B0B0BD80B5D0F8BC22002A7E
:103C100042D041F21803D358CBB30020C2F81500AC
:103C200082F82100C2F81D00C2F81900C2F8110084
:103C3000702010740C20D0754FF48350105C41F24A
:103C40006103D35C984219D002F5835C02EBC00E8D
:103C50004FF482531EF80330937441F244031EF86C
:103C60000330137741F245031EF8033053770130D8
:103C7000C3B2043B18BF03468CF800301220D0605A
:103C80000879122898BFD060002040B280BD002182
:103C90000522202300F004F8FF2040B280BD000080
:103CA000D0F8BC02002808BF7047B0B541F2610CE3
:103CB00010F80CE000EBCE0141F2450400250D5553
:103CC00041F244040B554FF48253CA540EF10101E2
:103CD000CAB2043A18BF0A4600F80C20BDE8B0404A
:103CE00070470000D0F8BC1221B341F2620C11F809
:103CF0000C30012B0FD1137903F00303022B0AD1EF
:103D000080B5002105222423FFF7CAFFFF20BDE86C
:103D1000804040B27047107900F003020020012A71
:103D200018BF032A09D101EB0C0210700020C860F3
:103D300040B27047FF2040B27047022AF6D10220FD
:103D4000F1E70000B0B5D0F8BC52F5B1044641F23D
:103D50001800285830B12046002105222023FFF703
:103D60009FFF12E041F26200285C022805D0D4F8DF
:103D7000C00282680846904750B1204600210222C6
:103D80003A23FFF78DFF05202872FF2040B2B0BD17
:103D90000020E86040B2B0BD80B578B1C260002AB2
:103DA00008BF80BD013A1FFA82FE11F80EC010FA5A
:103DB00082F383F810C0BEF1000FF3D180BD000084
:103DC00010B5D0F8BC42ACB1527892070DD441F294
:103DD0007002A35841F26C02A258FFF7CFFB0028F3
:103DE00008DB0020E06040B210BD00210522242342
:103DF000FFF756FFFF2040B210BD00002DE9F04153
:103E0000D0F8BC72002F62D00D460446387A28B133
:103E100020462946BDE8F041FFF71CBD41F21800DD
:103E200007EB0008D8F8000000284AD041F21C0037
:103E30003856B0F1FF3F44DD1646D4F8C002816821
:103E40002846884720B12046002102223A233CE040
:103E5000D4F8C002C1682846884720B12046002116
:103E60000222272331E0D6F8020002BA41F26C00A8
:103E70003A50F079317A41EA0023C8F858302046A8
:103E80002946FFF77BFB002821DB41F26400385A0A
:103E9000D8F80010D8F8582002FB00F3994210D14E
:103EA00001203872B3F5805F28BF4FF4805307F1CB
:103EB00010022046012100F063FE002040B2BDE860
:103EC000F0812046002105222023FFF7E9FEFF2094
:103ED00040B2BDE8F08100002DE9F041D0F8BC729D
:103EE000002F65D00D460446387A28B12046294671
:103EF000BDE8F041FFF7AEBC41F2180007EB000847
:103F0000D8F8000000284DD041F21C003856B0F11E
:103F1000FF3F47DD1646D4F8C0028168284688472F
:103F200020B12046002102223A2309E0D4F8C00241
:103F3000C1682846884740B1204600210222272335
:103F4000FFF7AEFE0520387232E0D6F8020002BA62
:103F500041F26C003A50D6F8060003BAC8F858305F
:103F600020462946FFF70AFB002821DB41F26400C6
:103F7000385AD8F80010D8F8582002FB00F39942BC
:103F800010D101203872B3F5805F28BF4FF4805301
:103F900007F110022046012100F0F2FD002040B29E
:103FA000BDE8F0812046002105222023FFF778FE9E
:103FB000FF2040B2BDE8F0811CB504464E481346D0
:103FC0000A4611490068B0FBF1F04FF47A7148439A
:103FD00001906068B0F5827F0AD12046802100F010
:103FE00031F870B1606D40F020006065032009E099
:103FF000019830B10198013801902068806800066E
:10400000F6D4002002B010BD00366E01E0B58DF888
:1040100006004FF6FF7000210DF10702012300900A
:1040200007488DF807100DF10601FEF73CFA00284D
:104030001ABFFF208DF807009DF8070002B080BD71
:10404000F08500202DE9FC411E4617460D468046AE
:10405000FCF754FD301AC419FCF750FD06462648FB
:1040600001370068C0F3CB306043019006E001984F
:10407000019901390028019108BF0446D8F80000D1
:1040800081682940A94232D1002FF9D0FCF736FDD2
:10409000801BA042EBD3D8F80000416821F0E0017A
:1040A0004160D8F80410B1F5827F0BD1D8F8081020
:1040B000B1F5004F02D0B1F5806F03D1016821F056
:1040C00040010160D8F82810B1F5005F07D1016800
:1040D00021F400510160016841F4005101600020A9
:1040E00088F85000012088F85100032000E00020EB
:1040F00002B0BDE8F08100BF7C0000204FF40060FA
:1041000008604FF4805010800020704700207047F6
:104110000020704780B501F0E7FD0021002808BFAE
:104120004FF0FF31084680BD0020704770B57BB16D
:104130001C460D46160300BF284631464FF48052F8
:1041400001F0B0FD013C05F5805506F58056F3D130
:10415000002070BD70B57BB11C460D46160300BF34
:10416000284631464FF4805201F0EAFD013C05F546
:10417000805506F58056F3D1002070BD70470000D1
:104180000088704710B540F27804C2F200040120A4
:10419000207001F0A9FD00281EBF207800F0FE006D
:1041A0002070207810BD0000042906D80020DFE828
:1041B00001F00306090C03007047042070474FF418
:1041C000006004E04FF4805001E04FF48030106054
:1041D0000020704770B57BB11C460D46160300BF2A
:1041E000284631464FF4805201F05CFD05F58055BC
:1041F00006F58056013CF3D1002070BD40F27800F6
:10420000C2F20000017801F0FE01017000787047F1
:1042100070B57BB11C460D46160300BF28463146DB
:104220004FF4805201F08CFD05F5805506F580565F
:10423000013CF3D1002070BDFCF764BCB0B592B076
:10424000002401A814210B94CDE90944FCF7B1F82E
:10425000224800940225016841F080510160006805
:1042600000F080500090009800941D48016865F3AC
:104270008F310160006800F44040009000980320F6
:1042800011900420109090200F9019200E904FF460
:104290008000CDE90C50012008904FF48030079049
:1042A0000520069006A8FDF701FC18B1EFF3108079
:1042B00072B6FEE74FF480500594012104900F2060
:1042C000CDE90254019001A8FDF70EFB18B1EFF300
:1042D000108072B6FEE712B0B0BD00BF4038024099
:1042E000007000400248016841F4700101607047AD
:1042F00088ED00E00148FEF764BA00BFF401002039
:1043000010B50368184AB0F1804F13D0174CA04283
:1043100010D0174CA0420DD0164CA0420AD0164C1B
:10432000A0420BD0154CA04208D0154CA04205D09D
:10433000904207D14C6823F070032343CC6823F4E8
:10434000407323434C6923F08003904243EA040303
:1043500003608B68C3620B68836204BF09691163E1
:104360000121416110BD00BF000001400004004078
:1043700000080040000C004000480140004001409F
:1043800000440140806B0021C185C184FEF708BB59
:10439000016851E8031F026821F4907142E8031399
:1043A000002BF5D1016851E8051F026821F00101D9
:1043B00042E80513002BF5D1016B012909D10168F1
:1043C00051E8031F026821F0100142E80313002B9B
:1043D000F5D1202180F83E1000210163704790F84C
:1043E0003E10222918BF70478368B3F5805F05D15E
:1043F0000169B1B100F128010A680BE00146002B08
:1044000051F8282F01D1036923B103685B6803F0D9
:104410007F0301E003685B6813700A6801320A6079
:1044200007E00168826A49686FF35F2122F8021B86
:104430008262C18D0139C185090400D070470168CD
:10444000CA6822F02002CA60CA6822F48072CA6078
:104450004A6922F001024A61202280F83E20026B64
:10446000012A18BFFEF74ABC0022026351E8031F6D
:10447000026821F0100142E803130168002BF5D116
:104480000A68D20608D581B0002200920A6800921C
:1044900049680091009901B0818DFEF780BA000053
:1044A000B0B50446006849F20C650169E26821F480
:1044B000405111430161D4F808C0D4E90423D4F871
:1044C0001CE0C16842EA0C02A9431A4342EA0E0208
:1044D0001143C1604169A26921F4407111434161F6
:1044E000214940F48060884202D1FDF7A1FA01E041
:1044F000FDF794FAE26919216368A0FB0101B2F5A6
:10450000004F16D15A00DB0FFBF7D4FE64216FF089
:104510006303B0FBF1F202FB0300322303EBC000A4
:10452000B0FBF1F14FF4F87000EA410001F007012F
:1045300013E09A009B0FFBF7BDFE64216FF063034D
:10454000B0FBF1F202FB0300322303EB0010B0FBDF
:10455000F1F101F0F00001F00F0100EB021008434F
:1045600021688860B0BD00BF001401400148FEF71B
:1045700019BA00BF48860020D0F8B82222B180B511
:1045800052689047BDE880400020704790F89C2218
:10459000013A022A88BF00F019B84988012918BFDA
:1045A00070470021C0F8A41200F036B880B5134659
:1045B0000A46002100F0E4FA002080BD80B51346D1
:1045C0000A46002100F090FB002080BD10B5044693
:1045D000802100F06BFB20460021BDE8104000F078
:1045E00065BB000080B50521C0F8941200210022AF
:1045F000002300F0C5FA002080BD000080B51346FE
:104600000A46C0E906330221C0F89412002100F0E6
:104610006BFB002080BD000080B50421C0F894121F
:1046200000210022002300F05FFB002080BD00007D
:1046300010B50A4604A043F64834C2F200042146ED
:1046400000F022F9204610BD4D534320436F6E66A3
:10465000696700001220088040F28000C2F200006A
:104660007047000010B50A4604A043F64834C2F271
:104670000004214600F008F9204610BD4D534320A8
:10468000496E7465726661636500000004200880ED
:1046900040F29400C2F200007047000010B50A46D4
:1046A00004A043F64834C2F20004214600F0ECF8BE
:1046B000204610BD53544D6963726F656C65637419
:1046C000726F6E696373000010B50A4604A043F66A
:1046D0004834C2F20004214600F0D6F8204610BD4E
:1046E00053544D3332204D6173732053746F726194
:1046F0006765000080B51A200880FBF755FF40F27F
:104700005C10C2F2000080BDC988012918BFFFF704
:104710005DBF90F89C124A1E022A06D20022014672
:1047200041F8082F0122FFF769BF032903D1011DBA
:104730000122FFF763BFFFF749BF0000B0B582B0A9
:104740000D4604460020ADF8060048884FF0FF31C2
:1047500001EB1021062900F26680DFE801F0041663
:10476000096464232C00207CD4F8B4120A6847E062
:10477000C0B2052857D8DFE800F0032A2F34393EAD
:10478000D4F8B4024268D2BB4DE0D4F8B802217C20
:1047900000290CBF816AC16A0DF1060088470146F5
:1047A000022012E0207CF0BBD4F8B802416B0DF17E
:1047B0000600884727E0207CA8BBD4F8B802016B2C
:1047C0000DF1060088470146072048701CE0D4F828
:1047D000B40282689AB926E0D4F8B402C26872B909
:1047E00021E0D4F8B40202694AB91CE0D4F8B4025A
:1047F000426922B917E0D4F8B40282699AB1207CE8
:104800000DF1060190470146EA888AB1BDF806001D
:1048100048B1904238BF0246ADF806202046FFF767
:10482000EDFE02B0B0BD2046FFF7D0FE02B0B0BD35
:104830002046FFF7F1FE02B0B0BD0000017841B1A3
:10484000411C0020013011F8012B002AFAD1C0B21E
:1048500070470020C0B2704790F89C22013A022AAB
:1048600010D8C988022918BFFFF7B0BED0F8A4122B
:104870000322002908BF0122014641F80C2F022221
:10488000FFF7BCBEFFF7A2BE70B5E8B116460C46F6
:104890000546FFF7D3FF022101EB400030800321E2
:1048A000617020702878002808BF70BD691C022242
:1048B000002300BFD6B2A05546F0010023540232B7
:1048C00011F8010B0028F5D170BD0000032884BF4A
:1048D00003207047C00040F20031C0F2013121FADC
:1048E00000F0C0B270470000002804BF03207047EA
:1048F0000023C0F8CC32C0F8C032C0F8B83200296A
:1049000018BFC0F8B4120270012180F89C1200F0A8
:10491000BDB8000080B5D0F8C402FCF702FABDE8CB
:104920008040FFF7D3BF000080B5D0F8C402FCF789
:10493000CFF9BDE88040FFF7C9BF0000B0B504461D
:1049400071B194F89C02032849D1D4F8B8024269A5
:10495000002A44D020469047002808BF0020B0BD60
:10496000D4F89402022833D1D4E9071081420DD93A
:104970000B1AE361204611461A46FFF71FFE204638
:1049800000210022002300F0FBF821E00FD1A169F3
:1049900081420CD3D4F89802814208D200252046E7
:1049A00000210022FFF70AFEC4F89852E7E794F8C6
:1049B0009C02032805D1D4F8B802C16809B1204689
:1049C00088472046802100F071F92046FFF70AFE53
:1049D00094F8A002012804BF002084F8A00200205F
:1049E000B0BD000010B5044669B194F89C020328DC
:1049F0001CD1D4F8B8028269C2B120469047002881
:104A000008BF002010BDD4F8940203280ED1D4E9C9
:104A1000570398420CD9C01AC4F85C01984238BFB9
:104A20000346204611461A46FFF7C0FD002010BD80
:104A300094F89C02032805D1D4F8B802016909B1A1
:104A4000204688472046FFF7E7FD002010BD000004
:104A500000207047012180F89C12D0F8B8222AB1BA
:104A600080B5017952689047BDE8804000207047CA
:104A700080B5D0F8C402FCF784F9BDE88040FFF7A8
:104A800025BF0000D0F8C402FCF794B9017809B141
:104A90000020704710B548F27011C2F20001C1F851
:104AA0000404C0F8C4120020C1E90B000222C1E9CD
:104AB0000620C1E90800C1E9032004204FF0A0420C
:104AC000C1E900200846FCF733FD002818BFFBF7BA
:104AD00016FD48F27014C2F2000420468021FCF753
:104AE000AEF8204600214022FCF7ADF82046012117
:104AF0008022FCF7A8F8BDE81040002070470000B5
:104B0000D0F8C40201F07F02C2EBC20200EB8200C7
:104B100000F13E02090658BF00F5FF721078704799
:104B2000D0F8B822002A04BF0320704790F89C32C6
:104B3000032B05D1126A1AB180B59047002080BDC1
:104B400000207047D0F8B822002A04BF0320704725
:104B500090F89C32032B05D1526A1AB180B5904768
:104B6000002080BD0020704780B59446D0F8C40274
:104B70001A466346FCF727F9BDE88040FFF7A6BE5A
:104B800080B5D0F8C402FCF751F9BDE88040FFF7CA
:104B90009DBE0000F0B581B00446012084F89C025F
:104BA0000020C4F8A4026060C4F89402D4F8B802EB
:104BB000E8B1D4F8BC1221B1426812B120460021FC
:104BC0009047002540262046002100224023FFF781
:104BD000CBFF0127A4F86471C4F8606120468021EE
:104BE00000224023FFF7C0FFA784266200E00325D0
:104BF000284601B0F0BD000090F89C12042904BFC3
:104C000090F89D1280F89C1200207047D0F8B812DE
:104C1000002904BF0320704790F89C22032A05D185
:104C2000C96919B180B58847002080BD0020704750
:104C3000017400207047000080B5D0F8C402FCF772
:104C40006BFDBDE88040FFF741BE0000B0B50446F3
:104C500000F2AA25284600F045F90120C4F8940284
:104C6000B4F8B002C4F8980294F8AA0200F01F0148
:104C7000022908D001290CD089B920462946BDE86F
:104C8000B04000F0EDB920462946BDE8B04000F044
:104C900021BA20462946BDE8B04000F0CBBA00F06A
:104CA00080012046BDE8B040AFF3008080B5D0F869
:104CB000C402FCF7DEF8BDE88040FFF707BE000045
:104CC00080B5D0F8C402FCF742FDBDE88040FFF794
:104CD000FDBD000090F89C1280F89D12042180F820
:104CE0009C1200207047000080B5D0F8C402FCF789
:104CF000F7F8BDE88040FFF7E9BD000080B5FEF79A
:104D00008FF9002080BD000080B5FEF7AFF90020CC
:104D100080BD0000B0B504460121FFF705FE002567
:104D2000A4F8785120468121FFF7FEFD2587D4F8AD
:104D3000BC0240B12046FEF7BDF9D4F8BC0200F039
:104D4000A9FAC4F8BC520020B0BD00000A210180BD
:104D500040F21010C2F200007047000020210180D4
:104D600040F2D000C2F20000704700002021018014
:104D700040F2F000C2F200007047000020210180E4
:104D800040F21C10C2F2000070470000B0B50446AB
:104D900041F2740000F080FA88B1C4F8BC02207CB3
:104DA000012588B12046012102224023FFF7DCFEC5
:104DB000A4F87851204681210222402312E00020ED
:104DC000C4F8BC020220B0BD2046012102224FF4EB
:104DD0000073FFF7C9FEA4F8785120468121022212
:104DE0004FF40073FFF7C0FE012020872046FEF736
:104DF00069F90020B0BD000000290EBF0320C0F8F3
:104E0000C01200207047000070B582B00446D0F890
:104E1000BC620020ADF80600002E5FD00D46087879
:104E200010F0600116D0202954D16978FF2925D0CF
:104E3000FE294FD1698800294CD100064AD5E8885F
:104E4000012847D1D4F8C0028069804730602046ED
:104E5000314632E068780B283CD8DFE800F00619CC
:104E60003B3B3B3B3B3B3B3B283294F89C020328BB
:104E700030D10DF10601204602221FE0698849BBAE
:104E8000000627D4E88828BB2046FEF741F91EE03B
:104E900094F89C0203281AD16888C0B92979204661
:104EA000FFF7E6FD29792046FEF79AF80FE094F81F
:104EB0009C0203280ED1311D20460122FFF79EFBE4
:104EC00005E094F89C02032804D1A87870600020C3
:104ED00002B070BD20462946FFF778FB032002B0E0
:104EE00070BD0000B0B50C460546087828704878BB
:104EF0006870881CFFF744F96880201DFFF740F9AF
:104F0000A880A01DFFF73CF9E880B0BD10B582B0C5
:104F100004460020ADF8060059B1C4F8B812C96AB9
:104F200021B10DF106008847C4F8CC02002002B080
:104F300010BD032002B010BDB0B50446888840B94A
:104F4000C88830B948887F2803D894F89C12032970
:104F500004D12046BDE8B040FFF738BB00F07F0524
:104F600084F89E5220462946FFF766FE2046FFF74A
:104F700053FB002D14BF0220012084F89C02B0BD19
:104F8000D0F8B822002A04BF0320704712681047E7
:104F9000B0B50446488843F64635C2F2000528708D
:104FA00010F0FE0F05D02046FFF710FB0325284622
:104FB000B0BDC1B294F89C0203280DD0022826D1BE
:104FC000A1B361602046FFF7DBFFA8B3054620468A
:104FD000FFF7FCFA2846B0BD09B36068884225D0C7
:104FE000C1B22046FFF7C8FA297861602046FFF772
:104FF000C7FFD8B105462046FFF7E8FA21792046D9
:10500000FFF7BAFA022084F89C022846B0BD204679
:10501000FFF7DCFA29782046FFF7AEFAC6E76160B1
:10502000022084F89C022046FFF7A6FA2046FFF7EC
:10503000F3FA00252846B0BD2046FFF7EDFA03201D
:1050400084F89C02F5E700004988012918BF7047E1
:105050000121C0F8A412FFF7DFBA0000FFF730BE4D
:1050600080B50A7812F0600209D0402A01D0202AC7
:1050700013D1D0F8B8229268BDE8804010474A7832
:10508000092A0AD8DFE802F0050D091109152109DE
:10509000191DFFF7E1FB002080BDFFF797FA002004
:1050A00080BDFFF773FA002080BDFFF7CDFF002021
:1050B00080BDFFF741FF002080BDFFF725FB0020EA
:1050C00080BDBDE88040FFF763BFFFF737FB0020DE
:1050D00080BD0000B0B50D460446087810F06000B1
:1050E0000BD0402801D0202819D1D4F8B80282680A
:1050F00020462946BDE8B04010472979687898B124
:10510000012824D0032875D194F89C02032831D0BB
:1051100002286FD141F0800080286BD021E020462A
:10512000FFF754FA0020B0BD94F89C02032831D058
:1051300002285FD1002962D080295BD101F07F0075
:1051400000EB800004EB800000F114015FE094F8B4
:105150009C02032832D002284CD141F080008028E4
:1051600048D02046FFF7A2FD20468021FFF79EFD94
:105170000020B0BD688840B941F08000802804D08C
:10518000E88810B92046FFF791FD2046FFF744FA62
:105190000020B0BD01F00F0000EB800004EB8000A8
:1051A0000A0617D4B0F8640120B301F07F0000EBC9
:1051B000800004EB800000F5AA7515E068880028DF
:1051C000B0D1480602D02046FFF7A4FB2046FFF7E7
:1051D00023FA8AE7808C68B101F07F0000EB800041
:1051E00004EB800000F1140541F08000802812D10A
:1051F000002016E02046FFF7E9F90020B0BD01F0DD
:105200007F0000EB800004EB800000F5AA71002015
:105210000860204608E02046FFF772FC0028E7D02F
:1052200001202860204629460222FFF7E7F90020E6
:10523000B0BD0000B0B50D460446087810F060001F
:1052400018BF40280DD194F89C020138022803D8D9
:10525000A88810F0FE0F0BD02046FFF7B7F900200A
:10526000B0BD2028EFD02046FFF7B0F90020B0BD38
:10527000D4F8B80282682046294690470028F6D123
:10528000E988002918BFB0BD2046FFF7C5F9002006
:10529000B0BD00007047000043F64850C2F2000065
:1052A0007047000080B591F800C091F801E001223C
:1052B0000CF00F03BEF1010F02FA03F31AD1D0F87C
:1052C0001C281A434FEA4C13C0F81C2800F5106044
:1052D000C258120427D491F803E089681A586FF372
:1052E000DF2141EA8C511143104A41EA8E411143BA
:1052F000195018E0D0F81C2842EA0342C0F81C28D4
:105300004FEA4C1200F5306083581B040BD491F81F
:1053100003C0896813586FF3DF211943034B41EA37
:105320008C4119431150002080BD00BF0080001047
:10533000D0F8001940F2FF729143C0F80019D0F87C
:10534000041841F48071C0F8041800207047000070
:1053500070B504460698049D012817D1A16B194A1F
:105360000D9821F480310128A163E16801EA02016E
:10537000E160E16821F44011E16002BFE06840F4BF
:105380008010E060204600F01FF80FE0E0680A9E01
:1053900040F04000E060204600F016F8A16B002EBF
:1053A00014BF21F4803141F48031A163012D18BF75
:1053B00070BDA16841F00601A160A16841F0200123
:1053C000A16070BDBFFFBDFF81B0002100910E49FB
:1053D000009A01328A42009213D80269B2F1FF3F6B
:1053E000F6DC00220092026942F001020261009A9A
:1053F00001328A42009204D80269D207F7D1002014
:1054000000E0032001B07047400D030010B54A785A
:105410000B78204C00EB4311012A15D101F51062E5
:10542000D1F80019B1F1FF3F07DC116841F00061CC
:105430001160116841F08041116003F00F010123F8
:1054400003FA01F18BB215E001F53062D1F8001BCF
:10545000B1F1FF3F07DC116841F000611160116894
:1054600041F08041116003F00F014FF4803304F1EB
:1054700070748B40D0F83C189943C0F83C18D0F8B1
:105480001C189943C0F81C181068204010600020B8
:1054900010BD00BF007833ECD0F8001E21F00301EE
:1054A000C0F8001ED0F8041821F00201C0F804185A
:1054B00000207047D0F8001E21F00301C0F8001E44
:1054C000D0F8041841F00201C0F804180020704719
:1054D0002DE9F84F8046DDF844A0DDE90C07DDF842
:1054E00028900D464121002202E048F82120013198
:1054F0005029FAD1BAF1000F0AD0D8F8381021F4A7
:105500000011C8F83810D8F8381041F4002115E01F
:10551000D8F8041841F00201C8F80418D8F8381077
:1055200041F40011C8F83810D8F8381021F40021DF
:10553000C8F83810D8F8381021F48021C8F838108D
:10554000002108F5006B0128C8F8001EDBF80010E8
:10555000CBF8001006D1DBF80000002B18BF40F09C
:10556000010003E0DBF8000040F00300CBF800008E
:105570004046102100F028FA0646404600F010FA96
:105580000021304308F510624FF67F330026BC46F9
:10559000CBF81010CBF81410CBF81C100EE04FF025
:1055A0009047002E06F1010608BF4FF0006714680F
:1055B00007EAE4771760116193602032B542EED1BB
:1055C00008F5306100224FF67F330026002818BF0F
:1055D00001200EE04FF09047002E06F1010608BFB3
:1055E0004FF000670C6807EAE4770F600A618B6090
:1055F0002031B542EED1DBF81010B9F1000F21F4E3
:105600008071CBF810104FF00001C8F818106FF03F
:105610008041C8F8141005D1D8F8181041F01001D5
:10562000C8F81810D8F818100C4ABCF1000F41EA5D
:105630000201C8F818101EBFD8F8181041F0080170
:10564000C8F81810BAF1010F05D1D8F81810044A9B
:105650001143C8F8181001B0BDE8F08F00383C8045
:1056600004000040816821F0010181600020704742
:1056700070B54B7891F800C0012B21D100EB4C1490
:10568000D1F814E0354D04F51063D4F81069324CAC
:10569000BEF1000F39D035401D611D69254004F170
:1056A00000541D618D68AE4584BF4D61AE4604EA6D
:1056B0000E041D6945F400251D611D692C432FE072
:1056C00000EB4C10244CD0F8103B6FF31203C0F8E1
:1056D000103BD0F8103B6FF3DC43C0F8103B00F5F3
:1056E00030634E69886806B148611E69012A46F434
:1056F00000261E6104F1005600EA06001E6940EA19
:105700000600186112D1C8680EE026404FF0000E66
:105710001E611E6946F400261E611E6906EA050424
:10572000012A1C6109D1086900B158614FF0044198
:10573000186808431860002070BD1968BEF1000F9A
:1057400041F004411960F6D00CF00F01012200F67F
:10575000340302FA01F1EBE7FFFF07E00000F8FF76
:1057600010B5036C134CA34203D3D0F8003B002BBD
:105770001EDB00230129C0F8103BD0F8103B43F496
:105780000023C0F8103BD0F8103B43F01803C0F8DA
:10579000103BD0F8103B43F0C043C0F8103B07D19A
:1057A000C0F8142BD0F8001B41F08021C0F8001B7A
:1057B000002010BD0B30544F0A784B785201012B5A
:1057C00014BF00F5306000F51060835823F4001317
:1057D0008350C97801F0FE01022902BF115841F03F
:1057E00080511150002070470A784978012900EB58
:1057F000421119BF01F53060D1F8001B01F51060AE
:10580000D1F800192AB1002903DB016821F0804199
:105810000160016841F40011016000207047000040
:10582000BCB54B7891F800C0012B2ED100EB4C1485
:10583000D1F814E004F51063D4F81049BEF1000F5C
:1058400049D06FF312041C611C696FF3DC441C61C6
:105850008C680EEB0405013DB5FBF4F44C4D05EAF4
:10586000C4441D692C4375461C616FF3DF451C69F8
:105870002C431C61CC78012C38D11C6924F0C04425
:105880001C611C6944F000542FE000EB4C13D3F86A
:10589000105B6FF31205C3F8105BD3F8105B6FF366
:1058A000DC45C3F8105B03F530634C69D1F808C0E0
:1058B000D4B304EB0C05364C013DB5FBFCF504EA12
:1058C000C54E1C69ADB205FB0CFC44EA0E046FF337
:1058D000DF4C1C6130E06FF3DC441C611C6944F454
:1058E00000241C611C696FF312041C61012A01D1A0
:1058F0000A6928E01C6844F004441C60CC78012C40
:1059000038D1D0F80848E4054FF0805458BF4FF024
:1059100000541D682C431C601FFA8EF3C968009266
:10592000624600F07FF922E01D696FF3DF4C45EA23
:105930000C054FF4002C1D611D69012A45EA0C0578
:105940001D6102D1CA6802B15A61C97801290AD120
:10595000D0F80808C0054FF0805058BF4FF00050F5
:10596000196808431860186840F004401860002067
:1059700002B0B0BDBEF1000FF9D00CF00F01012252
:1059800002FA01F1D0F834281143C0F83418EEE7D8
:105990000000F81F816841F001018160002070471C
:1059A00081B000210091102101611149009A01325A
:1059B0008A42009204D80269D206F7D4002000E09F
:1059C000032001B0704700BF81B08901002220315F
:1059D000009201610649009A01328A42009204D87D
:1059E00002699206F7D4002000E0032001B070475E
:1059F000400D0300D0F8080810F0060004BF002096
:105A0000704740F004010F20062908BF02207047AC
:105A1000406900F001007047D0F81818D0F81C0851
:105A2000084080B27047D0F81818D0F81C08084019
:105A3000000C7047D0F810C8D0F8343801F00F02CD
:105A400000EB4110D0F8080923FA02F2D201D2B2D9
:105A500042EA0C021040704700EB4111D1F8081BDC
:105A6000D0F81408084070474169806908407047C1
:105A700080B54FEA920E4FF4805C05E050F80C3090
:105A8000AEF1010E41F8043BBEF1000FF6D112F069
:105A900003020CD04FF4805350F803C000232CFABB
:105AA00003F0013A083301F8010B1004F7D108465E
:105AB00080BDB0B50446C068002920F0C040E06059
:105AC00013D001291CBF0120B0BDE068002540F0C3
:105AD0000050E0600120FAF721FF01356069312DA7
