:020000040800F2
:1000000070BF002085020008E15300086541000828
:10001000DD530008D1090008F97F00080000000046
:10002000000000000000000000000000F15F000878
:10003000F909000800000000F1530008AD60000855
:100040009F0200089F0200089F0200089F0200080C
:100050009F0200089F0200089F0200089F020008FC
:100060009F0200089F0200089F0200089F020008EC
:100070009F0200089F020008D5090008E109000856
:100080009F0200089F0200089F0200080000000075
:100090000000000000000000000000009F020008B7
:1000A0009F020008796100089F0200089F02000873
:1000B0009F0200089F0200089F0200089F0200089C
:1000C0009F0200089F0200089F0200089F0200088C
:1000D0009F0200089F0200087163000800000000F2
:1000E0009F0200089F0200089F0200080000000015
:1000F0000000000000000000000000009F02000857
:10010000000000009F0200089F0200089F020008F4
:1001100000000000000000000000000000000000DF
:100120009F0200089F0200089F020008ED090008D6
:100130009F02000800000000000000000000000016
:10014000000000000000000000000000E55300086F
:100150009F0200089F0200089F0200089F020008FB
:100160009F0200089F02000800000000000000003D
:10017000000000000000000000000000000000007F
:10018000000000009F0200080000000000000000C6
:100190009F02000800F002F800F064F80AA090E85E
:1001A000000C82448344AAF10107DA4501D100F032
:1001B00059F8AFF2090EBAE80F0013F0010F18BF9B
:1001C000FB1A43F001031847A8830300C883030008
:1001D0000A444FF0000C10F8013B13F0070408BF6D
:1001E00010F8014B1D1108BF10F8015B641E05D00B
:1001F00010F8016B641E01F8016BF9D113F0080FC0
:100200001EBF10F8014BAD1C0C1B09D16D1E58BF51
:1002100001F801CBFAD505E014F8016B01F8016B88
:100220006D1EF9D59142D6D37047000000230024FB
:1002300000250026103A28BF78C1FBD8520728BFF6
:1002400030C148BF0B607047642900F017817329E3
:1002500000F07F83002070471FB528F017FA1FBDFC
:1002600010B510BD00F079FB1146FFF7F5FF25F042
:10027000CBFB00F097FB03B4FFF7F2FF03BC00F0E9
:100280009FFB00000948804709480047FEE7FEE75A
:10029000FEE7FEE7FEE7FEE7FEE7FEE7FEE7FEE736
:1002A00004480549054A064B70470000656100088F
:1002B000950100087095002070BF002070AA0020F2
:1002C00070AA002053EA020C00F069802DE9F04B7F
:1002D0004FF00006002B1FBFB3FA83F503FA05F4B5
:1002E00024FA05F65E4012BF1643B2FA82F502FA0E
:1002F00005F4C5F120051EBF22FA05FC44EA0C04F2
:10030000203556EA044C4FEA144418BF641C4FF0E1
:1003100000084FF00009904271EB030C39D300291B
:1003200019BFB1FA81F701FA07F6B0FA80F700FABF
:1003300007F6C7F120071EBF20FA07FC46EA0C06A5
:100340002037B6FBF4FCA7EB0507103F07F01F0BA7
:10035000CBF120062CFA06F60CFA0BFB44BFB34691
:100360000026202FA4BF5E464FF0000B5BEA060C70
:1003700008BF4FF0010B19EB0B0948EB0608ABFB6C
:10038000027C06FB02CC0BFB03CCC01B71EB0C0107
:10039000C1E70B46024641464846BDE8F08B13B51F
:1003A0004FF000004FF00001AFF30080BDE81C40AB
:1003B000704700000FB41CB5074B06AA7B44694682
:1003C0000090059800F09BFA0020694600F0AAFA18
:1003D0001CBC5DF814FB00006505000070B5044608
:1003E00085690068C10601D5302600E02026C007D7
:1003F00007D070BDD4E9012130469047206A401CE7
:1004000020626D1EF6D570BD70B504468569007812
:10041000C00707D170BDD4E9012120209047206A90
:10042000401C20626D1EF6D570BD70B50C460546A9
:10043000012A05D02878800600D5EA69002302E069
:10044000012305E05B1C934202D2E05C0028F9D155
:10045000A869E618C01AA861286A184428622846C4
:10046000FFF7BCFF04E0D5E9012114F8010B904728
:10047000B442F8D32846FFF7C7FF70BD2DE9F0411D
:100480000646002410687529314616A510D0AFF332
:100490000080002802DA404213A507E031688A078D
:1004A00001D512A502E0490704D511A5012401E0F8
:1004B000AFF3008000210A2206F1240709E0B0FB17
:1004C000F2FCB0FBF2F302FB1C003030785418460B
:1004D000491C0028F3D123462A463046BDE8F041A6
:1004E00000F0AFB9000000002D0000002B0000005C
:1004F000200000002DE9F05F894604464FF0000A15
:10050000DFF824B1FB44C0F820A02046E16888470A
:1005100000287DD0252806D0D4E901219047206A03
:10052000401C2062F1E700255F462046E1688847CD
:100530002028064607DB312E05D2B81910F8200C0A
:1005400008B10543F1E7A80701D525F00405C4F873
:100550001CA00027C4F818A02A2E09D0304628F085
:100560008EF838B304EB8708303EC8F8186019E0FD
:1005700059F8041B204604EB87029161E168884723
:10058000012F064618D1E069002820DA25F0200561
:100590001DE0D8F8180000EB800006EB4000303872
:1005A000C8F818002046E1688847064628F067F832
:1005B0000028EED1012F0AD02E2E08D12046E16866
:1005C00088477F1C0646022F45F02005C4DBA06942
:1005D000002803DA404245F00105A061E80701D098
:1005E00025F01005A6B1A6F14100192802D8203641
:1005F00045F400654A463146204625604D46FFF7E2
:1006000023FE60B1012807D0ED1D25F0070000E0B2
:1006100007E000F1080978E705F1040975E73046BD
:100620007AE7206ABDE8F09F9E81020040EA01035C
:1006300010B59B070FD1042A0DD310C808C9121F8B
:100640009C42F8D020BA19BA884201D9012010BDC5
:100650004FF0FF3010BD1AB1D30703D0521C07E092
:10066000002010BD10F8013B11F8014B1B1B07D1F6
:1006700010F8013B11F8014B1B1B01D1921EF1D167
:10068000184610BD40EA0103024630B59B0710D161
:100690004FF0013400E008C208C91D1B9D4315EA54
:1006A000C41FF8D013F0FF0102F8011B0DD01B0A84
:1006B000F8E711F8013B002B02F8013B05D011F8D7
:1006C000013B002B02F8013BF3D130BD10B5431CB8
:1006D00002E010F8011B71B18107FAD14FF001322D
:1006E00002C88C1A8C4314EAC211F9D0C01A0A0647
:1006F00003D0C01E10BDC01A10BD0A0401D0801E58
:1007000010BD0902FCD0401E10BD02F0FF0343EAF9
:10071000032242EA024200F00AB802F0FF0343EA71
:10072000032242EA024200F024B84FF000020429FA
:10073000C0F0128010F0030C00F01B80CCF1040C10
:10074000BCF1020F18BF00F8012BA8BF20F8022B44
:10075000A1EB0C0100F00DB85FEAC17C24BF00F8EA
:10076000012B00F8012B48BF00F8012B70474FF018
:10077000000200B5134694469646203922BFA0E8F1
:100780000C50A0E80C50B1F12001BFF4F7AF0907FD
:1007900028BFA0E80C5048BF0CC05DF804EB8900EE
:1007A00028BF40F8042B08BF704748BF20F8022B31
:1007B00011F0804F18BF00F8012B704700000000B7
:1007C00030B44FF0013C50F8042B51F8043BCCFA04
:1007D00052F4D51A20D1FCB950F8042B51F8043B3F
:1007E000CCFA52F4D51A17D1B4B950F8042B51F8F9
:1007F000043BCCFA52F4D51A0ED16CB950F8042B44
:1008000051F8043BCCFA52F4D51A05D1002CDAD0B9
:1008100030BC4FF00000704729BAB1FA81F111F0F5
:100820001801D1F120008440F2D1CA40CB4012F02F
:10083000FF0213F0FF0330BCD01A704770477047B7
:1008400070472DE9F0470D4699469246044600F15F
:1008500024080168880604D5E06921F010012160B0
:1008600000E00120A84201DD471B00E00027A1694C
:100870007A1902EB0900081AA0612078C00602D498
:100880002046FFF7ABFD002608E0D4E901211AF865
:1008900006009047206A401C761C20624E45F4DB1F
:1008A0002078C0060AD52046FFF798FD06E0D4E977
:1008B000012130209047206A401C2062381EA7F199
:1008C0000107F4DC07E0D4E9012118F8050090479E
:1008D000206A401C2062281EA5F10105F3DC204699
:1008E000FFF792FD2078000602D50220BDE8F087D0
:1008F0000120FBE701694A1C02610878704700B5D6
:100900008FB0CDE901310021059105497944CDE948
:10091000031011466846FFF7EDFD0FB000BD000063
:10092000E5FFFFFF0A6802F8010B0A60704710B587
:10093000436913B1AFF3008001E0FFF776FD0120BA
:1009400010BD127800F124010A7000224A700122C1
:10095000EDE711684FF0FF32E9E7754600F02CF83B
:10096000AE4605006946534620F00700854618B09C
:1009700020B5FFF795FCBDE820404FF000064FF092
:1009800000074FF000084FF0000BAC46ACE8C00980
:10099000ACE8C009ACE8C009ACE8C00921F0070127
:1009A0008D46704710B50446AFF300802046BDE881
:1009B0001040FFF760BC0000004870474002002074
:1009C00001491820ABBEFEE7260002007047000078
:1009D000FEE7000047F6C040C2F2000000F0B4B8E5
:1009E00047F62050C2F2000000F0AEB847F6604073
:1009F000C2F2000000F0A8B870470000EFF31080CA
:100A000072B600BFFEE70000002200F001B800004F
:100A100010B5844647F67804C2F20004607A0028D4
:100A20001CBF012010BD94F809E0002004F80E005E
:100A3000637A04EB8303C3F804C0637A23441A7215
:100A4000627A531C6372C87042F63A73A1F801309F
:100A500030320A7010BD000047F61021C1F6FF7158
:100A600008688A68801808BF7047B0B54C6840F2C3
:100A70006815C2F20005A91C082203F075FB05F1F8
:100A8000120120460422BDE8B04003F06DBB000017
:100A900070B5866D044600F0F3FA054694F835000B
:100AA00002282BD12068016821F0160101604169FC
:100AB00021F080014161216C09B9A16C19B1016873
:100AC00021F008010160016821F001010160006866
:100AD000C00705D119E000BF20680068C00714D026
:100AE00000F0CEFA401B0528F6D9202060650320CF
:100AF00084F83500002184F8341070BD80206065D2
:100B00000120002184F8341070BDE06D3F2101FA0E
:100B100000F0B060012084F835000020002184F846
:100B2000341070BD90F83510022909D1052180F8E4
:100B300035100068016821F0010101600020704754
:100B40008021416501207047F0B581B00446002046
:100B500048F2B5130821009040F28800C1F64E33E8
:100B6000C2F200000268D4E9166037688140A2FB37
:100B7000032539420CD0226813685B0708D5136837
:100B800023F004031360B160616D41F00101616500
:100B900001218140394208D022685269120604D5E9
:100BA000B160616D41F0020161650421814039420B
:100BB00008D022681268920704D5B160616D41F0D7
:100BC0000401616510218140394217D02068026814
:100BD000120713D5B16002680168520308D4C90531
:100BE0005EBF016821F008010160216C21B905E0B8
:100BF000080344D4216C09B120468847E16D2020C8
:100C000000FA01F23A4247D020680368DB0643D578
:100C1000B26094F835300268052B1ED122F016021E
:100C20000260426922F080024261226C0AB9A26C21
:100C30001AB1026822F0080202603F208840B060CA
:100C4000002084F83400012084F83500216D00294B
:100C50005AD02046884701B0F0BD0168520312D433
:100C6000C90515D4016821F010010160002084F845
:100C70003400012084F83500E16B59B90CE0A16C17
:100C80000029B9D1BAE7080302D4616C11B903E0B5
:100C9000E16B09B120468847606DA8B3606DC0075D
:100CA0002ED00521A80A84F8351021680A6822F0A0
:100CB00001020A60009A0132824200921AD80A6840
:100CC000D20717D0009A01328242009212D80A68E5
:100CD000D2070FD0009A0132824200920AD80A68E5
:100CE000D20707D0009A01328242009202D80A68E5
:100CF000D207DFD1002084F83400012084F83500C9
:100D0000E16C09B12046884701B0F0BD2DE9F04102
:100D1000044600F0B5F9002C04BF0120BDE8F081C5
:100D20000546002084F83400022084F8350021684C
:100D3000086820F0010008600868C00704D110E0CE
:100D400021680868C0070CD000F09AF9401B0528FC
:100D5000F6D9032520230320636584F83550BDE8C8
:100D6000F08148F23F020868D4E9013504F10C082B
:100D7000CFF2100200EA020C98E8C101D4E9072E74
:100D800043EA0C032B431843636A30433843042B74
:100D900040EA080040EA020040EA0E021DD1D4E910
:100DA0000BE042EA0E02BEF1000F40EA02000860CA
:100DB0004869A26A20F0030040EA020040F0040CF7
:100DC00011D0B8F5005F34D0B8F1000F42D1022A3B
:100DD00043D0012A37D032B93FE00A60486920F099
:100DE000070040EA030C6FF00F0040F2FF32C1F839
:100DF00014C00023012550FA81F091434AF6AB223A
:100E0000CAF6AA225F2888BF0431A165A0FB0202AE
:100E1000100948F6D002C0F60202105C3F22E065DD
:100E200002FA00F088600020636584F83550BDE860
:100E3000F081032AD7D8012540230120DFE802F002
:100E4000020D0203F0E7AEF1C070B0FA80F0400985
:100E500038B9C8E7032A04D3C5D1CEF3006000280F
:100E6000C1D0012540230120636584F83550BDE8D9
:100E7000F0810000B0B5044600F002F9054640F2EA
:100E80000000611CC2F20000007818BF044400BFDB
:100E900000F0F6F8401BA042FAD3B0BD2DE9F04FA8
:100EA00082B041F2000307224FF0010E00264FF0FE
:100EB0000008C4F20203984200F13E4308BF042236
:100EC00003F1FF734FEAB327042F4FF0000738BF39
:100ED0004FEAB32200920A680EFA08F912EA090FE3
:100EE0000FD100BF0236043708F10108202E04BFDD
:100EF00002B0BDE8F08F0A680EFA08F912EA090F8D
:100F0000F0D0D1F804C00CF0030AAAF10102012AC2
:100F100016D803228468CD684FEA480BB240944348
:100F2000B5406FEA020E25438560CCF30015446896
:100F300005FA08F524EA0904254345600EE000BFE0
:100F40000322BAF1030FB34602FA06F26FEA020E69
:100F500004D1B3464FF0030A21E000BFC2688C6899
:100F6000BAF1020F02EA0E0204FA0BF442EA04029A
:100F7000C26014D107F01C020F2303FA02F56FF0D0
:100F8000030303EA58040444236AAB430D6905FADA
:100F900002F21A432262D1F804C00CF0030A03687B
:100FA0000AFA0BF21CF4403F03EA0E034FF0010E65
:100FB00042EA0302026095D0002207F00C050F24DC
:100FC000019243F64402AC40C4F202021346126896
:100FD00042F480421A601A6843F60043C4F20103E7
:100FE00002F480429C46019228F003021A44019BBD
:100FF0004FF60843CFF6FF739A46D358A343009C9D
:1010000004FA05F52B4342F80A30DCF800204D685D
:1010100042EA0903EC0358BF22EA0903CCF8003086
:10102000AC03DCF8042042EA090358BF22EA0903B2
:10103000CCF80430EC02DCF8082042EA090358BF7F
:1010400022EA090343F60C42CCF80830AD02C4F2A0
:1010500001021446126842EA090358BF22EA090352
:1010600023603FE7426902EA0103914341EA0341F9
:1010700081617047002A08BF090481617047000040
:1010800049F26850C2F200000068704740F2000068
:1010900049F26851C2F20000C2F2000100780A6809
:1010A000104408607047000080B543F60040C4F269
:1010B0000200016841F400710160016841F480613F
:1010C0000160016841F480710160032000F084F840
:1010D0000F2000F005F800F025F8002080BD00008A
:1010E00070B540F2000604464FF47A71C2F2000671
:1010F0003078B1FBF0F040F28801C2F200010968DB
:10110000B1FBF0F002F0EEF801250F2C08D838B949
:101110004FF0FF3021460022002500F02FF87460C8
:10112000284670BD82B043F6400100200190C4F211
:1011300002014A6842F480424A604A6802F48042EE
:101140000192019A0090086840F080500860086899
:1011500000F080500090009802B070470028B8BF9F
:10116000704700F01F010122400902FA01F14EF21E
:101170000012CEF2000242F82010704710B500F0C5
:101180000F034EF60C5E00F1604CB0F1FF3FA3F18F
:101190000403CEF2000E734403F10C04C8BF0CF537
:1011A0006444DEF800004FF0FF3CC0F30220C31E91
:1011B00080F0070038BF0023042828BF04200CFA61
:1011C00000F021EA00000CFA03F1984022EA010144
:1011D00008430001207010BD4EF60C514FF6FF037E
:1011E000CEF200010A681A4060F30A2242F08060E1
:1011F00040F0FD7008607047704700000068416271
:101200000020704780B5D0F800E00029DEF8240007
:101210003BD0DEF82830B1F1010C00EB13432CD0A9
:10122000002000210EEB8000D0F8040103EB1043F6
:1012300041F00100C0B284451FD90EEB8000D0F808
:10124000040103EB104341F00200C0B2844514D9FD
:101250000EEB8000D0F8040103EB104341F00300D3
:10126000C0B2844509D90EEB80000431D0F80401E6
:1012700003EB1043C8B28445D4D80EEB8C0043EA8C
:101280000241C0F80411002080BD40EA0240CEF8BF
:101290002800002080BD0000D0F8040405F0DABA70
:1012A000C1EBC10200EB8202926CD0F8040405F09D
:1012B00047BA0000C1EBC10200EB8202D2F808225B
:1012C000D0F8040405F090BAD0F8040405F0C4BACC
:1012D00010B5044601F00F00090609D4C0EBC001A7
:1012E000002204EB810181F8FD2101F5FE7107E088
:1012F000C0EBC001012204EB810181F83D203C31AB
:10130000087094F8BC03012804BF022010BD01201E
:1013100084F8BC03206806F003F8002084F8BC03BE
:1013200010BD0000B0B5044601F00F0062689042A5
:1013300082BF01252846B0BD090609D4C0EBC00113
:10134000002204EB810181F8FD2101F5FE7107E027
:10135000C0EBC001012204EB810181F83D203C314A
:10136000002508708D7094F8BC03012802BF022587
:101370002846B0BD012084F8BC03206806F0BAFA04
:10138000284684F8BC53B0BD10B5044690F8BC03A1
:10139000012804BF022010BD01200A0684F8BC0306
:1013A000206805D406F002FC002084F8BC0310BDC0
:1013B00001F00F0106F02AFC002084F8BC0310BDE8
:1013C00001F00F01C1EBC10100EB8100D0F8140264
:1013D0007047000010B5044601F00F00090609D45B
:1013E000C0EBC00104EB810C00218CF8FD110CF561
:1013F000FE7108E0C0EBC00104EB810C01218CF808
:101400003D100CF13C018A60CB7008704A78002ACC
:1014100018BFC880022B04BF0020087194F8BC03D9
:10142000012804BF022010BD012084F8BC032068FD
:1014300005F03AFE002084F8BC0310BD80B501F031
:101440000F0CCCEBCC0100EB810E0021CEE98431F6
:10145000CEF808228EF8FD118EF8FCC10EF5FE7153
:101460000369012B08BFCEF80C22DAB20068BCF188
:10147000000F03D006F08EFA002080BD06F08CF934
:10148000002080BDB0B50446406801F00F058542DC
:1014900084BF0120B0BD080609D4C1EBC100002102
:1014A00004EB800080F8FD1100F5FE7108E0C5EB4B
:1014B000C500012104EB800080F83D1000F13C01E3
:1014C00001200D70887094F8BC23012A04BF02200B
:1014D000B0BD84F8BC03206806F034FA1DB10020CA
:1014E00084F8BC03B0BD217C206804F5717206F05D
:1014F000D3F9002084F8BC03B0BD000010B501F0A2
:101500000F0C0024CCEBCC0100EB810E714601F8EE
:101510003CCFC1E905340123CA604B700369012B3C
:1015200008BFCEF84C20DAB20068BCF1000F03D03F
:1015300006F030FA002010BD06F02EF9002010BD94
:101540002DE9F04F87B0D0F800908346484606F06A
:101550009BFB10B107B0BDE8F08FDBF8000006F090
:10156000C1FB0028F6D0DBF8000006F0BBFB01460B
:10157000DBF80000890742BF416901F002014161C7
:1015800006F0B0FB0146DBF80000C9063FD58169D3
:1015900021F010018161D9F82040C4F3434004F0E8
:1015A0000F0506281CD002282BD147F6F070044006
:1015B00027D0C5EBC50022090BEB80054846D5F8BE
:1015C000081206F093FBD5F80802D5F8141200EBC8
:1015D0001410C5F8080201EB1410C5F8140210E04D
:1015E0000BF571714846082206F080FBC5EBC5007B
:1015F0000BEB8000D0F81412C4F30A121144C0F8A7
:101600001412DBF80000816941F01001816106F0DD
:1016100069FB000340F1CF80DBF8000006F040FBDF
:10162000002800F0C8800BF571710BF501754FF4BF
:1016300030644FF000080691002100BF8246C007C9
:1016400000F0AF805FFA88F6DBF80000314606F064
:1016500041FB0746C0074FD009EB04000121816020
:10166000DBF8000004EB000C036CDCF80820DBF86E
:101670001010012923D1110730D4910676D412F02D
:10168000280F39D143F20B01C4F654718B4202D3B7
:1016900012F400412BD1D5E90012DCF81030B8F17A
:1016A000000F6FF3DF43A1EB030311442B6169606B
:1016B00055D1DBF81012002951D101214CE043F241
:1016C0000B01C4F65471FF318B423ED110040ED48D
:1016D000900644BF2020CCF8080040E043F20B0005
:1016E000C4F65470834207D312F4004004D04FF480
:1016F0000040CCF8080000BF38073DD509EB0400D6
:10170000082143F20B038160C4F65473DBF8001028
:10171000013B0A6C601881689A4212D9090444BFDF
:101720004FF400418160584600F018FCDBF81000CF
:10173000012821D1DBF80000069A012106F0ACF85F
:101740001AE0584600F00AFC16E0B8F1000F06D186
:10175000DBF8101219B90021069A06F09DF85846D8
:101760003146FFF7A7FD3807C8D405E02020CCF8A4
:1017700008003807C2D400BFF80642BF09EB0400D6
:1017800010218160B8064FF0000142BF09EB040050
:1017900020228260B80442BF09EB04004FF40052DB
:1017A00082601C3520344FEA5A0008F10108B1EB81
:1017B0005A0F7FF443AFDBF80000CDF80C9006F031
:1017C00091FA400340F1C680DBF8000006F060FAB1
:1017D000002800F0BF800BF5717100274FF0000862
:1017E000CDF810B00191039901F51064029400BF87
:1017F0008246C00700F0A680DBF800005FFA88F19F
:10180000069106F055FA039A0646C0072AD008F05A
:101810000F000123D2F8341803FA00F021EA000087
:10182000C2F8340804EB48108360DBF8100001288C
:1018300014D1C8EBC800B8F1000F0BEB8000D0E961
:1018400011121144816409D1DBF8500030B9DBF882
:101850000000019A012106F01FF800BF06995846C2
:10186000FFF71EFD300742BF04EB481008218160DE
:10187000F00642BF04EB481010218160700642BFA1
:1018800004EB481040218160B00742BF04EB4810D0
:1018900002218160300655D5C8EBC8000BEB8001F2
:1018A000894659F8502F4D4655F8040F824249D3C6
:1018B0000C46DBF80060131A54F8447FBB4288BF23
:1018C0003B4603F1030C059606EB4813D3F8187951
:1018D000BFB2B7EB9C0F22D303F5106B01F14807A1
:1018E00082421CD9049E23683968367C0096161AF9
:1018F0009E4288BF1E46DDE90502B3B206F042FBF8
:101900003868F11C30443860286830442860DBF8BF
:101910001830D9F800209BB2B3EB910FE0D2DDF87C
:1019200010B0029C82424FF000070BD8059A08F0D5
:101930000F00012101FA00F0D2F8341821EA00006A
:10194000C2F834084FEA5A0008F10108B7EB5A0F01
:101950007FF44EAFDBF8000006F0C4F9002828DB66
:10196000DBF80000039C06F0BDF9000541D4DBF86C
:10197000000006F0B7F9C0044CD5D4F804081021D3
:1019800020F00100C4F80408DBF8000006F03EF97E
:10199000DBF8042004F50060002A00F00A81531EE1
:1019A00002F00301032B38D20022002940F0B1805D
:1019B000FFE0039CD4F8040820F00100C4F80408F8
:1019C0009BF8F403012807D1002000218BF8F403D1
:1019D0005846FFF711FC02E0584600F0A3FADBF886
:1019E0000000416901F00041416106F07BF900050A
:1019F000BDD5D4F80808C00702D0584600F0D6FA82
:101A0000DBF80000416901F40061416106F06AF908
:101A1000C004B2D4DBF80000F8E08B1A00224FF6C5
:101A20007F3700BFA618043302F18002C6F8087998
:101A3000D6F8005925F40015C6F80059D6F8005913
:101A400045F00065C6F80059C6F8087BD6F8005B7B
:101A500025F40015C6F8005BD6F8005B45F000657C
:101A6000C6F8005BC6F82879D6F8205925F4001589
:101A7000C6F82059D6F8205945F00065C6F8205917
:101A8000C6F8287BD6F8205B25F40015C6F8205B45
:101A9000D6F8205B45F00065C6F8205BC6F84879AB
:101AA000D6F8405925F40015C6F84059D6F84059E3
:101AB00045F00065C6F84059C6F8487BD6F8405B4B
:101AC00025F40015C6F8405BD6F8405B45F000658C
:101AD000C6F8405BC6F86879D6F8605925F4001559
:101AE000C6F86059D6F8605945F00065C6F86059E7
:101AF000C6F8687BD6F8605B25F40015C6F8605B15
:101B0000D6F8605B45F00065C6F8605B8AD10029B5
:101B10004FD004F510674FF67F3604F53063012986
:101B200007EB0205AE60BD5825F40015BD50BD5849
:101B300045F00065BD5003EB0205AE609D5825F4ED
:101B400000159D509D5845F000659D5031D002F123
:101B50002005022907EB0504A6607C5924F4001433
:101B60007C517C5944F000647C5103EB0504A66071
:101B70005E5926F400165E515E5946F000665E51CD
:101B800017D002F140014FF67F367A1896607A58E6
:101B900022F400127A507A5842F000627A505A18B1
:101BA00096605A5822F400125A505A5842F0006275
:101BB0005A50C16941F00111C161DBF8301041B1E7
:101BC000D0F8841041F00B01C0F8841000F14401FA
:101BD00006E0416942F22B021143416100F110011C
:101BE0000A6842F00B020A600BF57172016821F479
:101BF000FE6101609BF81010DBF8000005F04CFE60
:101C0000DBF80000416901F48051416106F06AF897
:101C10000146DBF8000089041AD505F08DFADBF8DF
:101C2000000006F023F8CBF80C00DBF8005000F0C1
:101C300035FB9BF80C200146284606F019F958465A
:101C400000F05EF9DBF80000416901F400514161E8
:101C500006F048F800073FD4DBF8000006F042F831
:101C6000C00246D55846002100F058F8DBF80000C5
:101C7000416901F48011416106F034F880023ED5DB
:101C80005846002100F04EF8DBF80000416901F4ED
:101C90000011416106F026F8400036D55846FFF79E
:101CA000FBFADBF80000416901F08041416106F078
:101CB00019F840077FF54EACDBF800004468610777
:101CC00004D55846FFF700FBDBF8000041682143CC
:101CD000416007B0BDE8F08F584600F027F9DBF807
:101CE0000000416901F00801416105F0FBFFC002FD
:101CF000B8D4DBF8000005F0F5FF8002C0D4DBF8B3
:101D0000000005F0EFFF4000C8D4DBF8000005F04C
:101D1000E9FF40077FF51EACCEE70000D0F80404D1
:101D200004F000BED0F8040404F00EBE2DE9F04F1C
:101D30008BB0A0B30446056890F8BD0328B9002015
:101D400084F8BC03204600F097F8032084F8BD0314
:101D5000E86BC0055CBF00202061206805F016FD1F
:101D6000206804F1040E04F11C0A0A909EE80E5843
:101D70009AE8C007D4E90C50CDE9085003A88DE8D3
:101D8000005880E8C0070A9805F0E6F960B1022023
:101D9000012584F8BD0328460BB0BDE8F08F01256E
:101DA00028460BB0BDE8F08F20680021002506F022
:101DB0001DF8616861B3012000230022C3EBC30357
:101DC000D7B204EB8303A3F8427083F83C200132BE
:101DD00083F83D001D65C3E9115583F83F50D3B228
:101DE0009942EBD800200023002200BFC3EBC303BD
:101DF00004EB8303C3F81002C3E9810083F8FF01F9
:101E000083F8FC21013283F8FD01D3B29942EDD869
:101E1000A06804F1140E04F1240A22680A90D4E99F
:101E200003379EE840589AE80007D4E90C50CDE902
:101E3000085002A8CDE9007680E8005805A880E89F
:101E4000000710460A9A05F0CDFA38B102200125A4
:101E500084F8BD0328460BB0BDE8F08F00250120B3
:101E600084F8385084F8BD03206805F0ADFA2846A0
:101E70000BB0BDE8F08F0000B0B586B0002405942B
:101E8000CDE90344CDE901440068B0F1A04F01D091
:101E900006B0B0BD009443F63005C4F202052868D0
:101EA00040F001002860286800F0010000900098D0
:101EB0000A2005900320CDE90340022002904FF450
:101EC000C05001900020C4F2020001A9FEF7E6FF15
:101ED000686840F0800068600094686940F4804061
:101EE0006861686900F480400090009843200021F8
:101EF0000022FFF743F94320FFF730F906B0B0BDE9
:101F000010B50446C068022818BFFEF777FDD4F864
:101F10000404012104F08EFDD4F80404BDE810404F
:101F200004F03ABDD0F8040404F068BDD0F804040D
:101F300004F06EBD10B5044690F8BC03012804BF40
:101F4000022010BD012084F8381084F8BC032068FA
:101F500005F07EFF002084F8BC0310BDD0F80424F7
:101F600000F57171104604F073BD000010B5044611
:101F700090F8BC03012804BF022010BD0121206895
:101F800084F8BC13A16A012906D1A16901291EBFE9
:101F9000816B41F48031816305F002FE206805F019
:101FA00005FA002084F8BC0310BD000010B50446FB
:101FB000D0F8040404F090FD2068D0F8001E41F031
:101FC0000101C0F8001E206A002808BF10BD4EF6AF
:101FD0001050CEF20000016841F00601016010BD12
:101FE000F0B581B00446006810F0050F2DD06827C9
:101FF00043F670060020C4F24727C4F20206386098
:10200000FFF73EF8054600BF56F8700C000105D5F5
:10201000FFF736F8401B0228F6D93DE0D4E901016C
:10202000090741EA8010706101203860FFF728F845
:10203000054600BF56F8700C000105D4FFF720F8E4
:10204000401B0228F6D927E02068810766D543F6B1
:102050007006002047F200070090C4F20206C4F2A6
:10206000000756F8300C40F0805046F8300C56F817
:10207000300C00F0805000900098386840F4807078
:102080003860FEF7FDFF05463868C00507D4FEF747
:10209000F7FF401B0228F7D9032001B0F0BD3068DC
:1020A00010F4407022D0E16801F4407188421DD0E4
:1020B000306840F640610122C4F247210A600022E4
:1020C00020F440700A6030603068C0070ED0FEF720
:1020D000D7FF054641F288373068800706D4FEF7FF
:1020E000CFFF411B0320B942F6D924E0E06856F83F
:1020F000682C4FF6FF41C0F6FF7100F4407322F4E4
:10210000F81201406FF31F30B3F5407F08BF0A4358
:1021100046F8682C316808433060206800075EBFCD
:10212000002001B0F0BD40F64061207CC4F24721A0
:10213000C1F8A003002001B0F0BD00002DE9F0417E
:10214000002800F0A88043F6080804460D46C4F2B3
:102150000208D8F8F80300F00700884208D288F88F
:10216000F853D8F8F80300F00700A84240F0938035
:102170002068810717D5410742BFD8F8001041F405
:10218000E051C8F80010010742BFD8F8001041F430
:102190006041C8F80010D8F80010A26821F0F001E2
:1021A0001143C8F80010C00736D06068811E0229AC
:1021B00007D258F8081C89015CBF0120BDE8F081F6
:1021C0000DE0012807D158F8081C89035CBF0120E5
:1021D000BDE8F08103E058F8081C89075BD5D8F802
:1021E000001021F003010843C8F80000FEF748FF83
:1021F000064641F2883707E0FEF742FF801BB842EF
:1022000084BF0320BDE8F081D8F80000616800F0C9
:102210000C00B0EB810FEFD1D8F8F80300F0070005
:10222000A84207D988F8F853D8F8F80300F0070057
:10223000A84230D12068410707D5D8F80010E268DD
:1022400021F4E0511143C8F80010000708D5D8F870
:102250000000216920F4604040EAC100C8F8000095
:1022600000F04AF8D8F8001048F2B762C0F602024F
:10227000C1F30311515CC84040F28801C2F2000171
:10228000086040F20400C2F200000068FEF728FF78
:102290000020BDE8F0810120BDE8F08140F2880017
:1022A000C2F200000068704740F2880043F608015F
:1022B00048F2C762C2F20000C4F20201C0F6020294
:1022C00000680968C1F38221515CC8407047000072
:1022D00040F2880043F6080148F2C762C2F20000EB
:1022E000C4F20201C0F6020200680968C1F342317B
:1022F000515CC8407047000010B543F60404C4F2B6
:102300000204606800F00C0008280AD0042819BFF5
:1023100042F20040C0F2F40047F64000C0F27D10E7
:1023200010BD226820680023400202F03F0247F6F9
:102330004000C0F27D105CBF42F20040C0F2F400E9
:102340002168C1F38811A0FB0101FDF7BBFF2168E3
:102350000222C1F3014102EB4101B0FBF1F010BDDB
:102360002DE9F04182B0002800F051810446007848
:1023700043F60006C4F20206C00744D0B06800F07D
:102380000C00042805D1306880033CD56068D0BBC0
:102390003DE1B06800F00C00082802D170684002EE
:1023A000F1D46768B7F5803F06D03068B7F5A02F45
:1023B00013D140F480203060306840F480303060C9
:1023C000FEF75EFE054600BF306880031BD4FEF7B3
:1023D00057FE401B6428F7D9B6E020F48030306007
:1023E000306820F480203060FEF74AFE0546002F5A
:1023F000EAD13068800306D5FEF742FE411B032078
:102400006429F6D949E1207880072FD5B06810F00B
:102410000C0F07D0B06800F00C0008280AD17068D3
:10242000400207D43068800719D5E068012840F0E1
:10243000EE8014E0E068002800F08A80002001218E
:10244000C4F247200160FEF71BFE05463068800796
:1024500005D4FEF715FE401B0228F7D974E030685A
:10246000216920F0F80040EAC100306020780007C0
:1024700023D561690020C4F2472071B10121C0F861
:10248000801EFEF7FDFD0546706F800715D4FEF730
:10249000F7FD401B0228F7D956E00021C0F8801E46
:1024A000FEF7EEFD054600BF706F800705D5FEF70D
:1024B000E7FD401B0228F7D946E02078400779D590
:1024C000306C4FF00008C0000CD4CDF804804FF001
:1024D0000108306C40F080503064306C00F0805067
:1024E0000190019847F20007C4F200073868C00560
:1024F0000FD4386840F480703860FEF7C1FD05469F
:102500003868C00505D4FEF7BBFD401B0228F7D98B
:102510001AE0A768012F05D0306F052F2BD140F0AE
:1025200004003067306F40F001003067FEF7A8FD0F
:10253000054641F2883700BF306F800733D4FEF77D
:102540009FFD401BB842F7D9032002B0BDE8F081DF
:1025500000200021C4F247200160FEF791FD0546EE
:10256000306880077FF582AFFEF78AFD411B0320AC
:102570000229F5D991E020F001003067306F20F09A
:1025800004003067FEF77CFD0546002FD1D141F2F3
:102590008837306F800706D5FEF772FD411B032098
:1025A000B942F6D979E0B8F1000F1EBF306C20F0C7
:1025B00080503064A769002F6ED0B06800F00C0026
:1025C000082828D1012F22D07068E16900F4800228
:1025D0008A421CD1216A00F03F028A4217D147F695
:1025E000C071626A0140B1EB821F10D1A16A4FF63F
:1025F000FF72C903914300F44032A1F580318A4251
:1026000005D1E16A00F07060B0EB016F44D00120A9
:1026100002B0BDE8F08140F200080020C4F2472873
:10262000C8F86000FEF72CFD0546022F0AD100BF56
:102630003068800110D5FEF723FD411B03200229DD
:10264000F6D92AE03068800126D5FEF719FD411B36
:1026500003200229F6D920E004F11C078FCF08439C
:10266000D90340EA82104FF6FF72914340EA0760B7
:10267000A1F58031084370600120C8F86000FEF7C2
:10268000FFFC04463068800106D4FEF7F9FC011B0C
:1026900003200229F6D900E0002002B0BDE8F08155
:1026A000002804BF01207047B0B50446407F20B920
:1026B00000202077204600F061F802206077CA20D1
:1026C0002168486253204862C868400611D44FF020
:1026D000FF30C860FEF7D4FC054600BF2168C8681B
:1026E000400606D4FEF7CCFC401BB0F57A7FF5D946
:1026F0002EE04FF6BF728868CFF68F721040886068
:102700006068D4E9042310438A6818431043886042
:10271000E0680861A0680A6942EA00400861C86888
:1027200020F08000C8608868800618D4C86820F04F
:10273000A000C860FEF7A4FC054600BF2168C86879
:1027400080060CD4FEF79CFC401BB0F57A7FF5D9CF
:10275000216801200422FF234B626277B0BD086C20
:1027600020F480200864A0690A6C104301220864E8
:102770000020FF234B626277B0BD000080B586B0B9
:1027800000210591CDE90311CDE9011142F60001C7
:102790000068C4F20001884201D006B080BD4FF449
:1027A000807004900220019001A8FFF719FC002816
:1027B00018BFFEF723F940F63C600121C4F2472020
:1027C000016006B080BD00002DE9F041037F0446A2
:1027D0000220012B08BFBDE8F08160770120002AAC
:1027E000207706D04878CA788F78000240EA0248FD
:1027F0004FE04878C20642BF00F0EF000A30487050
:10280000CA780A2A10D34CF6CD470A3AD3B2CCF68E
:10281000CC47A3FB0737FF08102303EB071307EB95
:102820008707A2EB470200E000231A43C3B2D2B2EB
:102830000A2B4FEA024210D34CF6CD470A38C3B2F6
:10284000CCF6CC47A3FB0737FF08102303EB071395
:1028500007EB8707A0EB470000E000231843C0B256
:1028600042EA002888780A2810D34CF6CD430A386B
:10287000C2B2CCF6CC43A2FB0323DB08102202EB4E
:10288000031203EB8303A0EB430000E0002242EAC3
:1028900000070E782168CA20486253204862C86841
:1028A000400610D44FF0FF30C860FEF7E9FB054644
:1028B0002168C868400606D4FEF7E2FB401BB0F56D
:1028C0007A7FF5D920E0F8B2720340EA080020F0E0
:1028D000C00010434860C86820F08000C860886865
:1028E000800615D4C86820F0A000C860FEF7C8FBB9
:1028F000054600BF2168C868800609D4FEF7C0FB02
:10290000401BB0F57A7FF5D921680120042201E04F
:1029100000200122FF234B62002121776277BDE86E
:10292000F0810000F0B581B00D46017F0446022021
:10293000012900F0B68060770120002A2077216805
:10294000886800F040000FD0002807BF0020E87022
:10295000E87800046B782A78AF781B0243EA0242D9
:102960003A4442EA00074FE0002804BF0020E87024
:1029700028780A2810D34CF6CD430A38C2B2CCF6D8
:10298000CC43A2FB0323DB08102202EB031203EB70
:102990008303A0EB430000E0002210436A78C0B23A
:1029A00000040A2A10D34CF6CD470A3AD3B2CCF62B
:1029B000CC47A3FB0737FF08102303EB071307EBF4
:1029C0008707A2EB470200E000231A43D2B240EA95
:1029D0000220AA780A2A10D34CF6CD470A3AD3B27D
:1029E000CCF6CC47A3FB0737FF08102303EB0713F4
:1029F00007EB8707A2EB470200E000231A43D2B29D
:102A00001043EA7840EA0247CA20486253204862ED
:102A1000C868400611D44FF0FF30C860FEF730FBA5
:102A2000064600BF2168C868400606D4FEF728FBAA
:102A3000801BB0F57A7FF5D928E047F67F70C0F2A9
:102A40007F0038400860886820F480208860D5E9DD
:102A500003028B68104318438860C86820F0800028
:102A6000C8608868800615D4C86820F0A000C860D7
:102A7000FEF706FB054600BF2168C868800609D43A
:102A8000FEF7FEFA401BB0F57A7FF5D921680120E8
:102A9000042201E000200122FF234B620021217764
:102AA000627701B0F0BD000070B550B1D0F824C01D
:102AB0000446BCF1000F07D00021216104F114018C
:102AC00008E00125284670BD6168B1F5827F03D01A
:102AD00004F11C0100220A6000254FF0000EA562DF
:102AE00094F8511041B9204684F8505000F040F855
:102AF000D4E909C101F4005E022284F85120226861
:102B0000136823F040031360D4E90130D4E90316BD
:102B100003F4827300F4044001F400611844084493
:102B200006F002010844616901F001010844A1694D
:102B300001F400731844E36903F038031844236A6E
:102B400003F08003184340EA0E001060042000EAFE
:102B500011400CF0100108445060D06920F400606E
:102B6000D0610120656584F85100284670BD0000E1
:102B70002DE9F04F87B0002543F600010446069585
:102B8000CDE90455CDE90255C4F200010068884240
:102B900073D043F20001C4F20101884240F0D180B9
:102BA00043F63000002740F2004502AE4FF0050921
:102BB0004FF0030A4FF0020B4FF040080197C4F2A8
:102BC0000200C4F20205416941F48051416141694A
:102BD00001F48051019101990197016841F00101CF
:102BE0000160016801F001010191019901970168FB
:102BF00041F0020101603146006800F002000190DE
:102C00000198CDF81890CDE9047ACDF80CB0CDF844
:102C10000880A5F58060FEF741F92820CDE905A9D7
:102C2000CDE903B7314602902846FEF737F947F65B
:102C3000604546F258024FF480304FF0C061C4F254
:102C40000202C2F20005C5E9080702F580624FF4EE
:102C50008060C5E90021C5E90287C5E90407284667
:102C6000C5E90677FEF752F8002868D0FDF7C6FEE2
:102C700047F66045C2F2000561E043F63000019579
:102C8000C4F20200016941F480410161016901F46B
:102C90008041019101990195016841F002010160B3
:102CA00002A9006800F0020001900198052006903A
:102CB0000320CDE90450022003904FF460400290BD
:102CC00040F20040C4F20200FEF7E8F847F6C046C2
:102CD00046F258074FF48068C2F20006C4F20207B9
:102CE0003046C6E90855C6E90075C6E90255C6E989
:102CF0000485C6E90655FEF709F8002818BFFDF758
:102D00007DFE47F620550020402107F11802E664B9
:102D1000B463C2F20005C5E90800C5E90020C5E9B1
:102D20000210C5E90480C5E906002846FDF7EEFF5C
:102D300028B1FDF763FE47F62055C2F20005A564F1
:102D4000AC6307B0BDE8F08F2DE9F04383B00446D3
:102D500090F85000012802BF022003B0BDE8F083C4
:102D60004FF001091D4616460F4684F85090FEF7B5
:102D700087F9804694F85100012877D1002F4FF051
:102D8000010018BF002E00F0E480032084F85100F9
:102D900000206065E686A6862763A087A063C4E955
:102DA0001000E087A1682068B1F5004F07D10168E5
:102DB00021F040010160016841F480410160016837
:102DC00049065EBF016841F0400101606268711E02
:102DD000E368B1FA81F1B2FA82F24909B3F5006F02
:102DE0004FEA521241EA020142D131B137F8021BD7
:102DF000C1602763E18E0139E186E18E002979D037
:102E0000691C02D11DE000BF2068816889070BD4CE
:102E1000FEF736F9A0EB0800A84280F0CC80E08EE7
:102E20000028F1D166E000BF216B31F8022BC260AF
:102E30002163E08E0138E086E08E0028E4D159E07D
:102E400020688168890705D4FEF71AF9E08E00280A
:102E5000F6D14FE0216B31F8022BC2602163E08E86
:102E60000138E086E08E0028EAD143E0022070E0DD
:102E700039B139780173206B01302063E08E01385D
:102E8000E086E08EB0B3681C1ED000BF2068816869
:102E900089070BD4FEF7F4F8A0EB0800A84280F0F5
:102EA0008C80E08E0028F1D124E000BF216B0978EE
:102EB0000173206B01302063E08E0138E086E08EE4
:102EC0000028E3D116E000BF20688168890705D497
:102ED000FEF7D6F8E08E0028F6D10BE0216B0978DA
:102EE0000173206B01302063E08E0138E086E08EB4
:102EF0000028E9D140F2880049F68171C2F2000051
:102F0000C1F25E610068A0FB0101480D4FF47A71C7
:102F1000484302906068B0F5827F23D1204680212B
:102F20002A46434602F0B4FF28B1606D40F020000D
:102F3000606520206065A06838B900200190206895
:102F4000C1680191806801900198606D002818BFE8
:102F50000120002184F8501084F8519003B0BDE89E
:102F6000F08300BF02980028E5D002980138029053
:102F7000206880680006DED502980028DBD0029821
:102F800001380290206880680006D4D50298002895
:102F9000D1D0029801380290206880680006CAD516
:102FA00002980028C7D002980138029020688068F3
:102FB0000006D7D4BFE70320CBE70320C9E7000012
:102FC0002DE9F04383B0044690F85000012802BF79
:102FD000022003B0BDE8F08301201E4615460F46CF
:102FE00084F85000FEF74CF894F8511081460129FE
:102FF0000CD06068B0F5827F40F09F8002200429E9
:1030000040F09C80A168002940F09880002F4FF08C
:10301000010018BF002D00F09180002E00F08E807E
:1030200094F85100DDF8288004281CBF052084F89E
:10303000510000206065E687A563A6872763C4E981
:103040001000A686E6862068016849065EBF016812
:1030500041F0400101606268711EE368B1FA81F1DC
:10306000B2FA82F24909B3F5006F4FEA521241EA0F
:1030700002016CD131B137F8021BC1602763E08EC9
:103080000138E086012518F101002FD0E08E18B933
:10309000E08F002800F0C2802068816889070CD585
:1030A000E18E012D09D141B1216B002531F8022BB0
:1030B000C2602163E18E0139E1868168C9070AD0C7
:1030C000E18F41B1C068A16B012521F8020BA1631A
:1030D000E08F0138E087FDF7D3FFA0EB0900404502
:1030E000D4D303202AE000BFFDF7CAFFE08E18B951
:1030F000E08F002800F092802068816889070CD555
:10310000E18E012D09D141B1216B002531F8022B4F
:10311000C2602163E18E0139E1868168C907E3D08D
:10312000E18F0029E0D0C068A16B012521F8020BD6
:10313000A163E08F0138E087D6E70220002184F800
:103140005010012184F8511003B0BDE8F08339B16B
:1031500039780173206B01302063E08E0138E086FE
:10316000012518F1010031D0E08E10B9E08F002860
:1031700054D02068816889070ED5E18E012D0BD1CE
:1031800051B1216B002509780173216B2068013151
:103190002163E18E0139E1868168C9070BD0E18F97
:1031A00049B1C068A16B01250870A06B0130A06314
:1031B000E08F0138E087FDF763FFA0EB0900404591
:1031C000D2D30320BAE700BFFDF75AFFE08E08B95B
:1031D000E08F18B32068816889070ED5E18E012D34
:1031E0000BD151B1216B002509780173216B206847
:1031F00001312163E18E0139E1868168C907E3D09D
:10320000E18F0029E0D0C068A16B01250870A06B98
:103210000130A063E08F0138E087D5E740F28800F5
:1032200049F68171C2F20000C1F25E610068A0FB44
:103230000101480D4FF47A71484302906068B0F57F
:10324000827F0FD12046802142464B4602F020FE6D
:1032500060B3606D40F02000606520206065012053
:103260006CE700BF029808B302980138029020680A
:10327000806800061AD50298C0B102980138029001
:1032800020688068000611D5029878B1029801384C
:10329000029020688068000608D5029830B1029834
:1032A00001380290206880680006DBD4A168002005
:1032B00000297FF443AF01902168CA6801928968B0
:1032C000019101993AE700004EF210010428CEF274
:1032D00000010A6822F0040308BF42F004030B60F7
:1032E00070470000411E0020B0EB116F1CBF012091
:1032F00070474EF21002F023CEF2000251604EF6FB
:103300002351CEF200010B700721906011607047CD
:103310007047000070470000002804BF012070477C
:1033200010B5044690F83D0028B9002084F83C0010
:10333000204600F075F802204FF6FF73002184F854
:103340003D00C4F20003C4F2010120680268984203
:103350000FDC40F2FF73C4F20003984218DCB0F1B6
:10336000804F21D040F20043C4F2000398421BD0AA
:103370002FE044F2FF33C4F20103984219DC884283
:1033800012D044F20003C4F2010398421DD020E0A1
:1033900040F60003C4F20003984205D040F6004313
:1033A000C4F20003984214D1A36822F070021A43B9
:1033B0000BE044F20043C4F20103984205D044F606
:1033C0000003C4F20103984203D1236922F440723E
:1033D0001A43A36922F08002884242EA0302026093
:1033E000E268C2626268826204BF62690A630121A4
:1033F0004161002084F8461084F83E1084F83F10A4
:1034000084F8401084F8411084F8421084F8431086
:1034100084F8441084F8451084F83D1010BD000075
:1034200044F200410068C4F20101884218BF7047AD
:1034300080B582B000200022019043F64400C4F21F
:103440000200016841F4003101600321006800F4CA
:103450000030019001981920FDF790FE192002B06C
:10346000BDE88040FDF77ABE90F83D1001291CBFF1
:1034700001207047022180F83D100068C16841F0CA
:103480000101C16040F6FF31C4F2000188420FDC47
:10349000B0F1804F1DD040F20041C4F200018842DB
:1034A00017D040F60001C4F20001884211D017E0A5
:1034B00040F60041C4F2000188420AD044F2000103
:1034C000C4F20101884204D00021C4F20101884203
:1034D00006D1816801F00701062904BF002070476A
:1034E000016841F001010160002070477047000051
:1034F00010B5044600680169890744BFC1685FEAE6
:1035000081713BD40169490744BFC1685FEA4171D9
:1035100050D40169090744BFC1685FEA017166D4EC
:103520000169C90644BFC1685FEAC1617CD4016911
:10353000C9071CBFC1685FEAC17140F0938001698F
:10354000090644BFC1685FEA016100F19A80016920
:10355000490644BFC1685FEA416100F1A180016989
:10356000890646BFC1685FEA816110BD6FF0200126
:1035700001612046BDE81040FFF7CCBE6FF00201AC
:103580000161012121778069800703D02046FFF780
:10359000ADFF05E0204600F08BF8204600F08AF8E9
:1035A0000020207720680169490744BFC1685FEAAD
:1035B0004171AED56FF0040101610221217780696C
:1035C00010F4407F03D02046FFF790FF05E020462F
:1035D00000F06EF8204600F06DF80020207720689B
:1035E0000169090744BFC1685FEA017198D56FF0AE
:1035F0000801016104212177C069800703D02046BA
:10360000FFF774FF05E0204600F052F8204600F076
:1036100051F80020207720680169C90644BFC168BD
:103620005FEAC1617FF583AF6FF01001016108218E
:103630002177C06910F4407F03D02046FFF756FF82
:1036400005E0204600F034F8204600F033F8002072
:10365000207720680169C9071CBFC1685FEAC17192
:103660003FF46DAF6FF001010161204600F024F8D6
:1036700020680169090644BFC1685FEA01617FF5FE
:1036800066AF6FF0800101612046FFF741FE2068C0
:103690000169490644BFC1685FEA41617FF55FAFD8
:1036A0006FF040010161204600F048F8206856E7BD
:1036B000704700007047000010B540F2A024C2F22D
:1036C000000404F10801884218BF10BD20880130B1
:1036D0002080012022F072F82088B0F57A7F13D183
:1036E00000202080217901312171C9B23C290BD100
:1036F0002071607901306071C0B23C2804D1002093
:103700006071A0790130A0711EF002F848F21F51DB
:103710002088C5F2EB11A0FB01125109642201FBC4
:10372000120000B110BD40F200404FF48061C4F2BD
:103730000200BDE81040FDF795BC00007047000096
:10374000704700007047000010B582B0D0F800E06C
:103750000446DEF80010DEF80C20DEF814305FEAD4
:10376000017C00F0C38002F4907003F00103C018E4
:1037700000F0FF80C8071FBF12F48070206C40F07B
:1037800001002064480705D5002B1EBF206C40F0C7
:1037900002002064880705D5002B1EBF206C40F076
:1037A00004002064BCF1000F07D502F02000C0180F
:1037B0001EBF206C40F008002064206C002800F040
:1037C000748202EA0100800604D5204602F0E0FC83
:1037D000D4F800E0DEF81400216C00F0400001F0A5
:1037E0000801401800F0A5815EE8030F03E000BF68
:1037F000206850E8030F216820F4907041E803022C
:10380000E2B1206850E8030F216820F4907041E88D
:1038100003029AB1206850E8030F216820F49070E9
:1038200041E8030252B1206850E8030F216820F4F8
:10383000907041E80302002ADAD100BF206850E806
:10384000050F216820F0010041E80502DAB1206887
:1038500050E8050F216820F0010041E8050292B10F
:10386000206850E8050F216820F0010041E80502BA
:103870004AB1206850E8050F216820F0010041E8B6
:103880000502002ADAD1206B012824D1206850E8F3
:10389000030F216820F0100041E80302DAB120682C
:1038A00050E8030F216820F0100041E8030292B1B4
:1038B000206850E8030F216820F0100041E803025F
:1038C0004AB1206850E8030F216820F0100041E859
:1038D0000302002ADAD1202084F83E000020206371
:1038E00020684169490640F11E810AE011408A06BC
:1038F00040D5204602B0BDE8104002F049BC00BFF0
:10390000206850E8050F216820F0400041E80502DA
:10391000DAB1206850E8050F216820F0400041E846
:10392000050292B1206850E8050F216820F04000A0
:1039300041E805024AB1206850E8050F216820F0EF
:10394000400041E80502002ADAD1A06B002800F00F
:10395000EA8046F28511C0F600010165FDF7E2F844
:10396000002800F0A281A06B016D02B0BDE81040FC
:1039700008471140226BC8061CD5012A1AD1002025
:103980000190DEF800000190DEF80400019001983B
:10399000DEF81400400600F19D80E18DA28DE08DDF
:1039A00000281CBF511A5FEA014000F07E815EE8EA
:1039B000030F17E0080600F1A280480640F1758168
:1039C000DEF80C0020F04000CEF80C00202084F837
:1039D0003D00204602B0BDE8104000F0C1BB2068A9
:1039E00050E8030F226820F4907042E80303DBB133
:1039F000206850E8030F226820F4907042E8030327
:103A000093B1206850E8030F226820F4907042E8D8
:103A100003034BB1206850E8030F226820F4907034
:103A200042E80303002BDAD1206850E8050F226832
:103A300020F0010042E80503DBB1206850E8050FE3
:103A4000226820F0010042E8050393B1206850E8A5
:103A5000050F226820F0010042E805034BB1206801
:103A600050E8050F226820F0010042E80503002B12
:103A7000DAD1202084F83E0000202063206850E83E
:103A8000030F226820F0100042E80303DBB1206836
:103A900050E8030F226820F0100042E8030393B1BE
:103AA000206850E8030F226820F0100042E803036A
:103AB0004BB1206850E8030F226820F0100042E864
:103AC0000303002BDAD189B2204602B0BDE81040D2
:103AD000FFF736BEA26B1068436899B2002900F068
:103AE000E480B4F82CC0614580F0DF80E385D069C4
:103AF000B0F5807F00F0C2805EE8030F23E094F809
:103B00003D00212840F0D180A068B0F5805F03D14E
:103B10002069002800F0BC80206A411C21620078E6
:103B2000CEF80400BCE0204602B0BDE81040FFF72C
:103B300009BE2046FFF706FE0020206402B010BD3B
:103B4000206850E8030F216820F4807041E80302E8
:103B5000DAB1206850E8030F216820F4807041E852
:103B6000030292B1206850E8030F216820F48070AE
:103B700041E803024AB1206850E8030F216820F4AD
:103B8000807041E80302002ADAD1206850E8050F6E
:103B9000216820F0010041E80502DAB1206850E810
:103BA000050F216820F0010041E8050292B120686C
:103BB00050E8050F216820F0010041E805024AB1F4
:103BC000206850E8050F216820F0010041E8050257
:103BD000002ADAD1206850E8050F216820F0400063
:103BE00041E80502DAB1206850E8050F216820F0AD
:103BF000400041E8050292B1206850E8050F2168B5
:103C000020F0400041E805024AB1206850E8050F65
:103C1000216820F0400041E80502002ADAD1202086
:103C200084F83E0000202063206850E8030F2168DC
:103C300020F0100041E80302DAB1206850E8030FD9
:103C4000216820F0100041E8030292B1206850E89A
:103C5000030F216820F0100041E803024AB12068F8
:103C600050E8030F216820F0100041E80302002A09
:103C7000DAD1A06BFCF70CFFB4F82CC0E08DACEBF4
:103C8000000081B2204602B0BDE81040FFF758BDE9
:103C9000206A30F8021B6FF35F21CEF80410206217
:103CA000E08C0138E084000401D002B010BDDEF8E1
:103CB0000C0020F08000CEF80C00DEF80C0040F084
:103CC0004000CEF80C0002B010BD0000002804BF78
:103CD0000120704710B5044690F83D0028B9002037
:103CE00084F83C00204600F021F8242084F83D00B0
:103CF0002068C16821F40051C160204602F0C4FA76
:103D00002068016921F490410161416921F02A0193
:103D10004161C16841F40051C1600020202120644C
:103D200084F83D1084F83E1010BD000080B586B0C8
:103D300000210591CDE90311CDE90111026844F29A
:103D40000040C4F20000824201D006B080BD43F6BC
:103D50003002009100F5DE30C4F20202136943F430
:103D600000331361136903F400330093009B009147
:103D7000136843F001031360126802F0010200921D
:103D8000009A072205920322CDE903120221029133
:103D90000C21019101A9FDF781F8262001210022C3
:103DA000FDF7ECF92620FDF7D9F906B080BD00003B
:103DB000034690F83E0020280AD100294FF0010068
:103DC00018BF002A00D1704793F83C00012801D1A8
:103DD0000220704700201863DA8518649A8599627A
:103DE000222183F83C0083F83E101968CA6842F427
:103DF0008072CA604A6942F001024A61CA6842F0B0
:103E00002002CA607047000044F200410068C4F21A
:103E10000001884218BF704710B540F22C0040F2F4
:103E2000342140F2F024C2F20000C2F20001C2F2DA
:103E300000040078C87040F26D00C2F20000007803
:103E4000087140F28400C2F20000007848712078C6
:103E5000AA2815D16078552812D1A07888280FD1CA
:103E6000E07855280CD12079AA2809D140F23421D4
:103E700004F1080008226423C2F2000100F008F8EF
:103E800004F1080021460522BDE81040FFF790BF6D
:103E90002DE9F047044690F83D0020280DD10F464B
:103EA0000120002900F05A811646002A08BFBDE80B
:103EB000F08794F83C00012802D10220BDE8F08789
:103EC0004FF0000A01201D46C4F840A084F83C00D1
:103ED000212084F83D00FDF7D3F8E684A6848046CF
:103EE000A068B0F5805F07D126694FF00009002E69
:103EF0000CBFB9463E4602E03E464FF0000984F84A
:103F00003CA0E28C20680168BAB36A1C17D0002D6F
:103F10004ED100BF090667D516B116F8011B04E0A3
:103F200039F8021B00266FF35F214160E18C0139F3
:103F3000E184E28C0168002AECD11EE001680906E8
:103F40005FBF01685FEA016101685FEA016103D454
:103F500001680906F2D500BF16B116F8011B04E08E
:103F600039F8021B00266FF35F214160E18C0139B3
:103F7000E184E28C0168002AE1D1490600F19480D5
:103F8000002D00F09780691C40F08480016849068C
:103F90005CBF01685FEA416100F186800168490603
:103FA00000F1828001684906F0D57DE02068016853
:103FB000090606D4FDF764F8A0EB0800A842F5D97D
:103FC00012E016B116F8011B04E039F8021B0026B6
:103FD0006FF35F214160E18C0139E184E28C01687B
:103FE000002AE5D1C9E700BF206850E8030F216827
:103FF00020F4D07041E80302E2B1206850E8030FDA
:10400000216820F4D07041E803029AB1206850E89A
:10401000030F216820F4D07041E8030252B12068F8
:1040200050E8030F216820F4D07041E80302002A11
:10403000DAD100BF206850E8050F216820F00100A8
:1040400041E80502DAB1206850E8050F216820F048
:10405000010041E8050292B1206850E8050F21688F
:1040600020F0010041E805024AB1206850E8050F40
:10407000216820F0010041E80502002ADAD1202061
:10408000002184F83D0084F83C1084F83E000320B1
:10409000BDE8F087FCF7F4FFA0EB0800A84209D8C0
:1040A000206800684006F5D5202084F83D000020F7
:1040B000BDE8F087206850E8030F216820F4D07035
:1040C00041E80302E2B1206850E8030F216820F4C0
:1040D000D07041E803029AB1206850E8030F2168CC
:1040E00020F4D07041E8030252B1206850E8030F79
:1040F000216820F4D07041E80302002ADAD100BF21
:10410000206850E8050F216820F0010041E8050211
:10411000DAB1206850E8050F216820F0010041E87D
:10412000050292B1206850E8050F216820F00100D7
:1041300041E805024AB1206850E8050F216820F0E7
:10414000010041E80502002ADAD12020002184F88C
:104150003D0084F83C1084F83E000320BDE8F08761
:1041600070470000FEE7000010B5002A08BF10BD30
:1041700001314FF0000C4FF0370E00BF81F800C046
:104180000EEB1073040FB0F1204F38BF04F1300371
:1041900001F8013C013A01F102014FEA0010EDD1B2
:1041A00010BD00002DE9F04383B040F214460546EF
:1041B00048F2A8149846174689460DF101010122DC
:1041C0004FF6FF73C4F20206C2F20004306820F416
:1041D000807030602A208DF80100306820F04000A7
:1041E00030602046FEF7B0FD30680DF1020101227B
:1041F0004FF6FF7340F040003060306840F480704C
:104200003060280A8DF80200306820F040003060ED
:104210002046FEF799FD30680DF1030101224FF6AB
:10422000FF7340F0400030608DF80350306820F09C
:10423000400030602046FEF787FD306801A901226A
:104240004FF6FF7340F040003060380A8DF80400EC
:10425000306820F0400030602046FEF775FD306881
:104260000DF1050101224FF6FF7340F04000306070
:104270008DF80570306820F0400030602046FEF771
:1042800063FD30680DF1060101224FF6FF7340F027
:1042900040003060306820F4807030602B208DF852
:1042A0000600306820F0400030602046FEF74CFDEC
:1042B000306809F150050DF1070101224FF6FF7337
:1042C00040F040003060306840F480703060280A70
:1042D0008DF80700306820F0400030602046FEF77F
:1042E00033FD306802A901224FF6FF7340F0400011
:1042F00030608DF80850306820F040003060204673
:10430000FEF722FD306808F150050DF10901012288
:104310004FF6FF7340F040003060280A8DF8090026
:10432000306820F0400030602046FEF70DFD306818
:104330000DF10A0101224FF6FF7340F0400030609A
:104340008DF80A50306820F0400030602046FEF7BB
:10435000FBFC30680DF10B0101224FF6FF7340F0BA
:1043600040003060306820F4807030602C208DF880
:104370000B00306820F0400030602046FEF7E4FC7F
:10438000306840F040003060306840F48070306049
:1043900003B0BDE8F08300002DE9F04F81B040F29A
:1043A00014454FF4507101224FF00108C4F2020588
:1043B000A5F11400FCF75EFE286820F40070286068
:1043C000C820FCF757FD286840F400702860C8201A
:1043D000FCF750FDC820FCF74DFD286848F2A814F2
:1043E0000DF1030101224FF6FF73C2F2000420F425
:1043F0008070286011208DF80300286820F04000AC
:1044000028602046FEF7A0FC286840F040002860A5
:10441000286840F480702860DC20FCF72BFD2868B9
:104420000DF1030101224FF6FF7320F48070286024
:1044300036208DF80300286820F0400028602046D0
:10444000FEF782FC28680DF1030101224FF6FF738D
:1044500040F040002860286840F480702860C02048
:104460008DF80300286820F0400028602046FEF701
:104470006BFC28680DF1030101224FF6FF7340F039
:1044800040002860286820F4807028603A208DF869
:104490000300286820F0400028602046FEF754FC06
:1044A000286805260DF1030101224FF6FF7340F045
:1044B00040002860286840F4807028608DF8036010
:1044C000286820F0400028602046FEF73DFC286860
:1044D0000DF1030101224FF6FF7340F04000286008
:1044E000286820F480702860B2208DF803002868C6
:1044F00020F0400028602046FEF726FC28680C27A4
:104500000DF1030101224FF6FF7340F040002860D7
:10451000286840F4807028608DF80370286820F0C7
:10452000400028602046FEF70FFC28680DF10301CB
:1045300001224FF6FF7340F0400028608DF80370B1
:10454000286820F0400028602046FEF7FDFB286820
:104550000DF1030101224FF6FF7340F04000286087
:1045600000208DF80300286820F0400028602046D5
:10457000FEF7EAFB28680DF1030101224FF6FF73F5
:10458000332740F04000286033208DF8030028686E
:1045900020F0400028602046FEF7D6FB28680DF189
:1045A000030101224FF6FF734FF0330940F0400042
:1045B00028608DF80370286820F0400028602046AD
:1045C000FEF7C2FB28680DF1030101224FF6FF73CD
:1045D00040F040002860286820F480702860B720F0
:1045E0008DF80300286820F0400028602046FEF780
:1045F000ABFB28680DF1030101224FF6FF7340F079
:1046000040002860286840F48070286035208DF8CC
:104610000300286820F0400028602046FEF794FB45
:1046200028680DF1030101224FF6FF7340F04000AE
:104630002860286820F480702860BB208DF8030073
:10464000286820F0400028602046FEF77DFB28689F
:104650000DF1030101224FF6FF7340F04000286086
:10466000286840F48070286032208DF803002868A4
:1046700020F0400028602046FEF766FB28680DF118
:10468000030101224FF6FF7340F0400028602868C4
:1046900020F480702860C2208DF80300286820F084
:1046A000400028602046FEF74FFB28680DF103010B
:1046B00001224FF6FF7340F040002860286840F464
:1046C000807028608DF80380286820F04000286002
:1046D0002046FEF739FB28680DF1030101224FF651
:1046E000FF7340F040002860286820F48070286044
:1046F000C3208DF80300286820F040002860204681
:10470000FEF722FB28680DF1030101224FF6FF732B
:1047100040F040002860286840F480702860152030
:104720008DF80300286820F0400028602046FEF73E
:104730000BFB28680DF1030101224FF6FF7340F0D7
:1047400040002860286820F480702860C4208DF81C
:104750000300286820F0400028602046FEF7F4FAA5
:1047600028680DF1030101224FF6FF7340F040006D
:104770002860286840F48070286020208DF80300AD
:10478000286820F0400028602046FEF7DDFA2868FF
:104790000DF1030101224FF6FF7340F04000286045
:1047A000286820F480702860C6208DF803002868EF
:1047B00020F0400028602046FEF7C6FA28680DF178
:1047C000030101224FF6FF7340F040002860286883
:1047D00040F4807028600F208DF80300286820F0D6
:1047E000400028602046FEF7AFFA28684FF0D00B53
:1047F0000DF1030101224FF6FF7340F040002860E5
:10480000286820F4807028608DF803B0286820F0B4
:10481000400028602046FEF797FA28680DF1030152
:1048200001224FF6FF7340F040002860286840F4F2
:1048300080702860A4208DF80300286820F04000D4
:1048400028602046FEF780FA28680DF10301012256
:104850004FF6FF7340F040002860A1208DF8030060
:10486000286820F0400028602046FEF76DFA28688E
:104870000DF1030101224FF6FF7340F04000286064
:10488000286820F480702860E0208DF803002868F4
:1048900020F0400028602046FEF756FA28680DF107
:1048A000030101224FF6FF7340F0400028602868A2
:1048B00040F4807028608DF803B0286820F0400034
:1048C00028602046FEF740FA28680DF10301012216
:1048D0004FF6FF7340F04000286008208DF8030079
:1048E000286820F0400028602046FEF72DFA28684E
:1048F0000DF1030101224FF6FF7340F040002860E4
:104900000E208DF80300286820F040002860204623
:10491000FEF71AFA286809270DF1030101224FF664
:10492000FF7340F0400028608DF80370286820F085
:10493000400028602046FEF707FA28680DF10301C1
:1049400001224FF6FF7340F0400028608DF803709D
:10495000286820F0400028602046FEF7F5F9286816
:104960000DF1030101224FF6FF7340F04000286073
:104970008DF80360286820F0400028602046FEF78C
:10498000E3F9286831260DF1030101224FF6FF7388
:1049900040F0400028608DF80360286820F0400057
:1049A00028602046FEF7D0F928680DF103010122A6
:1049B0004FF6FF7340F0400028608DF803902868A0
:1049C00020F0400028602046FEF7BEF928680DF16F
:1049D000030101224FF6FF7340F040002860482099
:1049E0008DF80300286820F0400028602046FEF77C
:1049F000ABF928680DF1030101224FF6FF7340F077
:104A00004000286017208DF80300286820F040003F
:104A100028602046FEF798F928684FF014090DF138
:104A2000030101224FF6FF7340F0400028608DF82B
:104A30000390286820F0400028602046FEF784F9A3
:104A400028684FF015080DF1030101224FF6FF739E
:104A500040F0400028608DF80380286820F0400076
:104A600028602046FEF770F928680DF10301012245
:104A70004FF6FF7340F0400028608DF8036028680F
:104A800020F0400028602046FEF75EF928684FF0CD
:104A9000340A0DF1030101224FF6FF7340F040008C
:104AA00028608DF803A0286820F040002860204688
:104AB000FEF74AF928680DF1030101224FF6FF7352
:104AC00040F040002860286820F480702860E120D1
:104AD0008DF80300286820F0400028602046FEF78B
:104AE00033F928680DF1030101224FF6FF7340F0FE
:104AF00040002860286840F4807028608DF803B07A
:104B0000286820F0400028602046FEF71DF928683C
:104B10000DF1030101224FF6FF7340F040002860C1
:104B200008208DF80300286820F040002860204607
:104B3000FEF70AF928680DF1030101224FF6FF7311
:104B400040F0400028600E208DF80300286820F017
:104B5000400028602046FEF7F7F828680DF10301B1
:104B600001224FF6FF7340F0400028608DF803707B
:104B7000286820F0400028602046FEF7E5F8286805
:104B80000DF1030101224FF6FF7340F04000286051
:104B90008DF80370286820F0400028602046FEF75A
:104BA000D3F828680DF1030101224FF6FF73152792
:104BB00040F0400028608DF80380286820F0400015
:104BC00028602046FEF7C0F828680DF10301012295
:104BD0004FF6FF7340F0400028608DF803602868AE
:104BE00020F0400028602046FEF7AEF828680DF15E
:104BF000030101224FF6FF7340F04000286033208C
:104C00008DF80300286820F0400028602046FEF759
:104C10009BF828680DF1030101224FF6FF7340F065
:104C20004000286048208DF80300286820F04000EC
:104C300028602046FEF788F828680DF1030101225C
:104C40004FF6FF7340F04000286017208DF80300F6
:104C5000286820F0400028602046FEF775F8286894
:104C60000DF1030101224FF6FF7340F04000286070
:104C70008DF80390286820F0400028602046FEF759
:104C800063F828680DF1030101224FF6FF7340F02D
:104C9000400028608DF80370286820F040002860EC
:104CA0002046FEF751F828680DF1030101224FF666
:104CB000FF7340F0400028608DF80360286820F002
:104CC000400028602046FEF73FF828680DF10301F8
:104CD00001224FF6FF7340F0400028608DF803A0DA
:104CE000286820F0400028602046FEF72DF828684C
:104CF0000DF1030101224FF6FF7340F040002860E0
:104D0000286820F48070286021208DF8030028682E
:104D100020F0400028602046FEF716F828680DF1C4
:104D2000030101224FF6FF7340F04000286028681D
:104D300040F480702860286820F480702860292062
:104D40008DF80300286820F0400028602046FDF719
:104D5000FBFF286840F040002860286840F480701D
:104D600028606420FCF786F801B0BDE8F08F0000F1
:104D7000B0B5D0F8BC52002D08BFB0BD044641F21A
:104D80001C00285C88B12046812101F091FE687AE0
:104D9000022809D12046812101F08AFE2046012106
:104DA000BDE8B04001F084BEB0BD41F21800285803
:104DB0000028E8D0687A0028E5D12046012101F0DA
:104DC00077FEE0E7B0B5D0F8BC52ADB3044641F28F
:104DD0001400285841F23401685041F21800285854
:104DE00041F2380168502046012101F04DFD1F2895
:104DF00013D141F21000285845F25531C4F2423126
:104E000088420AD141F21D00295C012905D841F2EE
:104E10001E00285C013810280FD341F21D00295CC8
:104E200020460522202300F089FE022068722046D9
:104E3000BDE8B040FFF79CBFB0BD41F21F002A188B
:104E4000204600F06FFB297AB0F1FF3F0CDD481ED1
:104E5000032838BFB0BDEA6872B105F110012046E1
:104E6000BDE8B04000F0E6B80529E0D120460121B8
:104E7000BDE8B04000F0BAB820460021BDE8B0401F
:104E800000F0B4B810B50446D0F8BC02C8B1407AFE
:104E9000022809D12046812101F00AFE2046012185
:104EA000BDE8104001F004BE49B2B1F1FF3FC8BFF8
:104EB00010BD012805D020460121BDE8104000F0BA
:104EC00095B810BD10B50446D0F8BC02F0B1017A17
:104ED000CA1E022A05D220460021BDE8104000F07B
:104EE00085B8022912D141F21D01415C41F21F0235
:104EF0000244204600F016FBB0F1FF3FC8BF10BDD2
:104F000020460121BDE8104000F070B810BD00003F
:104F100010B50446D0F8BC02B0B1017A012907D01F
:104F2000002918BF10BD2046BDE81040FFF74ABF5A
:104F300041F21D01415C41F21F020244204600F093
:104F4000F1FAB0F1FF3F00DD10BD20460121BDE8C0
:104F5000104000F04BB80000D0F8BC0200281CBF85
:104F60000021017270470000B0B5D0F8BC52002D8E
:104F700008BFB0BD044641F26200002129544FF43D
:104F8000835029522981D4F8C00201680020884743
:104F90002046012101F06EFC2046812101F06AFCCF
:104FA00041F210002A18204601211F23BDE8B0401D
:104FB00001F0E8BCB0B5D0F8BC52002D08BFB0BDC0
:104FC00004464FF4807028812046812101F0A4FB23
:104FD0002046012101F0A0FB41F210002A182046D2
:104FE00001211F23BDE8B04001F0CCBCB0B5D0F822
:104FF000BC52002D08BFB0BD044641F23C0029540C
:1050000041F2300045F25531C5F2423129500021BC
:1050100029722A18204681210D2301F067FD41F2F3
:1050200010002A18204601211F23BDE8B04001F0DE
:10503000A9BC00008C46D0F8BC12002908BF7047FC
:1050400010B5134641F218028A5841F23C0E002472
:1050500001F80E4041F2380E51F80E40E41A41F8C2
:105060000E4004240C729A4238BF134681216246D6
:10507000BDE8104001F03ABD80B582B043F6300182
:1050800000200190C4F202010A6842F480020A6022
:105090000A6802F480020192019A009008680022D6
:1050A00040F4001008600868022100F4001000902D
:1050B00000980E20FCF762F80E20FCF74FF80F2046
:1050C00002210022FCF75AF80F20FCF747F83B209A
:1050D00002210022FCF752F83B2002B0BDE88040DC
:1050E000FCF73CB880B540F27000C2F2000041F21B
:1050F0005C71C2F20001FBF787FC49F26051C2F219
:105100000001087080BD000070B586B043F6300025
:10511000002540F20044002205950095C4F20200EB
:10512000C4F20204016841F004010160016801F069
:105130000401009100990095016841F0800101602F
:10514000016801F08001009100990095016841F02B
:1051500001010160016801F00101009100990095D1
:10516000016841F0020101604FF4A051006800F0B5
:105170000200009000982046FBF77CFF20464FF489
:10518000707101220126FBF775FF0495CDE90265D8
:105190004FF4806001AD019020462946FBF77EFE6A
:1051A0000320294604904FF49A50CDE902660190FD
:1051B0002046FBF773FE022004962946CDE90260E3
:1051C000802001902046FBF769FE06B070BD00000C
:1051D00010B586B048F2881042F600030024FF2183
:1051E0007F22C2F20000C4F200030594CDE903441B
:1051F000CDE90144C0E90034C0E90221C0E904441A
:1052000084610094FDF74CFA002818BFFBF7F6FB09
:1052100048F2881001A90122CDE904448DF8064026
:10522000ADF80440C2F20000FDF77CFB002818BF77
:10523000FBF7E4FB40F2011069460122C0F20100D5
:10524000009048F28810C2F20000FDF7BDFA002875
:1052500018BFFBF7D3FB06B010BD000080B548F2C5
:10526000A81043F200024FF4827100234FF4007C37
:10527000C2F20000C4F20102C0E900210A21C0E923
:105280000233C0E90433C0E906C3C0E90833C0E90A
:105290000A31FDF709FC002814BFBDE8804080BD3D
:1052A000FBF7ACBB80B548F2002043F600024FF498
:1052B000827100234FF4007CC2F20000C4F20002AD
:1052C000C0E900210A21C0E90233C0E90433C0E982
:1052D00006C3C0E90833C0E90A31FDF7E5FB002841
:1052E00014BFBDE8804080BDFBF788BB80B540F2AD
:1052F000A02044F2004140F2E7324723C2F200000E
:10530000C4F2010140F8081F802181610021C0E939
:105310000131C0E90321FDF7FFFF002814BFBDE8FC
:10532000804080BDFBF76ABB80B540F2F02044F2BC
:1053300000410C224FF41653C2F20000C4F20001E7
:1053400040F8081F0021C0E90131C0E90311C0E99C
:105350000521C161FEF7BAFC002814BFBDE88040FA
:1053600080BDFBF74BBB000080B547F69010C2F242
:10537000000040F21001C2F20001002201F0B6F973
:10538000002818BFFBF73AFB47F69010C2F2000066
:1053900040F2A401C2F2000101F0BAFC002818BFDB
:1053A000FBF72CFB47F69010C2F2000040F24811C8
:1053B000C2F2000101F022FC002818BFFBF71EFB1F
:1053C00047F69010C2F2000001F04AFD002814BF19
:1053D000BDE8804080BDFBF711BB0000FEE7000088
:1053E000FEE7000047F68050C2F20000FCF7A8B8C4
:1053F00070470000D0F8BC0250B10979002918BFED
:10540000012141F2620281540021C16048B270471B
:10541000FF2148B270470000D0F8BCC2BCF1000FB9
:1054200014D041F268015CF801101A448A429EBF10
:10543000002040B2704780B500210522212300F0F2
:105440007DFBFF20BDE8804040B27047FF2040B2A6
:105450007047000080B58446D0F8BC0298B341F292
:105460001803C35883B15378DB0712D1DCF8C0327C
:10547000DB6901EBC10103EB81010B790533127983
:105480009A4288BF1A4613E0604600210522202375
:1054900017E09178802906D079B940F25F01C2F215
:1054A0000001062204E040F26501C2F20001082278
:1054B00000F0C0FB002040B280BD60460021052204
:1054C000242300F03BFBFF2040B280BDD0F8BC029B
:1054D00078B180B50A7A1B2A28BF1B2240F22D0121
:1054E000C2F2000100F0A6FB0020BDE8804040B2FF
:1054F0007047FF2040B27047D0F8BC0278B180B549
:105500000A79172A28BF172240F24801C2F2000187
:1055100000F090FB0020BDE8804040B27047FF20C3
:1055200040B27047B0B5D0F8BC52002D00F0848076
:1055300013789D2B00F337805A2B00F27680DFE83A
:1055400003F02E74743C747474747474747474748E
:10555000747474744174747474747474454A747497
:105560004E7474747453745774745B745F7474748D
:1055700074637474747474747474747474747474FC
:1055800074747474747474747474747474747474DB
:105590007474747474747474747474746700BDE88F
:1055A000B04000F01DBB9E2B37D0A82B39D0AA2BC2
:1055B0003BD1BDE8B04000F0DDBB1146BDE8B040D6
:1055C00000F070BABDE8B040FFF744BF1146BDE837
:1055D000B040FFF791BFBDE8B04000F0D1BA11462E
:1055E000BDE8B040FFF706BFBDE8B04000F022BA0A
:1055F000BDE8B04000F0A6B9BDE8B04000F0DAB8B0
:10560000BDE8B04000F048BBBDE8B04000F026BBAC
:105610001146BDE8B040FFF759BFBDE8B04000F00B
:10562000C3B9BDE8B04000F029B90021052220230C
:1056300000F084FA022068724FF0FF30B0BD000025
:105640002DE9F04F81B0D0F8BC72002F43D0054651
:1056500041F2640A37F80A0041F2700B57F80B2048
:1056600002FB00F441F26C02BA58B4F5805F28BF27
:105670004FF480541FFA84F8B8FBF0F3D5F8C00259
:10568000066907F1100908464946B047B0F1FF3FE7
:1056900023DDBA44BB4441F26C003E182846812108
:1056A0004A46234601F022FABAF80000B8FBF0F0AF
:1056B000316801443160DBF80010081ACBF80000B3
:1056C00041F238003958A1EB0401395004BF0320DE
:1056D0003872002008E0FF2006E02846002104225E
:1056E000112300F02BFAFF2040B201B0BDE8F08F8B
:1056F0002DE9F04F81B0D0F8BC62002E46D00446B0
:1057000041F26400305A41F2700956F8092002FB58
:1057100000F741F26C0A56F80A20B7F5805F28BFFF
:105720004FF480571FFA87F8B8FBF0F3D4F8C002A3
:10573000456906F1100B08465946A847B0F1FF3FEE
:1057400026DD41F26400304406EB090206EB0A0153
:105750000088B8FBF0F30D681D440D601168C91A8C
:10576000116041F23802B358A3EB0703B35017D0CE
:1057700001FB00F3B3F5805F28BF4FF48053204650
:1057800001215A4601F0FEF800250EE0FF250CE04D
:10579000204600210422032300F0D0F9FF2504E075
:1057A000002520460021FFF721FC68B201B0BDE8CA
:1057B000F08F0000F0B581B0D0F8BC7297B30D4601
:1057C0000446387A48B14FF48050F86020462946A4
:1057D00001B0BDE8F040FFF733BF41F21C0038567E
:1057E000002806DB204600210522202300F0A6F930
:1057F00018E041F26200385C022806D12046002100
:1058000002223A2300F09AF90CE01646D4F8C002BE
:1058100081682846884748B12046002102223A2361
:1058200000F08CF94FF0FF3001B0F0BDD6F8020067
:1058300002BA41F26C003A50F079317A41EA002321
:1058400041F27006BB5120462946FFF7E5FD0028CE
:10585000E8DBB81941F21801795841F26402BA5AEA
:1058600000685043814202D102203872ABE72046E3
:1058700000210522202300F061F9D3E7F0B581B0C3
:10588000D0F8BC7297B30D460446387A48B14FF44D
:105890008050F8602046294601B0BDE8F040FFF78F
:1058A000CFBE41F21C003856002806DB20460021FE
:1058B0000522202300F042F918E041F26200385C32
:1058C000022806D12046002102223A2300F036F9B0
:1058D0000CE01646D4F8C00281682846884748B1D3
:1058E0002046002102223A2300F028F94FF0FF3031
:1058F00001B0F0BDD6F8020002BA41F26C003A5095
:10590000D6F8060003BA41F27006BB51204629467C
:10591000FFF782FD0028E9DBB81941F21801795838
:1059200041F26402BA5A00685043814202D1022017
:105930003872ACE7204600210522202300F0FEF853
:10594000D4E7000070B5D0F8BC62BEB1054641F2A4
:1059500064003418D5F8C0024368221D0846114679
:105960002246984720B941F26200305C022808D1F3
:105970002846002102223A2300F0E0F8FF2040B23E
:1059800070BD61680020B0820139F1740A0AB274F6
:105990000A0C7274090E317421880822F260F175C4
:1059A000090AB17540B270BDF0B581B0D0F8BC72D3
:1059B000D7B11446064641F264003D18D6F8C0023D
:1059C00043682A1D084611462A46984720B941F2E5
:1059D0006200385C022809D13046002102223A23B5
:1059E00000F0ACF8FF2022E0FF2020E0D4F80A000D
:1059F00000BAF86040B10021002300223B44197432
:105A00000132D3B29842F9D869680020388301394D
:105A1000F9750A0ABA750A0C7A75090E397529885A
:105A2000F976090AB976D4F80A1009BAF96040B2D1
:105A300001B0F0BDB0B582B0D0F8BC52BDB10446E3
:105A4000D0F8C0024368EC460DF1060208466146F4
:105A5000984720B941F26200285C022809D120460B
:105A6000002102223A2300F069F8FF2017E0FF200E
:105A700015E04FF000602861009802212983013869
:105A8000E875010AA975010C6975000E2875BDF845
:105A900006000C21E960E876000AA876002040B2F2
:105AA00002B0B0BD80B5D0F8BC22002A42D041F28D
:105AB0001803D358CBB30020C2F8150082F8210098
:105AC000C2F81D00C2F81900C2F81100702010744D
:105AD0000C20D0754FF48350105C41F26103D35C0D
