:020000040800F2
:10000000B0CF002085020008313700086F2E0008AD
:100010002F370008CB090008DB5C00080000000057
:10002000000000000000000000000000FD43000888
:100030006D0A00080000000041370008B9440008BC
:100040009F0200089F0200089F0200089F0200080C
:100050009F0200089F0200089F0200089F020008FC
:100060009F0200089F0200089F0200089F020008EC
:100070009F0200089F020008190A0008250A0008CC
:100080009F0200089F0200089F0200080000000075
:100090000000000000000000000000009F020008B7
:1000A0009F020008754500089F0200089F02000893
:1000B0009F0200089F0200089F0200089F0200089C
:1000C0009F0200089F0200089F0200089F0200088C
:1000D0009F0200089F0200089F0200080000000025
:1000E0009F0200089F0200089F0200080000000015
:1000F0000000000000000000000000009F02000857
:10010000000000009F0200089F0200089F020008F4
:1001100000000000000000000000000000000000DF
:100120009F0200089F0200089F020008310A000891
:100130009F02000800000000000000000000000016
:10014000000000000000000000000000353700083B
:100150009F0200089F0200089F0200089F020008FB
:100160009F0200089F02000800000000000000003D
:10017000000000000000000000000000000000007F
:10018000000000009F0200080000000000000000C6
:100190009F02000800F002F800F064F80AA090E85E
:1001A000000C82448344AAF10107DA4501D100F032
:1001B00059F8AFF2090EBAE80F0013F0010F18BF9B
:1001C000FB1A43F00103184788DA0200A8DA02009C
:1001D0000A444FF0000C10F8013B13F0070408BF6D
:1001E00010F8014B1D1108BF10F8015B641E05D00B
:1001F00010F8016B641E01F8016BF9D113F0080FC0
:100200001EBF10F8014BAD1C0C1B09D16D1E58BF51
:1002100001F801CBFAD505E014F8016B01F8016B88
:100220006D1EF9D59142D6D37047000000230024FB
:1002300000250026103A28BF78C1FBD8520728BFF6
:1002400030C148BF0B607047642900F017817329E3
:1002500000F05B83002070471FB523F037FA1FBD05
:1002600010B510BD00F077FB1146FFF7F5FF20F049
:100270000FFE00F095FB03B4FFF7F2FF03BC00F0A4
:100280009DFB00000948804709480047FEE7FEE75C
:10029000FEE7FEE7FEE7FEE7FEE7FEE7FEE7FEE736
:1002A00004480549054A064B7047000065450008AB
:1002B00095010008B0B70020B0CF0020B0BF0020EB
:1002C000B0BF002053EA020C00F069802DE9F04B2A
:1002D0004FF00006002B1FBFB3FA83F503FA05F4B5
:1002E00024FA05F65E4012BF1643B2FA82F502FA0E
:1002F00005F4C5F120051EBF22FA05FC44EA0C04F2
:10030000203556EA044C4FEA144418BF641C4FF0E1
:1003100000084FF00009904271EB030C39D300291B
:1003200019BFB1FA81F701FA07F6B0FA80F700FABF
:1003300007F6C7F120071EBF20FA07FC46EA0C06A5
:100340002037B6FBF4FCA7EB0507103F07F01F0BA7
:10035000CBF120062CFA06F60CFA0BFB44BFB34691
:100360000026202FA4BF5E464FF0000B5BEA060C70
:1003700008BF4FF0010B19EB0B0948EB0608ABFB6C
:10038000027C06FB02CC0BFB03CCC01B71EB0C0107
:10039000C1E70B46024641464846BDE8F08B13B51F
:1003A0004FF000004FF00001AFF30080BDE81C40AB
:1003B000704700000FB41CB5074B06AA7B44694682
:1003C0000090059800F077FA0020694600F086FA60
:1003D0001CBC5DF814FB00001D05000070B5044650
:1003E00085690068C10601D5302600E02026C007D7
:1003F00007D070BDD4E9012130469047206A401CE7
:1004000020626D1EF6D570BD70B504468569007812
:10041000C00707D170BDD4E9012120209047206A90
:10042000401C20626D1EF6D570BD70B50C460546A9
:10043000012A05D02878800600D5EA69002302E069
:10044000012305E05B1C934202D2E05C0028F9D155
:10045000A869E618C01AA861286A184428622846C4
:10046000FFF7BCFF04E0D5E9012114F8010B904728
:10047000B442F8D32846FFF7C7FF70BD2DE9F0411D
:100480000646002410687529314616A510D0AFF332
:100490000080002802DA404213A507E031688A078D
:1004A00001D512A502E0490704D511A5012401E0F8
:1004B000AFF3008000210A2206F1240709E0B0FB17
:1004C000F2FCB0FBF2F302FB1C003030785418460B
:1004D000491C0028F3D123462A463046BDE8F041A6
:1004E00000F08BB9000000002D0000002B00000080
:1004F000200000002DE9F05F894604464FF0000A15
:10050000DFF824B1FB44C0F820A02046E16888470A
:1005100000287DD0252806D0D4E901219047206A03
:10052000401C2062F1E700255F462046E1688847CD
:100530002028064607DB312E05D2B81910F8200C0A
:1005400008B10543F1E7A80701D525F00405C4F873
:100550001CA00027C4F818A02A2E09D0304623F08A
:10056000AEF838B304EB8708303EC8F8186019E0DD
:1005700059F8041B204604EB87029161E168884723
:10058000012F064618D1E069002820DA25F0200561
:100590001DE0D8F8180000EB800006EB4000303872
:1005A000C8F818002046E1688847064623F087F817
:1005B0000028EED1012F0AD02E2E08D12046E16866
:1005C00088477F1C0646022F45F02005C4DBA06942
:1005D000002803DA404245F00105A061E80701D098
:1005E00025F01005A6B1A6F14100192802D8203641
:1005F00045F400654A463146204625604D46FFF7E2
:1006000023FE60B1012807D0ED1D25F0070000E0B2
:1006100007E000F1080978E705F1040975E73046BD
:100620007AE7206ABDE8F09FDE31020040EA01036C
:1006300010B59B070FD1042A0DD310C808C9121F8B
:100640009C42F8D020BA19BA884201D9012010BDC5
:100650004FF0FF3010BD1AB1D30703D0521C07E092
:10066000002010BD10F8013B11F8014B1B1B07D1F6
:1006700010F8013B11F8014B1B1B01D1921EF1D167
:10068000184610BD40EA0103024630B59B0710D161
:100690004FF0013400E008C208C91D1B9D4315EA54
:1006A000C41FF8D013F0FF0102F8011B0DD01B0A84
:1006B000F8E711F8013B002B02F8013B05D011F8D7
:1006C000013B002B02F8013BF3D130BD10B5431CB8
:1006D00002E010F8011B71B18107FAD14FF001322D
:1006E00002C88C1A8C4314EAC211F9D0C01A0A0647
:1006F00003D0C01E10BDC01A10BD0A0401D0801E58
:1007000010BD0902FCD0401E10BD02F0FF0343EAF9
:10071000032242EA024200F0FEB802F0FF0343EA7D
:10072000032242EA024200F002B84FF0000200B594
:10073000134694469646203922BFA0E80C50A0E804
:100740000C50B1F12001BFF4F7AF090728BFA0E8B2
:100750000C5048BF0CC05DF804EB890028BF40F87E
:10076000042B08BF704748BF20F8022B11F0804FC0
:1007700018BF00F8012B704730B44FF0013C50F81F
:10078000042B51F8043BCCFA52F4D51A20D1FCB911
:1007900050F8042B51F8043BCCFA52F4D51A17D177
:1007A000B4B950F8042B51F8043BCCFA52F4D51AE2
:1007B0000ED16CB950F8042B51F8043BCCFA52F42A
:1007C000D51A05D1002CDAD030BC4FF000007047AC
:1007D00029BAB1FA81F111F01801D1F12000844059
:1007E000F2D1CA40CB4012F0FF0213F0FF0330BC3D
:1007F000D01A70477047704770472DE9F0470D4693
:1008000099469246044600F124080168880604D5FA
:10081000E06921F01001216000E00120A84201DD23
:10082000471B00E00027A1697A1902EB0900081AAA
:10083000A0612078C00602D42046FFF7CFFD002635
:1008400008E0D4E901211AF806009047206A401C0C
:10085000761C20624E45F4DB2078C0060AD520467F
:10086000FFF7BCFD06E0D4E9012130209047206A63
:10087000401C2062381EA7F10107F4DC07E0D4E930
:10088000012118F805009047206A401C2062281EAC
:10089000A5F10105F3DC2046FFF7B6FD2078000640
:1008A00002D50220BDE8F0870120FBE701694A1C60
:1008B00002610878704700B58FB0CDE901310021A1
:1008C000059105497944CDE9031011466846FFF7C3
:1008D00011FE0FB000BD0000E5FFFFFF0A6802F83F
:1008E000010B0A60704710B5436913B1AFF3008084
:1008F00001E0FFF79AFD012010BD127800F12401FC
:100900000A7000224A700122EDE711684FF0FF32B1
:10091000E9E74FF000020429C0F0128010F0030C48
:100920003FF405AFCCF1040CBCF1020F18BF00F886
:10093000012BA8BF20F8022BA1EB0C01FFF7F7BE9B
:100940005FEAC17C24BF00F8012B00F8012B48BFEF
:1009500000F8012B7047754600F02CF8AE460500F4
:100960006946534620F00700854618B020B5FFF7CA
:1009700097FCBDE820404FF000064FF000074FF015
:1009800000084FF0000BAC46ACE8C009ACE8C00969
:10099000ACE8C009ACE8C00921F007018D467047FA
:1009A00010B50446AFF300802046BDE81040FFF7C5
:1009B00062BC0000004870479802002001491820DE
:1009C000ABBEFEE7260002007047FEE74B1E022B7F
:1009D0003CBF01380C3102EB41020423024490FB7E
:1009E000F3F301EB41011A446FF06303033190FB11
:1009F000F3F31A444FF4C87390FBF3F0104405224C
:100A000091FBF2F10844072190FBF1F1C1EBC10128
:100A1000401AC0B270470000014800F071B800BF32
:100A2000F09A0020014800F06BB800BF509B0020F6
:100A3000014800F065B800BF909A002001686FF08F
:100A40000F0240F2FF3352FA81F2994318235F2AD2
:100A5000B2FBF3F203A388BF043181659A5CC265DF
:100A60000846704700061016000610167047EFF390
:100A7000108072B6FEE70000002200F001B800000E
:100A800010B5844649F2A864C2F20004607A0028D6
:100A90001CBF012010BD94F809E0002004F80E00EE
:100AA000637A04EB8303C3F804C0637A23441A72A5
:100AB000627A531C6372C87042F63A73A1F801302F
:100AC00030320A7010BD000047F61021C1F6FF71E8
:100AD00008688A68801808BF7047B0B54C6840F253
:100AE0008C15C2F20005A91C082202F0C1F905F11B
:100AF000120120460422BDE8B04002F0B9B900005E
:100B0000F8B5044600200821009058480568D4E94B
:100B100016603768814039420CD0226813685B0741
:100B200008D5136823F004031360B160616D41F0D0
:100B30000101616501218140394208D02268526972
:100B4000120604D5B160616D41F0020161650421B6
:100B50008140394208D022681268920704D5B160FA
:100B6000616D41F00401616510218140394217D067
:100B700020680268120713D5B16002680168520349
:100B800006D4C9055EBF016821F00801016001E0DB
:100B9000080301D4216C00E0A16C09B1204688470C
:100BA000E16D202000FA01F23A423BD02068036850
:100BB000DB0637D5B26094F835300268052B19D1C1
:100BC00022F016020260426922F080024261226C29
:100BD0000AB9A26C1AB1026822F0080202603F2032
:100BE0008840B060002084F83400012084F835008B
:100BF000216D37E0016852030CD4C9050ED4016899
:100C000021F010010160002084F83400012084F8F4
:100C1000350003E0080301D4616C00E0E16B09B129
:100C200020468847606D00B3606DC00719D005216C
:100C30004FF4165084F83510B5FBF0F021680A68BF
:100C400022F001020A60009A01328242009202D828
:100C50000A68D207F7D1002084F83400012084F814
:100C60003500E16C09B120468847F8BDAC00002092
:100C70002DE9F041044600F083F9002C4FD00546E1
:100C8000002084F83400022084F8350021680868C8
:100C900020F00100086005E000F072F9401B052813
:100CA00040D821680868C007F6D10868394AD4E9F5
:100CB000013504F10C0800EA020C98E8C101D4E9FE
:100CC000072E43EA0C032B431843636A304338432F
:100CD000042B40EA080040EA020040EA0E0225D157
:100CE000D4E90BE042EA0E02BEF1000F40EA020036
:100CF000086051F8140FA26A20F0030040EA0200D5
:100D000040F0040C19D0B8F5005F28D0B8F1000FFE
:100D100035D1022A36D0012A2BD09AB30DE001201A
:100D2000BDE8F08103252023032013E00A6051F879
:100D3000140F20F0070040EA030C2046C1F800C061
:100D4000FFF77CFEE16D3F220023012502FA01F14D
:100D500081600020636584F83550BDE8F081032A86
:100D6000EBD8012540230120DFE802F0020C02034A
:100D7000F0E7AEF1C070B0FA80F0400904E0032A59
:100D800004D3DAD1CEF300600028D6D00125402369
:100D90000120DFE73F8010F0B0B5044600F0F0F826
:100DA00005469948611C007818BF044400F0E8F833
:100DB000401BA042FAD3B0BD2DE9FC4F614A072782
:100DC0004FF0010B4FF000094FF0000C4FF0000AFC
:100DD00090425D4A08BF042702444FEAB223042B25
:100DE00038BF4FEAB2270097BCF1200F08BFBDE81B
:100DF000FC8F0B680BFA0AF6334200F09B804B68BD
:100E000003F00308A8F10104012C17D80322856818
:100E100002FA0CF425EA0402CD686FEA040E05FA22
:100E20000CF515438560C3F3001505FA0AF2456811
:100E3000B54315434FEA4A0245600CE00325B8F17B
:100E4000030F624605FA0CF56FEA050E03D1624600
:100E50004FF0030821E0C4688D68B8F1020F04EA7E
:100E60000E0405FA02F544EA0504C46015D109F040
:100E70001C030F2404FA03F86FF0030404EA5A0574
:100E800005442C6A24EA08080C6904FA03F343EACF
:100E900008032B624B6803F00308046808FA02F5A4
:100EA00013F4403F04EA0E0445EA0405056041D00E
:100EB000002209F00C040192264A136843F480438F
:100EC00013601368214A03F48043174601932AF004
:100ED00003031344204A019D96469D580F22A240C9
:100EE00025EA0202009DA5402A4343F80E203A68F5
:100EF0004D6842EA0603EC0358BF22EA06033B6052
:100F0000AC037A6842EA060358BF22EA06037B6014
:100F1000EC02BA6842EA060358BF22EA06030C4A0A
:100F2000BB60AD021746126842EA060358BF22EAC8
:100F300006033B6009F104090CF1020C0AF1010AF5
:100F400052E700BF001002400000FEBF003C01401D
:100F50000C3C01404438024008FCFFFF0069084097
:100F600018BF01207047426902EA0103914341EA38
:100F7000034181617047002A08BF090481617047FD
:100F800005480068704700BF1F48034900780A6899
:100F900010440860704700BFA8B7002080B50B4818
:100FA000016841F400710160016841F480610160F1
:100FB000016841F480710160032000F071F80F2096
:100FC00000F006F800F024F8002080BD003C02404C
:100FD00070B50D4E04464FF47A713078B1FBF0F0E5
:100FE0000A490968B1FBF0F001F0A8FD01250F2CBA
:100FF00008D838B94FF0FF3021460022002500F014
:1010000031F87460284670BD00000020AC0000205C
:1010100082B000200B4901904A6842F480424A6045
:101020004A6802F480420192019A0090086840F0F8
:1010300080500860086800F080500090009802B06E
:10104000704700BF40380240002808DB00F01F0155
:101050000122400902FA01F1014A42F820107047CA
:1010600000E100E080B5144B1B68C3F3022CBCF117
:10107000030E8CF007034FF0FF3C38BF4FF0000E1B
:10108000042B28BF04230CFA03F399430CFA0EF344
:1010900001FA0EF19A431143BDE8804004F05ABFB3
:1010A00005494FF6FF030A681A4060F30A22034815
:1010B00010430860704700BF0CED00E00000FA0527
:1010C00070470068416200207047D0F800C00029D6
:1010D000DCF824001BD080B5DCF82830A1F1010E2B
:1010E00000EB1343002006E00CEB81010130D1F846
:1010F000041103EB1143C1B28E45F5D80CEB8E0001
:1011000043EA0241C0F80411BDE8804003E040EA30
:101110000240CCF82800002070470000D0F80404FA
:1011200003F0DCBCC1EBC10200EB8202926CD0F890
:10113000040403F049BC0000C1EBC10200EB8202D1
:10114000D2F80822D0F8040403F092BCD0F80404CA
:1011500003F0C6BC10B5044601F00F00090609D41F
:10116000C0EBC001002204EB810181F8FD2101F5F3
:10117000FE7107E0C0EBC001012204EB810181F8A0
:101180003D203C31087094F8BC03012804BF0220C4
:1011900010BD012084F8BC03206804F07DF9002014
:1011A00084F8BC0310BDB0B5044601F00F006268BE
:1011B000904201D9012524E0090609D4C0EBC00101
:1011C000002204EB810181F8FD2101F5FE7107E0A9
:1011D000C0EBC001012204EB810181F83D203C31CC
:1011E000002508708D7094F8BC03012801D10225F8
:1011F00007E0012084F8BC03206804F023FB84F896
:10120000BC532846B0BD10B5044690F8BC03012875
:1012100004BF022010BD01200A0684F8BC03206828
:1012200002D404F003FC03E001F00F0104F012FC0F
:10123000002084F8BC0310BD01F00F01C1EBC10117
:1012400000EB8100D0F81402704710B5044601F09D
:101250000F00090609D4C0EBC00104EB810C00218A
:101260008CF8FD110CF5FE7108E0C0EBC00104EB39
:10127000810C01218CF83D100CF13C018A60CB708F
:1012800008704A7802B1C880022B04BF00200871A0
:1012900094F8BC03012804BF022010BD012084F88B
:1012A000BC03206804F044F8002084F8BC0310BD9F
:1012B00080B501F00F0CCCEBCC0100EB810E0021CE
:1012C000CEE98431CEF808228EF8FD118EF8FCC1EB
:1012D0000EF5FE710369012B08BFCEF80C22DAB2BD
:1012E0000068BCF1000F02D004F0E0FA01E004F065
:1012F00005FA002080BDB0B50446406801F00F0536
:10130000854284BF0120B0BD080609D4C1EBC100ED
:10131000002104EB800080F8FD1100F5FE7108E06B
:10132000C5EBC500012104EB800080F83D1000F101
:101330003C0101200D70887094F8BC23012A04BF81
:101340000220B0BD84F8BC03206804F093FA2DB9E4
:10135000217C206804F5717204F048FA002084F8BA
:10136000BC03B0BD10B501F00F0C0024CCEBCC01D8
:1013700000EB810E714601F83CCFC1E90534012331
:10138000CA604B700369012B08BFCEF84C20DAB25B
:101390000068BCF1000F02D004F088FA01E004F00C
:1013A000ADF9002010BD00002DE9F04F87B00468B2
:1013B0008146204604F072FB10B107B0BDE8F08F03
:1013C000D9F8000004F096FB0028F6D0D9F8000008
:1013D00004F090FB0146D9F80000890742BF41693B
:1013E00001F00201416104F085FB0146D9F80000DB
:1013F0000494C9063FD5816921F010018161246AF6
:10140000C4F3434004F00F0506281CD002282BD15A
:1014100047F6F070044027D0C5EBC500220909EB60
:1014200080050498D5F8081204F068FBD5F8080286
:10143000D5F8141200EB1410C5F8080201EB1410D3
:10144000C5F8140210E0049809F57171082204F03F
:1014500055FBC5EBC50009EB8000D0F81412C4F3AE
:101460000A121144C0F81412D9F80000816941F041
:1014700010018161049C04F03DFB000340F1C28037
:10148000D9F8000004F015FB064609F5717009F55E
:10149000057A00254FF430680690002E00F0B280E7
:1014A000F00700F08C805FFA85FBD9F80000594600
:1014B00004F018FB0746C00748D004EB08000121E0
:1014C0008160D9F8000008EB0001036C8A68D9F844
:1014D0001040012C10D114071AD4940633D4049C64
:1014E00012F0280F32D1E44CA3426FD312F4004221
:1014F0006CD04FF4004027E0DF4CFF34A34212D100
:10150000049C10040BD4900644BF2020886015E092
:10151000D948049C834219D312F4004016D04FF4EA
:101520000040886012E0049CB8F5306F06D1D9F80D
:10153000101219B9069A002104F058F94846594684
:10154000FFF7FAFD02E020208860049C380723D5CD
:1015500004EB08000821C84B8160D9F80010013B5A
:101560000A6C08EB010081689A4212D9090444BF51
:101570004FF400418160484600F024FBD9F8100088
:10158000012809D1D9F80000069A012104F02EF9AA
:1015900002E0484600F016FBF80642BF04EB0800E4
:1015A00010218160B80642BF04EB08002021816051
:1015B000B80442BF04EB08004FF4005181600AF107
:1015C0001C0A08F120087608013566E75AE9042369
:1015D0000969B8F5306F6FF3DF41A2EB0101CAF87A
:1015E000001003EB02014AF80C1C06D1D9F81012C6
:1015F00019B9069A012104F0F9F848465946FFF74F
:101600009BFDA2E7D9F8000004F074FA400340F112
:10161000B480D9F8000004F045FA064609F5717067
:1016200004F51067002301900297A3E0F00700F093
:101630009F80D9F80000D9B20593069104F040FAD2
:101640000546C00729D0059B0122D4F8341803F0C1
:101650000F0002FA00F021EA0000C4F8340807EB9A
:1016600043108260D9F81000012812D1C3EBC300E7
:10167000002B09EB8000D0E911121144816408D1DC
:10168000D9F8500028B9D9F80000019A012104F0D6
:10169000ADF806994846FFF745FD2807059B42BF70
:1016A00007EB431008218160E80642BF07EB4310B7
:1016B00010218160680642BF07EB43104021816022
:1016C000A80742BF07EB43100221816028064FD5CF
:1016D000C3EBC30009EB800AD3465BF8500FD84632
:1016E00058F8042F904243D3D9F800505AF8441FB9
:1016F000841A03964F468C4288BF0C4605EB431173
:101700000AF1040601F5106917E03C7CDAF80030B4
:1017100031680094841A28469C4288BF1C46069A69
:10172000A3B204F0C5FA306820443060D8F8000055
:101730000219C8F80020DBF80000D9F81830E11CC5
:101740009BB2B3EB910F28BF9042DED8B946DDE9DA
:101750000276DDE9044390420AD803F00F0001212C
:1017600001FA00F0D5F8341821EA0000C5F8340871
:1017700076080133002E7FF459AFD9F8000004F049
:10178000B9F9002802DBD9F800001AE0D4F80408FF
:1017900020F00100C4F8040899F8F403012807D1E7
:1017A0000020002189F8F4034846FFF789FC02E095
:1017B000484600F0EBF9D9F80000416901F000411A
:1017C000416104F097F9000502D4D9F800000CE05B
:1017D000D4F80808C00702D0484600F019FAD9F832
:1017E0000000416901F40061416104F083F9C00423
:1017F00002D4D9F800005EE0D4F80408102120F0EB
:101800000100C4F80408D9F8000004F023F9D9F85D
:10181000042004F5106104F500604FF67F3318E0F2
:101820008B60013A0F6827F400170F600F6847F0CC
:1018300000670F60C1F80832D1F8007227F4001772
:10184000C1F80072D1F8007247F00067C1F8007269
:101850002031002AE4D1C16941F00111C161D9F8F8
:10186000301059B1D0F8841041F00B01C0F8841049
:1018700000F1440109E000BF0B30544F416942F2CE
:101880002B021143416100F110010A6842F00B0282
:101890000A6009F57172016821F4FE61016099F82E
:1018A0001010D9F8000003F0A1FFD9F80000416939
:1018B00001F48051416104F01DF90146D9F800009E
:1018C00089041AD503F07AFDD9F8000004F0D8F89D
:1018D000C9F80C00D9F8005000F0DEFA99F80C2095
:1018E0000146284604F06CF9484600F03DF9D9F865
:1018F0000000416901F40051416104F0FBF8000768
:1019000002D4D9F8000008E0484600F043F9D9F8BD
:101910000000416901F00801416104F0EBF8C002E8
:1019200002D4D9F8000009E04846002100F03AF856
:10193000D9F80000416901F48011416104F0DAF83E
:10194000800202D4D9F8000009E04846002100F0E6
:101950002DF8D9F80000416901F40011416104F04B
:10196000C9F8400002D4D9F8000008E04846FFF763
:10197000D5FBD9F80000416901F08041416104F0D4
:10198000B9F840077FF519ADD9F800004468610740
:1019900004D54846FFF7DAFBD9F800004168214337
:1019A00041600AE5D0F8040403F000B9D0F804045B
:1019B00003F00EB92DE9F04F8BB0002800F08080C5
:1019C0000446056890F8BD0328B9002084F8BC03DC
:1019D000204600F085F8032084F8BD03E86BC005BD
:1019E0005CBF00202061206803F082FE206804F1C3
:1019F000040E04F11C0A0A909EE80E589AE8C007EB
:101A0000D4E90C50CDE9085003A88DE8005880E8CF
:101A1000C0070A9803F0E2FC00284ED1206800219C
:101A2000002504F08CF86168012000220FE0C3EB70
:101A3000C30704EB8707A7F8423087F83C2087F8F4
:101A40003D003D65C7E9115587F83F500132D3B2DB
:101A50009942ECD8002000220EE0C3EBC30304EB54
:101A60008303C3F81002C3E9810083F8FF0183F800
:101A7000FC2183F8FD010132D3B29942EDD8A06870
:101A800004F1140E04F1240A22680A90D4E9033701
:101A90009EE840589AE80007D4E90C50CDE9085078
:101AA00002A8CDE9007680E8005805A880E8000784
:101AB00010460A9A03F052FD38B1022084F8BD03A3
:101AC000012528460BB0BDE8F08F0025012084F8E1
:101AD000385084F8BD03206803F032FDF1E70000C0
:101AE000B0B586B000240594CDE90344CDE90144A6
:101AF0000068B0F1A04F01D006B0B0BD009443F62D
:101B00003005C4F20205286840F00100286028680A
:101B100000F00100009000980A2005900320CDE914
:101B20000340022002904FF4C05001900020C4F204
:101B3000020001A9FFF740F9686840F08000686082
:101B40000094686940F480406861686900F48040EE
:101B500000900098432000210022FFF783FA4320E1
:101B6000FFF772FA06B0B0BD10B50446C06802288F
:101B700018BFFEF77CFFD4F80404012103F09EF89F
:101B8000D4F80404BDE8104003F04AB8D0F80404C7
:101B900003F078B8D0F8040403F07EB810B504461A
:101BA00090F8BC03012804BF022010BD012084F876
:101BB000381084F8BC03206803F0F2FF002084F89A
:101BC000BC0310BDD0F8042400F57171104603F079
:101BD00083B810B5044690F8BC03012804BF022066
:101BE00010BD0121206884F8BC13A16A012906D127
:101BF000A16901291EBF816B41F48031816303F02B
:101C00000FFF206803F08EFC002084F8BC0310BD99
:101C100010B50446D0F8040403F0A2F82068D0F808
:101C2000001E41F00101C0F8001E206A002808BF14
:101C300010BD4EF61050CEF20000016841F00601D2
:101C4000016010BDF8B50446006810F0050F25D0FE
:101C5000424F00208D4E3860FFF792F905463068FC
:101C6000000105D5FFF78CF9401B0228F7D933E0B6
:101C7000D4E90101090741EA8010C6F88400012077
:101C80003860FFF77DF905463068000105D4FFF79D
:101C900077F9401B0228F7D91EE02068810754D548
:101CA00000207A4E2E4F0090306C40F0805030640F
:101CB000306C00F0805000900098386840F48070DC
:101CC0003860FFF75DF905463868C00506D4FFF7B0
:101CD00057F9401B0228F7D903203DE0306F10F47C
:101CE00040701FD0E16801F4407188421AD0306F13
:101CF0001C4901220A60002220F440700A6030670B
:101D0000306FC0070ED0FFF73BF9054641F2883728
:101D1000306F800706D4FFF733F9411B0320B94227
:101D2000F6D919E0E068B2680F4900F4407322F474
:101D3000F81201406FF31F30B3F5407F08BF0A432C
:101D4000B260316F084330672068000742BF207CD3
:101D50000449C1F8A003002001B0F0BD680047426B
:101D600000700040400E4742FFFCFF0F2DE9F0419C
:101D7000002800F08780454B04468846D3F80004CD
:101D800000F00700884207D283F80084D3F80004EB
:101D900000F00700404575D12068810711D5410743
:101DA00042BF996841F4E0519960010742BF9968C8
:101DB00041F4604199609968A26821F0F0011143F3
:101DC0009960C0072CD06068811E022903D219686F
:101DD000890109D456E0012803D11968890303D485
:101DE00050E0196889074DD599681D4621F0030117
:101DF00008439860FFF7C4F8064641F2883707E0C9
:101E0000FFF7BEF8801BB84284BF0320BDE8F08115
:101E1000A86861682B4600F00C00B0EB810FEFD191
:101E2000D3F8000400F00700404507D983F8008488
:101E3000D3F8000400F00700404523D12068410793
:101E400005D59968E26821F4E051114399600007D3
:101E500006D59868216920F4604040EAC100986086
:101E60001C4600F01FF8A168094AC1F30311515C38
:101E7000C8400B49086007480068FFF7A9F8002030
:101E8000BDE8F0810120BDE8F08100BF00380240CC
:101E9000F73602080400002001480068704700BFC0
:101EA000AC00002010B5134C606800F00C0008284E
:101EB00004D0042814BF1048104810BD22682068C0
:101EC0000023400202F03F020C485CBF42F2004097
:101ED000C0F2F4002168C1F38811A0FB0101FEF7F4
:101EE000F1F921680222C1F3014102EB4101B0FB8B
:101EF000F1F010BD043802400024F40040787D0168
:101F00002DE9FC41002800F03E8104460078BF4ED8
:101F1000C00743D0B06800F00C00042805D1306839
:101F200080033BD56068C8BB2DE1B06800F00C00B1
:101F3000082802D170684002F1D46768B7F5803F85
:101F400006D03068B7F5A02F12D140F48020306061
:101F5000306840F480303060FFF712F80546306892
:101F600080031BD4FFF70CF8401B6428F7D9ABE0C3
:101F700020F480303060306820F480203060FEF73C
:101F8000FFFF0546002FEAD13068800306D5FEF733
:101F9000F7FF411B03206429F6D9F5E0207880077C
:101FA0002BD5B06810F00C0F07D0B06800F00C0013
:101FB000082809D17068400206D43068800715D51A
:101FC000E068012812D0DEE0E06800287ED090486A
:101FD00001210160FEF7D4FF05463068800705D473
:101FE000FEF7CEFF401B0228F7D96DE0306821696B
:101FF00020F0F80040EAC10030602078000720D5CA
:102000006169834871B10121C0F8801EFEF7B8FFF5
:102010000546706F800714D4FEF7B2FF401B0228FC
:10202000F7D951E00021C0F8801EFEF7A9FF054650
:10203000706F800705D5FEF7A3FF401B0228F7D974
:1020400042E02078400771D5306C4FF00008C000A6
:102050000CD4CDF804804FF00108306C40F0805073
:102060003064306C00F0805001900198694F3868FE
:10207000C0050FD4386840F480703860FEF780FFE8
:1020800005463868C00505D4FEF77AFF401B0228D4
:10209000F7D919E0A768012F05D0306F052F26D199
:1020A00040F004003067306F40F001003067FEF709
:1020B00067FF054641F28837306F80072FD4FEF75F
:1020C0005FFF401BB842F7D903205DE05048002174
:1020D0000160FEF755FF0546306880077FF58DAF3C
:1020E000FEF74EFF411B03200229F5D94CE020F0FA
:1020F00001003067306F20F004003067FEF740FFCA
:102100000546002FD6D141F28837306F800706D5BB
:10211000FEF736FF411B0320B942F6D934E0B8F18F
:10212000000F1EBF306C20F080503064A769002F74
:102130006AD0B06800F00C00082828D1012F22D006
:102140007068E16900F480028A421CD1216A00F0C3
:102150003F028A4217D147F6C071626A0140B1EB73
:10216000821F10D1A16A4FF6FF72C903914300F498
:102170004032A1F580318A4205D1E16A00F07060F9
:10218000B0EB016F40D0012002B0BDE8F0812049E2
:10219000002088460866FEF7F3FE0546022F09D1A7
:1021A0003068800110D5FEF7EBFE411B03200229A9
:1021B000F6D9E9E73068800126D5FEF7E1FE411B3C
:1021C00003200229F6D9DFE704F11C078FCF08436B
:1021D000D90340EA82104FF6FF72914340EA07604C
:1021E000A1F58031084370600120C8F86000FEF757
:1021F000C7FE04463068800106D4FEF7C1FE011B0D
:1022000003200229F6D9BFE70020BDE700380240CD
:10221000000047420070004010B50068002A406886
:1022200000F03F034FEA104C8B70C0F3042E81F88E
:1022300001E081F803C0C0F342340C701AD11B09CD
:1022400000F00F04020A43EA830302F00F0204EBDA
:1022500043038B704FEA1E1343EA830302EB4302EE
:102260004A70C0F303500CF00F0200EB800002EB49
:102270004000C870002010BD10B50068002A836AB5
:102280004B6003696FF3DF338B6003684FF04000EE
:1022900000EA1340C87003F07F008870C3F3062E75
:1022A00081F801E0C3F3054C81F800C01BD100099F
:1022B0001A0A1C0C03F00F0300EB800003EB400034
:1022C000887002F00F004FEA1E1202EB820200EB50
:1022D00042004FEA1C12487004F00F0042EA8202EA
:1022E00000EB42000870002010BD0000B8B110B52E
:1022F0000446407F20B900202077204600F042F8B5
:102300000220CA2160772068416253214162204641
:1023100001F02DFA216820B1012004222BE00120D8
:1023200070478868164A104088606068D4E90423C2
:1023300010438A68184310438860E0680861A06809
:102340000A6942EA00400861C86820F08000C8605D
:102350008868800605D4204600F0FEF82168002831
:10236000DAD1086C20F480200864A0690A6C10435C
:10237000012208640020FF234B62627710BD00BF7A
:10238000BFFF8FFF10B586B0044601A81421FEF7E9
:10239000CCF92068094988420DD14FF4807004902F
:1023A0000220019001A8FFF74DFC08B1FEF75FFB8A
:1023B00003480121016006B010BD00BF00280040A5
:1023C0003C0E47422DE9F0410D46017F04460220B4
:1023D000012908BFBDE8F08160770120002A20773D
:1023E00006D06878E978AE78000240EA014714E048
:1023F0006F78DFF85C81F80642BF07F0EF0000F16C
:102400000A076F70E878C0470646F8B2C047000276
:1024100040EA0647A878C04706462068CA212D78BA
:10242000416253214162204601F0A1F918B12168AF
:102430000120042216E047EA0600216820F0C000CF
:1024400040EA45304860C86820F08000C86088686D
:10245000800605D4204600F07FF821680028E7D1E7
:1024600000200122FF234B62002121776277BDE823
:10247000F08100BF2DE9F0470D46017F04460220A0
:10248000012908BFBDE8F08760770120002A207786
:102490002768B86800F040000FD0002807BF4FF051
:1024A000000885F80380E8784FEA004869782878C2
:1024B000AE78090241EA004915E0002807BF4FF055
:1024C000000885F80380E8784FEA0048DFF880A02C
:1024D0002878D04706466878D047000240EA064987
:1024E000A878D0470646CA207862532078622046F2
:1024F00001F03DF918B121680120042220E049EAE9
:102500000600144940EA080008402168086088680D
:1025100020F480208860D5E903028B6810431843BB
:102520008860C86820F08000C8608868800605D48C
:10253000204600F011F821680028DDD1002001229A
:10254000FF234B62002121776277BDE8F08700BF4F
:10255000433700087F7F7F00B0B504460068C1683C
:1025600021F0A001C160FEF70BFD05462068C068A0
:10257000800644BF0020B0BDFEF702FD401BB0F551
:102580007A7F84BF0320B0BDF0E770B550B1D0F8BA
:1025900024C00446BCF1000F06D00021216104F1E3
:1025A000140107E0012550E06168B1F5827F03D096
:1025B00004F11C0100220A6000254FF0000EA56204
:1025C00094F8511041B9204684F8505000F040F87A
:1025D000D4E909C101F4005E022284F85120226886
:1025E000136823F040031360D4E90130D4E90316E3
:1025F00003F4827300F4044001F4006118440844B9
:1026000006F002010844616901F001010844A16972
:1026100001F400731844E36903F038031844236A93
:1026200003F08003184340EA0E001060042000EA23
:1026300011400CF0100108445060D06920F4006093
:10264000D0610120656584F85100284670BD000006
:102650002DE9F04F87B0044602A81421FEF765F873
:1026600020685949884259D05849884240F0A98089
:1026700000275748574D02AE4FF005094FF0030AA7
:102680004FF0020B4FF040080197416941F480512F
:102690004161416901F480510191019901970168FB
:1026A00041F001010160016801F00101019101990E
:1026B0000197016841F0020101603146006800F0B5
:1026C000020001900198CDF81890CDE9047ACDF878
:1026D0000CB0CDF80880A5F58060FEF76DFB2820D2
:1026E000CDE905A9CDE903B7314602902846FEF7AA
:1026F00063FB3A4A3B4D4FF480304FF0C061C5E96F
:10270000080702F580624FF48060C5E90021C5E941
:102710000287C5E90407C5E906774AE000272C4887
:102720000197016941F480410161016901F480412F
:10273000019101990197016841F00201016002A92C
:10274000006800F002000190019805200690032027
:10275000CDE90470022003904FF4604002901D48C0
:10276000FEF72AFB1D481C4E4FF480681421C6E971
:102770000007814606F11400C6E90277C6F810800A
:10278000FDF7D3FF3046FEF773FA08B1FEF76FF995
:10279000134D09F11801E6644020C5E9001705F161
:1027A000080181E8810105F114001421B463FDF7EB
:1027B000BCFF2846FEF75CFA08B1FEF758F9A5649D
:1027C000AC6307B0BDE8F08F003800400030014036
:1027D0003038024000040240F09A00205860024065
:1027E000509B0020909A00202DE9F843044690F871
:1027F0005000012801D10220A8E04FF001091D4638
:1028000016460F4684F85090FEF7BAFB804694F8BF
:102810005100012858D10120002F00F09280002E95
:1028200000F08F80032084F8510000206065E68668
:10283000A6862763A087A063C4E91000E087A1688B
:102840002068B1F5004F07D1016821F04001016017
:10285000016841F480410160016849065EBF01687A
:1028600041F0400101606268711EE368B1FA81F1D4
:10287000B2FA82F24909B3F5006F4FEA521241EA07
:10288000020123D131B137F8021BC1602763E08E0A
:102890000138E0866E1C13E020688168890707D440
:1028A000FEF76EFB66B1A0EB0800A84208D347E034
:1028B000216B31F8022BC2602163E08E0138E08683
:1028C000E08E0028E8D124E002203AE039B13978DE
:1028D0000173206B01302063E08E0138E0866E1CAE
:1028E00014E020688168890707D4FEF749FB6EB1C0
:1028F000A0EB0800A84209D322E0216B09780173FC
:10290000206B01302063E08E0138E086E08E0028E5
:10291000E7D120462946424601F08EFC08B120202E
:102920006065A06838B9002000902068C1680091F7
:10293000806800900098606D002818BF012000E0BA
:102940000320002184F8501084F8519001B0BDE8B4
:10295000F0832DE9F843044690F85000012801D196
:102960000220C7E001201E4615460F4684F850009D
:10297000FEF706FB94F85110814601296BD1012026
:10298000002F00F0B180002D00F0AE80002E00F08E
:10299000AB8094F85100DDF8208004281CBF05208E
:1029A00084F8510000206065E687A563A687276349
:1029B000C4E91000A686E6862068016849065EBF65
:1029C000016841F0400101606268711EE368B1FA7C
:1029D00081F1B2FA82F24909B3F5006F4FEA52125F
:1029E00041EA020145D131B137F8021BC1602763CA
:1029F000E08E0138E086012608F10105E08E10B96D
:102A0000E08F002879D02068816889070CD5E18E95
:102A1000012E09D141B1216B002631F8022BC26091
:102A20002163E18E0139E1868168C9070AD0E18F0F
:102A300041B1C068A16B012621F8020BA163E08FB0
:102A40000138E087FEF79CFA002DD7D0A0EB0900F3
:102A50004045D3D347E06068B0F5827F07D10220BC
:102A6000042941D1A16800293FF489AF3CE002204C
:102A70003AE039B139780173206B01302063E08E80
:102A80000138E086012608F10105E08E08B9E08FE3
:102A900098B32068816889070ED5E18E012E0BD18D
:102AA00051B1216B002609780173216B2068013137
:102AB0002163E18E0139E1868168C9070BD0E18F7E
:102AC00049B1C068A16B01260870A06B0130A063FA
:102AD000E08F0138E087FEF753FA002DD5D0A0EB48
:102AE00009004045D1D30320002184F85010012172
:102AF00084F8511001B0BDE8F083204641464A46B3
:102B000001F09AFB18B1202060650120ECE7A16874
:102B100000200029E8D100902168CA6800928968E5
:102B200000910099E0E700000C4904280A6822F0AF
:102B3000040308BF42F004030B607047411E0020ED
:102B4000B0EB116F1CBF01207047044AF0235160A5
:102B500003490B70072190601160704710E000E09E
:102B600023ED00E07047704740B310B5044690F87D
:102B70003D0028B9002084F83C00204600F020F8F1
:102B80000220211D84F83D00206801F0F9FC01209D
:102B900084F8460084F83E0084F83F0084F8400042
:102BA00084F8410084F8420084F8430084F844002B
:102BB00084F8450084F83D00002010BD01207047D6
:102BC00000680D49884218BF7047E0B50020002218
:102BD00001900A48016841F4003101600121006858
:102BE00000F40030019001981920FEF73BFA1920FB
:102BF000BDE88C40FEF728BA00440140443802404A
:102C000090F83D1001291CBF01207047022180F877
:102C10003D100068C168B0F1804F41F00101C16012
:102C20000ED00D4988420BD00C49884208D00C497F
:102C3000884205D00B49884202D00B49884204D112
:102C4000816801F00701062903D0016841F0010104
:102C500001600020704700BF0004004000080040F1
:102C6000000C00400040014000000140704710B5DA
:102C7000044600680169890744BFC1685FEA817141
:102C800038D40169490744BFC1685FEA41713DD446
:102C90000169090744BFC1685FEA017143D4016952
:102CA000C90644BFC1685FEAC16148D40169C90768
:102CB0001CBFC1685FEAC1714ED10169090644BFFA
:102CC000C1685FEA01614FD40169490644BFC16828
:102CD0005FEA416150D40169890646BFC1685FEA75
:102CE000816110BD6FF0200101612046BDE81040F8
:102CF000FFF739BF6FF0020101610121217780697F
:102D0000800741D02046FFF7B1FF43E06FF0040198
:102D1000016102212177806910F4407F3ED0204676
:102D2000FFF7A4FF40E06FF0080101610421217763
:102D3000C06980073CD02046FFF798FF3EE06FF067
:102D40001001016108212177C06910F4407F39D05A
:102D50002046FFF78BFF3BE06FF001010161204649
:102D600000F03CF82068A8E76FF080010161204680
:102D7000FFF7F8FE2068A7E76FF0400101612046E9
:102D800000F074F82068A6E7204600F025F82046F9
:102D900000F023F800202077206872E7204600F03A
:102DA0001BF8204600F019F80020207720686FE714
:102DB000204600F011F8204600F00FF800202077A0
:102DC00020686CE7204600F007F8204600F005F880
:102DD00000202077206869E770477047B0B5214D23
:102DE00005F12401884218BFB0BD01201DF01AFF73
:102DF00028880130288080B2B0F57A7F18D1002071
:102E00002880297A01312972C9B23C2917D1287248
:102E1000687A01306872C0B23C2810D10020687214
:102E2000A97A0131A972C9B2182908BFA87206E0AF
:102E30006421B0FBF1F202FB110000B1B0BD0A4CFD
:102E400005F1100100222046FFF716FAA91C2046C2
:102E50000022FFF7E1F93E484FF48061BDE8B04041
:102E6000FEF781B8F8020020B89F00207047FEE707
:102E700010B5002A08BF10BD01314FF0000C4FF013
:102E8000370E00BF81F800C00EEB1073040FB0F1D5
:102E9000204F38BF04F1300301F8013C013A01F141
:102EA00002014FEA0010EDD110BD00002DE9F843FA
:102EB000DFF8C49107462A20984615460E46C847B3
:102EC000094C3846A0472846A0472B20C84706F1A2
:102ED000500080B2A04708F1500080B2A0472C20DB
:102EE0004946BDE8F8430847813000082DE9F84F0E
:102EF000984615468A468146FFF7D8FF7749086805
:102F00008B4620F0400008600A98040AC7B20DE022
:102F10004E4606E0204601F075F9384601F072F998
:102F20000136B0B2A842F5D90AF1010A1FFA8AF0B7
:102F30004045EDD9DBF8000040F04000CBF8000040
:102F4000BDE8F88F02484FF450710122FEF713B824
:102F50000004024070B5FFF7F5FF604C454E206855
:102F600020F400702060C820B047206840F4007052
:102F70002060C820B047C820B0473F4C1120A04770
:102F8000DC20B0473620A0473C4DC020A8473A205F
:102F9000A0470520A847B220A0470C20A8470C2036
:102FA000A8470020A8473320A8473320A847B720C8
:102FB000A0473520A847BB20A0473220A847C22001
:102FC000A0470120A847C320A0471520A847C42038
:102FD000A0472020A847C620A0470F20A847D02000
:102FE000A047A420A847A120A847E020A047D020C0
:102FF000A8470820A8470E20A8470920A84709206D
:10300000A8470520A8473120A8473320A8474820D3
:10301000A8471720A8471420A8471520A847312003
:10302000A8473420A847E120A047D020A84708207F
:10303000A8470E20A8470920A8470920A84715201F
:10304000A8473120A8473320A8474820A847172081
:10305000A8471420A8471520A8473120A8473420A6
:10306000A8472120A0472920A04764203146BDE879
:1030700070400847990D000895300008B1300008ED
:1030800010B50446000A00F013F8E0B2BDE81040A5
:1030900000F00EB810B5114C216821F48071216048
:1030A00000F006F8206840F48070206010BD00BF7A
:1030B0001CB50A4C8DF807000DF1070101224FF6EF
:1030C000FF73206820F0400020600548FFF78CFB6C
:1030D000206840F0400020601CBD00BF1404024086
:1030E000D89F0020B0B5D0F8BC52002D08BFB0BDAD
:1030F000044641F21C00285C88B12046812101F081
:103100001BFE687A022809D12046812101F014FEB5
:1031100020460121BDE8B04001F00EBEB0BD41F235
:10312000180028580028E8D0687A0028E5D1204601
:10313000012101F001FEE0E7B0B5D0F8BC52ADB31B
:10314000044641F21400285841F23401685041F21B
:103150001800285841F2380168502046012101F03A
:10316000D7FC1F2813D141F21000285845F25531E1
:10317000C4F2423188420AD141F21D00295C012982
:1031800005D841F21E00285C013810280FD341F207
:103190001D00295C20460522202300F0A7FE022006
:1031A00068722046BDE8B040FFF79CBFB0BD41F259
:1031B0001F002A18204600F08DFB297AB0F1FF3F4E
:1031C0000CDD481E032838BFB0BDEA6872B105F1B6
:1031D00010012046BDE8B04000F0E6B80529E0D176
:1031E00020460121BDE8B04000F0BAB820460021D9
:1031F000BDE8B04000F0B4B810B50446D0F8BC0249
:10320000C8B1407A022809D12046812101F094FDFD
:1032100020460121BDE8104001F08EBD49B2B1F158
:10322000FF3FC8BF10BD012805D020460121BDE8E1
:10323000104000F095B810BD10B50446D0F8BC029F
:10324000F0B1017ACA1E022A05D220460021BDE84B
:10325000104000F085B8022912D141F21D01415CF5
:1032600041F21F020244204600F034FBB0F1FF3F60
:10327000C8BF10BD20460121BDE8104000F070B865
:1032800010BD000010B50446D0F8BC02B0B1017A00
:10329000012907D0002918BF10BD2046BDE8104005
:1032A000FFF74ABF41F21D01415C41F21F02024497
:1032B000204600F00FFBB0F1FF3F00DD10BD2046BF
:1032C0000121BDE8104000F04BB80000D0F8BC026E
:1032D00000281CBF0021017270470000B0B5D0F873
:1032E000BC52002D08BFB0BD044641F2620000216F
:1032F00029544FF4835029522981D4F8C00201681F
:10330000002088472046012101F0F8FB204681215A
:1033100001F0F4FB41F210002A18204601211F237E
:10332000BDE8B04001F072BCB0B5D0F8BC52002D81
:1033300008BFB0BD04464FF480702881204681212B
:1033400001F02EFB2046012101F02AFB41F2100082
:103350002A18204601211F23BDE8B04001F056BCC9
:10336000B0B5D0F8BC52002D08BFB0BD044641F244
:103370003C00295441F2300045F25531C5F242314A
:103380002950002129722A18204681210D2301F09D
:10339000F1FC41F210002A18204601211F23BDE84C
:1033A000B04001F033BC00008C46D0F8BC120029BC
:1033B00008BF704710B5134641F218028A5841F20F
:1033C0003C0E002401F80E4041F2380E51F80E4038
:1033D000E41A41F80E4004240C729A4238BF134696
:1033E00081216246BDE8104001F0C4BCBCB500209C
:1033F0006149154C01900A6842F480020A600A682B
:1034000002F480020192019A00900868002240F4C0
:10341000001008600868042100F400100090009873
:103420000E20A047094D0E20A8470F20042100229E
:10343000A0470F20A8473B2004210022A0473B20A3
:103440002946BDE8BC40084765100008491000083F
:1034500080B540F29400C2F2000041F29C71C2F2C9
:103460000001FDF709FB4BF2B431C2F20001087014
:1034700080BD00002DE9F04F87B000273E480022B4
:10348000CDE905770197016841F004010160016809
:1034900001F00401019101990197016841F0800157
:1034A0000160016801F080010191019901970168B3
:1034B00041F001010160016801F0010101910199F0
:1034C0000197016841F0020101604FF4A0510068CA
:1034D00000F0020001900198284800F580648346BE
:1034E0002046FDF748FD20464FF470710122012669
:1034F000FDF741FD02AD4FF40050DFF88480CDE9C7
:10350000037602900BF500602946C04748F282001E
:10351000CDE90376294602905846C04707204FF070
:1035200003094FF0020A294606900C20CDE90479E0
:1035300002905846CDF80CA0C0474FF48060059724
:10354000CDE90367294602902046C0474FF49A50C0
:10355000CDF81490CDE90366294602902046C04775
:1035600080200596CDE9036A294602902046C0478F
:1035700007B0BDE8F08F00BF3038024000000240C5
:10358000B90D000810B586B001A81421FDF7CDF8DB
:103590001648174B0024FF217F22C0E90034C0E900
:1035A0000221C0E9044484610094FEF79FFE08B143
:1035B000FDF75DFA45F62310CDE904448DF8064089
:1035C00001A90122ADF804000848FEF753FF08B135
:1035D000FDF74DFA07486946012200900348FEF7BF
:1035E000F1FE08B1FDF743FA06B010BDB89F002008
:1035F000002800400101012280B50F4800230F4A36
:103600000A214FF4827C4FF0080EC0E90833C0E96C
:103610000A314FF40071C0E9002CC0E90233C0E95F
:103620000433C0E9061EFEF7B0FF002814BFBDE852
:10363000804080BDFDF71BBAD89F002000300140BC
:1036400080B50E480E4A4FF4827100234FF4007C7F
:10365000C0E900210A21C0E90233C0E90433C0E90E
:1036600006C3C0E90833C0E90A31FEF78EFF00281F
:1036700014BFBDE8804080BDFDF7F9B930A000203F
:103680000038004080B50B480B4940F2E732472331
:1036900040F8241F802181610021C0E90131C0E987
:1036A0000321FFF761FA002814BFBDE8804080BD08
:1036B000FDF7DDB9F80200200044014080B549F271
:1036C000C070C2F2000040F23801C2F200010022D4
:1036D00001F050F9002818BFFDF7C9F949F2C07090
:1036E000C2F2000040F2C801C2F2000101F054FC35
:1036F000002818BFFDF7BBF949F2C070C2F2000004
:1037000040F26C11C2F2000101F0BCFB002818BFAE
:10371000FDF7ADF949F2C070C2F2000001F0E4FC1F
:10372000002814BFBDE8804080BDFDF7A0B9FEE7CA
:10373000FEE700000148FDF737BE00BFB09B002048
:103740007047014609284FF00A0328BF0921C943E1
:1037500001440A31CAB2B2FBF3F202EB8203A1EBDD
:103760004303591A084440EA0210C0B27047B0B58A
:1037700004460068C168490612D44FF0FF31C160A9
:10378000FDF7FEFB054607E0FDF7FAFB401BB0F531
:103790007A7F84BF0320B0BD2068C0684006F3D59F
:1037A0000020B0BDD0F8BC0250B10979002918BF83
:1037B000012141F2620281540021C16048B2704788
:1037C000FF2148B270470000D0F8BCC2BCF1000F26
:1037D00014D041F268015CF801101A448A429EBF7D
:1037E000002040B2704780B500210522212300F05F
:1037F0007DFBFF20BDE8804040B27047FF2040B213
:103800007047000080B58446D0F8BC0298B341F2FE
:103810001803C35883B15378DB0712D1DCF8C032E8
:10382000DB6901EBC10103EB81010B7905331279EF
:103830009A4288BF1A4613E06046002105222023E1
:1038400017E09178802906D079B940F28601C2F25A
:103850000001062204E040F28C01C2F200010822BD
:1038600000F0C0FB002040B280BD60460021052270
:10387000242300F03BFBFF2040B280BDD0F8BC0207
:1038800078B180B50A7A1B2A28BF1B2240F2540166
:10389000C2F2000100F0A6FB0020BDE8804040B26B
:1038A0007047FF2040B27047D0F8BC0278B180B5B5
:1038B0000A79172A28BF172240F26F01C2F20001CD
:1038C00000F090FB0020BDE8804040B27047FF2030
:1038D00040B27047B0B5D0F8BC52002D00F08480E3
:1038E00013789D2B00F337805A2B00F27680DFE8A7
:1038F00003F02E74743C74747474747474747474FB
:10390000747474744174747474747474454A747403
:103910004E7474747453745774745B745F747474F9
:103920007463747474747474747474747474747468
:103930007474747474747474747474747474747447
:103940007474747474747474747474746700BDE8FB
:10395000B04000F01DBB9E2B37D0A82B39D0AA2B2E
:103960003BD1BDE8B04000F0DDBB1146BDE8B04042
:1039700000F070BABDE8B040FFF744BF1146BDE8A3
:10398000B040FFF791BFBDE8B04000F0D1BA11469A
:10399000BDE8B040FFF706BFBDE8B04000F022BA76
:1039A000BDE8B04000F0A6B9BDE8B04000F0DAB81C
:1039B000BDE8B04000F048BBBDE8B04000F026BB19
:1039C0001146BDE8B040FFF759BFBDE8B04000F078
:1039D000C3B9BDE8B04000F029B900210522202379
:1039E00000F084FA022068724FF0FF30B0BD000092
:1039F0002DE9F04F81B0D0F8BC72002F43D00546BE
:103A000041F2640A37F80A0041F2700B57F80B20B4
:103A100002FB00F441F26C02BA58B4F5805F28BF93
:103A20004FF480541FFA84F8B8FBF0F3D5F8C002C5
:103A3000066907F1100908464946B047B0F1FF3F53
:103A400023DDBA44BB4441F26C003E182846812174
:103A50004A46234601F08EF9BAF80000B8FBF0F0B0
:103A6000316801443160DBF80010081ACBF800001F
:103A700041F238003958A1EB0401395004BF03204A
:103A80003872002008E0FF2006E0284600210422CA
:103A9000112300F02BFAFF2040B201B0BDE8F08FF7
:103AA0002DE9F04F81B0D0F8BC62002E46D004461C
:103AB00041F26400305A41F2700956F8092002FBC5
:103AC00000F741F26C0A56F80A20B7F5805F28BF6C
:103AD0004FF480571FFA87F8B8FBF0F3D4F8C00210
:103AE000456906F1100B08465946A847B0F1FF3F5B
:103AF00026DD41F26400304406EB090206EB0A01C0
:103B00000088B8FBF0F30D681D440D601168C91AF8
:103B1000116041F23802B358A3EB0703B35017D03A
:103B200001FB00F3B3F5805F28BF4FF480532046BC
:103B300001215A4601F06AF800250EE0FF250CE04D
:103B4000204600210422032300F0D0F9FF2504E0E1
:103B5000002520460021FFF703FC68B201B0BDE854
:103B6000F08F0000F0B581B0D0F8BC7297B30D466D
:103B70000446387A48B14FF48050F8602046294610
:103B800001B0BDE8F040FFF733BF41F21C003856EA
:103B9000002806DB204600210522202300F0A6F99C
:103BA00018E041F26200385C022806D1204600216C
:103BB00002223A2300F09AF90CE01646D4F8C0022B
:103BC00081682846884748B12046002102223A23CE
:103BD00000F08CF94FF0FF3001B0F0BDD6F80200D4
:103BE00002BA41F26C003A50F079317A41EA00238E
:103BF00041F27006BB5120462946FFF7E5FD00283B
:103C0000E8DBB81941F21801795841F26402BA5A56
:103C100000685043814202D102203872ABE720464F
:103C200000210522202300F061F9D3E7F0B581B02F
:103C3000D0F8BC7297B30D460446387A48B14FF4B9
:103C40008050F8602046294601B0BDE8F040FFF7FB
:103C5000CFBE41F21C003856002806DB204600216A
:103C60000522202300F042F918E041F26200385C9E
:103C7000022806D12046002102223A2300F036F91C
:103C80000CE01646D4F8C00281682846884748B13F
:103C90002046002102223A2300F028F94FF0FF309D
:103CA00001B0F0BDD6F8020002BA41F26C003A5001
:103CB000D6F8060003BA41F27006BB5120462946E9
:103CC000FFF782FD0028E9DBB81941F218017958A5
:103CD00041F26402BA5A00685043814202D1022084
:103CE0003872ACE7204600210522202300F0FEF8C0
:103CF000D4E7000070B5D0F8BC62BEB1054641F211
:103D000064003418D5F8C0024368221D08461146E5
:103D10002246984720B941F26200305C022808D15F
:103D20002846002102223A2300F0E0F8FF2040B2AA
:103D300070BD61680020B0820139F1740A0AB27462
:103D40000A0C7274090E317421880822F260F17530
:103D5000090AB17540B270BDF0B581B0D0F8BC723F
:103D6000D7B11446064641F264003D18D6F8C002A9
:103D700043682A1D084611462A46984720B941F251
:103D80006200385C022809D13046002102223A2321
:103D900000F0ACF8FF2022E0FF2020E0D4F80A0079
:103DA00000BAF86040B10021002300223B4419749E
:103DB0000132D3B29842F9D86968002038830139BA
:103DC000F9750A0ABA750A0C7A75090E39752988C7
:103DD000F976090AB976D4F80A1009BAF96040B23E
:103DE00001B0F0BDB0B582B0D0F8BC52BDB1044650
:103DF000D0F8C0024368EC460DF106020846614661
:103E0000984720B941F26200285C022809D1204677
:103E1000002102223A2300F069F8FF2017E0FF207A
:103E200015E04FF0006028610098022129830138D5
:103E3000E875010AA975010C6975000E2875BDF8B1
:103E400006000C21E960E876000AA876002040B25E
:103E500002B0B0BD80B5D0F8BC22002A42D041F2F9
:103E60001803D358CBB30020C2F8150082F8210004
:103E7000C2F81D00C2F81900C2F8110070201074B9
:103E80000C20D0754FF48350105C41F26103D35C79
:103E9000984219D002F5835C02EBC00E4FF48253B6
:103EA0001EF80330937441F244031EF80330137775
:103EB00041F245031EF8033053770130C3B2043B8F
:103EC00018BF03468CF800301220D0600879122801
:103ED00098BFD060002040B280BD00210522202381
:103EE00000F004F8FF2040B280BD0000D0F8BC0212
:103EF000002808BF7047B0B541F2610C10F80CE023
:103F000000EBCE0141F2450400250D5541F2440479
:103F10000B554FF48253CA540EF10101CAB2043A50
:103F200018BF0A4600F80C20BDE8B04070470000FA
:103F3000D0F8BC1221B341F2620C11F80C30012B05
:103F40000FD1137903F00303022B0AD180B50021AE
:103F500005222423FFF7CAFFFF20BDE8804040B2BE
:103F60007047107900F003020020012A18BF032ACD
:103F700009D101EB0C0210700020C86040B27047FC
:103F8000FF2040B27047022AF6D10220F1E700007C
:103F9000B0B5D0F8BC52F5B1044641F2180028582B
:103FA00030B12046002105222023FFF79FFF12E0B9
:103FB00041F26200285C022805D0D4F8C002826871
:103FC0000846904750B12046002102223A23FFF7CD
:103FD0008DFF05202872FF2040B2B0BD0020E860B0
:103FE00040B2B0BD80B578B1C260002A08BF80BDC4
:103FF000013A1FFA82FE11F80EC010FA82F383F81C
:1040000010C0BEF1000FF3D180BD000010B5D0F894
:10401000BC42ACB1527892070DD441F27002A35861
:1040200041F26C02A258FFF7CFFB002808DB00200A
:10403000E06040B210BD002105222423FFF756FFA7
:10404000FF2040B210BD00002DE9F041D0F8BC7255
:10405000002F62D00D460446387A28B12046294602
:10406000BDE8F041FFF71CBD41F2180007EB000866
:10407000D8F8000000284AD041F21C003856B0F1B0
:10408000FF3F44DD1646D4F8C002816828468847C1
:1040900020B12046002102223A233CE0D4F8C0029D
:1040A000C1682846884720B12046002102222723E4
:1040B00031E0D6F8020002BA41F26C003A50F079D1
:1040C000317A41EA0023C8F8583020462946FFF7E4
:1040D0007BFB002821DB41F26400385AD8F800103D
:1040E000D8F8582002FB00F3994210D10120387211
:1040F000B3F5805F28BF4FF4805307F110022046CC
:10410000012100F083FD002040B2BDE8F08120468F
:10411000002105222023FFF7E9FEFF2040B2BDE881
:10412000F08100002DE9F041D0F8BC72002F65D07D
:104130000D460446387A28B120462946BDE8F041AC
:10414000FFF7AEBC41F2180007EB0008D8F80000FA
:1041500000284DD041F21C003856B0F1FF3F47DD3A
:104160001646D4F8C00281682846884720B1204608
:10417000002102223A2309E0D4F8C002C16828468F
:10418000884740B12046002102222723FFF7AEFED8
:104190000520387232E0D6F8020002BA41F26C0013
:1041A0003A50D6F8060003BAC8F8583020462946D7
:1041B000FFF70AFB002821DB41F26400385AD8F8E7
:1041C0000010D8F8582002FB00F3994210D10120CA
:1041D0003872B3F5805F28BF4FF4805307F11002A7
:1041E0002046012100F012FD002040B2BDE8F08120
:1041F0002046002105222023FFF778FEFF2040B251
:10420000BDE8F0810B4A00234FF6FF7C1168890757
:1042100003D401336345F9D170475060002003E0B7
:104220000130604508BF70471168C907F8D0506871
:10423000704700BF083001401CB504464E48134685
:104240000A4611490068B0FBF1F04FF47A71484317
:1042500001906068B0F5827F0AD12046802100F08D
:1042600031F870B1606D40F020006065032009E016
:10427000019830B1019801380190206880680006EB
:10428000F6D4002002B010BD00366E01E0B58DF806
:1042900006004FF6FF7000210DF107020123009088
:1042A00007488DF807100DF10601FEF752FB0028B4
:1042B0001ABFFF208DF807009DF8070002B080BDEF
:1042C00030A000202DE9FC411E4617460D468046D1
:1042D000FCF756FE301AC419FCF752FE0646264873
:1042E00001370068C0F3CB306043019006E00198CD
:1042F000019901390028019108BF0446D8F800004F
:1043000081682940A94232D1002FF9D0FCF738FE4C
:10431000801BA042EBD3D8F80000416821F0E001F7
:104320004160D8F80410B1F5827F0BD1D8F808109D
:10433000B1F5004F02D0B1F5806F03D1016821F0D3
:1043400040010160D8F82810B1F5005F07D101687D
:1043500021F400510160016841F400510160002026
:1043600088F85000012088F85100032000E0002068
:1043700002B0BDE8F08100BFAC0000204FF48060C7
:1043800008604FF480501080002070470020704774
:104390000020704780B501F0EFFC0021002808BF25
:1043A0004FF0FF31084680BD0020704770B57BB1EB
:1043B0001C460D46160300BF284631464FF4805276
:1043C00001F0B6FC013C05F5805506F58056F3D1A9
:1043D000002070BD70B57BB11C460D46160300BFB2
:1043E000284631464FF4805201F0F2FC013C05F5BD
:1043F000805506F58056F3D1002070BD704700004F
:104400000088704710B540F2A804C2F200040120F1
:10441000207001F0B1FC00281EBF207800F0FE00E3
:104420002070207810BD0000042906D80020DFE8A5
:1044300001F00306090C03007047042070474FF495
:10444000806004E04FF4805001E04FF48030106051
:104450000020704770B57BB11C460D46160300BFA7
:10446000284631464FF4805201F062FC05F5805534
:1044700006F58056013CF3D1002070BD40F2A80043
:10448000C2F20000017801F0FE010170007870476F
:1044900070B57BB11C460D46160300BF2846314659
:1044A0004FF4805201F094FC05F5805506F58056D6
:1044B000013CF3D1002070BDFCF766BDB0B592B0F1
:1044C000002401A814210B94CDE90944FCF72DF92F
:1044D000224800940225016841F080510160006883
:1044E00000F080500090009800941D48016865F32A
:1044F0008F310160006800F4404000900098072070
:104500001190042010904FF4A8700F9019200E9075
:104510004FF48000CDE90C50012008904FF480301A
:1045200007900520069006A8FDF7EAFC18B1EFF306
:10453000108072B6FEE74FF480500594022104907B
:104540000F20CDE90254019001A8FDF70FFC18B12E
:10455000EFF3108072B6FEE712B0B0BD40380240F3
:10456000007000400248016841F47001016070472A
:1045700088ED00E00148FEF77ABB00BF1C03002075
:1045800010B50368184AB0F1804F13D0174CA04201
:1045900010D0174CA0420DD0164CA0420AD0164C99
:1045A000A0420BD0154CA04208D0154CA04205D01B
:1045B000904207D14C6823F070032343CC6823F466
:1045C000407323434C6923F08003904243EA040381
:1045D00003608B68C3620B68836204BF096911635F
:1045E0000121416110BD00BF0000014000040040F6
:1045F00000080040000C004000480140004001401D
:1046000000440140D0F8B82222B180B552689047EA
:10461000BDE880400020704790F89C22013A022AB1
:1046200088BF00F019B84988012918BF70470021D8
:10463000C0F8A41200F036B880B513460A4600212F
:1046400000F0E4FA002080BD80B513460A46002140
:1046500000F090FB002080BD10B50446802100F0E2
:104660006BFB20460021BDE8104000F065BB000058
:1046700080B50521C0F8941200210022002300F02B
:10468000C5FA002080BD000080B513460A46C0E987
:1046900006330221C0F89412002100F06BFB0020C9
:1046A00080BD000080B50421C0F8941200210022D2
:1046B000002300F05FFB002080BD000010B50A461B
:1046C00004A040F22454C2F20004214600F022F972
:1046D000204610BD4D534320436F6E66696700004E
:1046E0001220088040F2B000C2F2000070470000C3
:1046F00010B50A4604A040F22454C2F20004214638
:1047000000F008F9204610BD4D534320496E7465F2
:1047100072666163650000000420088040F2C400F6
:10472000C2F200007047000010B50A4604A040F233
:104730002454C2F20004214600F0ECF8204610BDDB
:1047400053544D6963726F656C656374726F6E6903
:104750006373000010B50A4604A040F22454C2F26C
:104760000004214600F0D6F8204610BD53544D33C6
:1047700032204D6173732053746F7261676500005E
:1047800080B51A200880FCF79FF940F28C10C2F225
:10479000000080BDC988012918BFFFF75DBF90F8F0
:1047A0009C124A1E022A06D20022014641F8082F16
:1047B0000122FFF769BF032903D1011D0122FFF781
:1047C00063BFFFF749BF0000B0B582B00D46044695
:1047D0000020ADF8060048884FF0FF3101EB1021B2
:1047E000062900F26680DFE801F0041609646423FC
:1047F0002C00207CD4F8B4120A6847E0C0B2052827
:1048000057D8DFE800F0032A2F34393ED4F8B40239
:104810004268D2BB4DE0D4F8B802217C00290CBF1D
:10482000816AC16A0DF1060088470146022012E044
:10483000207CF0BBD4F8B802416B0DF1060088472C
:1048400027E0207CA8BBD4F8B802016B0DF106006C
:1048500088470146072048701CE0D4F8B4028268FB
:104860009AB926E0D4F8B402C26872B921E0D4F84B
:10487000B40202694AB91CE0D4F8B402426922B910
:1048800017E0D4F8B40282699AB1207C0DF10601D8
:1048900090470146EA888AB1BDF8060048B19042C7
:1048A00038BF0246ADF806202046FFF7EDFE02B005
:1048B000B0BD2046FFF7D0FE02B0B0BD2046FFF7E6
:1048C000F1FE02B0B0BD0000017841B1411C0020F2
:1048D000013011F8012B002AFAD1C0B27047002034
:1048E000C0B2704790F89C22013A022A10D8C988B9
:1048F000022918BFFFF7B0BED0F8A4120322002986
:1049000008BF0122014641F80C2F0222FFF7BCBE6E
:10491000FFF7A2BE70B5E8B116460C460546FFF794
:10492000D3FF022101EB4000308003216170207031
:104930002878002808BF70BD691C0222002300BF30
:10494000D6B2A05546F001002354023211F8010BF3
:104950000028F5D170BD0000032884BF03207047F4
:10496000C00040F20031C0F2013121FA00F0C0B2C3
:1049700070470000002804BF032070470023C0F8E0
:10498000CC32C0F8C032C0F8B832002918BFC0F825
:10499000B4120270012180F89C1200F0BDB8000032
:1049A00080B5D0F8C402FCF7FEFBBDE88040FFF7FD
:1049B000D3BF000080B5D0F8C402FCF7CBFBBDE844
:1049C0008040FFF7C9BF0000B0B5044671B194F84C
:1049D0009C02032849D1D4F8B8024269002A44D085
:1049E00020469047002808BF0020B0BDD4F89402AC
:1049F000022833D1D4E9071081420DD90B1AE361A3
:104A0000204611461A46FFF71FFE204600210022CD
:104A1000002300F0FBF821E00FD1A16981420CD303
:104A2000D4F89802814208D20025204600210022B5
:104A3000FFF70AFEC4F89852E7E794F89C020328AF
:104A400005D1D4F8B802C16809B12046884720468C
:104A5000802100F071F92046FFF70AFE94F8A002C9
:104A6000012804BF002084F8A0020020B0BD00008F
:104A700010B5044669B194F89C0203281CD1D4F8FF
:104A8000B8028269C2B120469047002808BF0020C2
:104A900010BDD4F8940203280ED1D4E957039842EC
:104AA0000CD9C01AC4F85C01984238BF03462046AE
:104AB00011461A46FFF7C0FD002010BD94F89C0275
:104AC000032805D1D4F8B802016909B12046884706
:104AD0002046FFF7E7FD002010BD000000207047D2
:104AE000012180F89C12D0F8B8222AB180B5017952
:104AF00052689047BDE880400020704780B5D0F8EC
:104B0000C402FCF780FBBDE88040FFF725BF000032
:104B1000D0F8C402FCF790BB017809B100207047BF
:104B200010B549F6B031C2F20001C1F80404C0F872
:104B3000C4120020C1E90B000222C1E90620C1E92C
:104B40000800C1E9032004204FF0A042C1E9002081
:104B50000846FCF72FFF002818BFFBF788FF49F62F
:104B6000B034C2F2000420468021FCF7AAFA2046A5
:104B700000214022FCF7A9FA204601218022FCF7FF
:104B8000A4FABDE81040002070470000D0F8C4022D
:104B900001F07F02C2EBC20200EB820000F13E0294
:104BA000090658BF00F5FF7210787047D0F8B82298
:104BB000002A04BF0320704790F89C32032B05D1D4
:104BC000126A1AB180B59047002080BD002070475E
:104BD000D0F8B822002A04BF0320704790F89C3216
:104BE000032B05D1526A1AB180B59047002080BDD1
:104BF0000020704780B59446D0F8C4021A46634638
:104C0000FCF723FBBDE88040FFF7A6BE80B5D0F8D7
:104C1000C402FCF74DFBBDE88040FFF79DBE0000DD
:104C2000F0B581B00446012084F89C020020C4F84D
:104C3000A4026060C4F89402D4F8B802E8B1D4F8D1
:104C4000BC1221B1426812B12046002190470025D4
:104C500040262046002100224023FFF7CBFF0127FA
:104C6000A4F86471C4F860612046802100224023CA
:104C7000FFF7C0FFA784266200E00325284601B0A5
:104C8000F0BD000090F89C12042904BF90F89D121A
:104C900080F89C1200207047D0F8B812002904BF99
:104CA0000320704790F89C22032A05D1C96919B1E5
:104CB00080B58847002080BD002070470174002027
:104CC0007047000080B5D0F8C402FCF767FFBDE86C
:104CD0008040FFF741BE0000B0B5044600F2AA25AF
:104CE000284600F045F90120C4F89402B4F8B00257
:104CF000C4F8980294F8AA0200F01F01022908D013
:104D000001290CD089B920462946BDE8B04000F001
:104D1000EDB920462946BDE8B04000F021BA204652
:104D20002946BDE8B04000F0CBBA00F08001204633
:104D3000BDE8B040AFF3008080B5D0F8C402FCF706
:104D4000DAFABDE88040FFF707BE000080B5D0F872
:104D5000C402FCF73EFFBDE88040FFF7FDBD000048
:104D600090F89C1280F89D12042180F89C1200207B
:104D70007047000080B5D0F8C402FCF7F3FABDE834
:104D80008040FFF7E9BD000080B5FEF755FA00202E
:104D900080BD000080B5FEF775FA002080BD0000E0
:104DA000B0B504460121FFF705FE0025A4F87851AF
:104DB00020468121FFF7FEFD2587D4F8BC0240B1D3
:104DC0002046FEF783FAD4F8BC0200F0A9FAC4F832
:104DD000BC520020B0BD00000A21018040F240100A
:104DE000C2F20000704700002021018040F2001054
:104DF000C2F20000704700002021018040F2201024
:104E0000C2F20000704700002021018040F24C10E7
:104E1000C2F2000070470000B0B5044641F27400D1
:104E200000F080FA88B1C4F8BC02207C012588B16A
:104E30002046012102224023FFF7DCFEA4F878512E
:104E4000204681210222402312E00020C4F8BC0247
:104E50000220B0BD2046012102224FF40073FFF76B
:104E6000C9FEA4F878512046812102224FF4007334
:104E7000FFF7C0FE012020872046FEF72FFA002012
:104E8000B0BD000000290EBF0320C0F8C0120020F2
:104E90007047000070B582B00446D0F8BC620020B4
:104EA000ADF80600002E5FD00D46087810F06001C6
:104EB00016D0202954D16978FF2925D0FE294FD159
:104EC000698800294CD100064AD5E888012847D1D5
:104ED000D4F8C0028069804730602046314632E015
:104EE00068780B283CD8DFE800F006193B3B3B3BD9
:104EF0003B3B3B3B283294F89C02032830D10DF118
:104F00000601204602221FE0698849BB000627D41B
:104F1000E88828BB2046FEF707FA1EE094F89C02BA
:104F200003281AD16888C0B929792046FFF7E6FD21
:104F300029792046FEF760F90FE094F89C020328D7
:104F40000ED1311D20460122FFF79EFB05E094F8AB
:104F50009C02032804D1A8787060002002B070BDC4
:104F600020462946FFF778FB032002B070BD000001
:104F7000B0B50C4605460878287048786870881CDB
:104F8000FFF73EFA6880201DFFF73AFAA880A01DBF
:104F9000FFF736FAE880B0BD10B582B004460020B5
:104FA000ADF8060059B1C4F8B812C96A21B10DF1C3
:104FB00006008847C4F8CC02002002B010BD0320D0
:104FC00002B010BDB0B50446888840B9C88830B971
:104FD00048887F2803D894F89C12032904D12046DE
:104FE000BDE8B040FFF738BB00F07F0584F89E5263
:104FF00020462946FFF766FE2046FFF753FB002DAB
:1050000014BF0220012084F89C02B0BDD0F8B82261
:10501000002A04BF0320704712681047B0B5044649
:10502000488840F22255C2F20005287010F0FE0FA9
:1050300005D02046FFF710FB03252846B0BDC1B2BE
:1050400094F89C0203280DD0022826D1A1B36160F8
:105050002046FFF7DBFFA8B305462046FFF7FCFA22
:105060002846B0BD09B36068884225D0C1B2204649
:10507000FFF7C8FA297861602046FFF7C7FFD8B16B
:1050800005462046FFF7E8FA21792046FFF7BAFAED
:10509000022084F89C022846B0BD2046FFF7DCFAC7
:1050A00029782046FFF7AEFAC6E76160022084F84F
:1050B0009C022046FFF7A6FA2046FFF7F3FA0025E8
:1050C0002846B0BD2046FFF7EDFA032084F89C0285
:1050D000F5E700004988012918BF70470121C0F891
:1050E000A412FFF7DFBA0000FFF730BE80B50A78E0
:1050F00012F0600209D0402A01D0202A13D1D0F842
:10510000B8229268BDE8804010474A78092A0AD838
:10511000DFE802F0050D091109152109191DFFF736
:10512000E1FB002080BDFFF797FA002080BDFFF76C
:1051300073FA002080BDFFF7CDFF002080BDFFF790
:1051400041FF002080BDFFF725FB002080BDBDE8AA
:105150008040FFF763BFFFF737FB002080BD0000F2
:10516000B0B50D460446087810F060000BD040281A
:1051700001D0202819D1D4F8B802826820462946E7
:10518000BDE8B04010472979687898B1012824D04B
:10519000032875D194F89C02032831D002286FD1DE
:1051A00041F0800080286BD021E02046FFF754FAC0
:1051B0000020B0BD94F89C02032831D002285FD1B2
:1051C000002962D080295BD101F07F0000EB8000D4
:1051D00004EB800000F114015FE094F89C020328C6
:1051E00032D002284CD141F08000802848D020469F
:1051F000FFF7A2FD20468021FFF79EFD0020B0BDF5
:10520000688840B941F08000802804D0E88810B94F
:105210002046FFF791FD2046FFF744FA0020B0BD7D
:1052200001F00F0000EB800004EB80000A0617D4A9
:10523000B0F8640120B301F07F0000EB800004EBC4
:10524000800000F5AA7515E068880028B0D14806EE
:1052500002D02046FFF7A4FB2046FFF723FA8AE797
:10526000808C68B101F07F0000EB800004EB8000CF
:1052700000F1140541F08000802812D1002016E0D2
:105280002046FFF7E9F90020B0BD01F07F0000EBF8
:10529000800004EB800000F5AA7100200860204621
:1052A00008E02046FFF772FC0028E7D001202860C4
:1052B000204629460222FFF7E7F90020B0BD000092
:1052C000B0B50D460446087810F0600018BF4028BD
:1052D0000DD194F89C020138022803D8A88810F058
:1052E000FE0F0BD02046FFF7B7F90020B0BD2028F5
:1052F000EFD02046FFF7B0F90020B0BDD4F8B802D7
:1053000082682046294690470028F6D1E98800297E
:1053100018BFB0BD2046FFF7C5F90020B0BD0000A2
:105320007047000040F22470C2F200007047000095
:1053300080B591F800C091F801E001220CF00F0354
:10534000BEF1010F02FA03F31AD1D0F81C281A4358
:105350004FEA4C13C0F81C2800F51060C258120424
:1053600027D491F803E089681A586FF3DF2141EAE6
:105370008C511143104A41EA8E411143195018E0F3
:10538000D0F81C2842EA0342C0F81C284FEA4C120D
:1053900000F5306083581B040BD491F803C0896872
:1053A00013586FF3DF211943034B41EA8C41194332
:1053B0001150002080BD00BF00800010D0F80019FF
:1053C00040F2FF729143C0F80019D0F8041841F47C
:1053D0008071C0F8041800207047000070B50446C2
:1053E0000698049D012817D1A16B194A0D9821F444
:1053F00080310128A163E16801EA0201E160E1680E
:1054000021F44011E16002BFE06840F48010E060E8
:10541000204600F01FF80FE0E0680A9E40F04000D0
:10542000E060204600F016F8A16B002E14BF21F4B6
:10543000803141F48031A163012D18BF70BDA16896
:1054400041F00601A160A16841F02001A16070BD9A
:10545000BFFFBDFF81B0002100910E49009A0132CB
:105460008A42009213D80269B2F1FF3FF6DC0022B3
:105470000092026942F001020261009A01328A42FE
:10548000009204D80269D207F7D1002000E003207F
:1054900001B07047400D030010B54A780B78204CDE
:1054A00000EB4311012A15D101F51062D1F8001962
:1054B000B1F1FF3F07DC116841F000611160116834
:1054C00041F08041116003F00F01012303FA01F163
:1054D0008BB215E001F53062D1F8001BB1F1FF3F4E
:1054E00007DC116841F000611160116841F08041F2
:1054F000116003F00F014FF4803304F170748B409E
:10550000D0F83C189943C0F83C18D0F81C189943BF
:10551000C0F81C18106820401060002010BD00BFAB
:10552000007833ECD0F8001E21F00301C0F8001E13
:10553000D0F8041821F00201C0F8041800207047C8
:10554000D0F8001E21F00301C0F8001ED0F80418A6
:1055500041F00201C0F80418002070472DE9F84F0F
:105560008046DDF844A0DDE90C07DDF828900D4603
:105570004121002202E048F8212001315029FAD1CE
:10558000BAF1000F0AD0D8F8381021F40011C8F889
:105590003810D8F8381041F4002115E0D8F8041874
:1055A00041F00201C8F80418D8F8381041F400118D
:1055B000C8F83810D8F8381021F40021C8F838108D
:1055C000D8F8381021F48021C8F83810002108F5E7
:1055D000006B0128C8F8001EDBF80010CBF80010A3
:1055E00006D1DBF80000002B18BF40F0010003E0FB
:1055F000DBF8000040F00300CBF80000404610212B
:1056000000F028FA0646404600F010FA0021304328
:1056100008F510624FF67F330026BC46CBF8101019
:10562000CBF81410CBF81C100EE04FF09047002E72
:1056300006F1010608BF4FF00067146807EAE47737
:105640001760116193602032B542EED108F53061E8
:1056500000224FF67F330026002818BF01200EE0FD
:105660004FF09047002E06F1010608BF4FF000678B
:105670000C6807EAE4770F600A618B602031B5425D
:10568000EED1DBF81010B9F1000F21F48071CBF8E6
:1056900010104FF00001C8F818106FF08041C8F8E2
:1056A000141005D1D8F8181041F01001C8F81810DE
:1056B000D8F818100C4ABCF1000F41EA0201C8F8F2
:1056C00018101EBFD8F8181041F00801C8F81810BB
:1056D000BAF1010F05D1D8F81810044A1143C8F8DF
:1056E000181001B0BDE8F08F00383C800400004085
:1056F000816821F0010181600020704770B54B780E
:1057000091F800C0012B21D100EB4C14D1F814E02A
:10571000354D04F51063D4F81069324CBEF1000F1A
:1057200039D035401D611D69254004F100541D61CB
:105730008D68AE4584BF4D61AE4604EA0E041D6916
:1057400045F400251D611D692C432FE000EB4C1032
:10575000244CD0F8103B6FF31203C0F8103BD0F884
:10576000103B6FF3DC43C0F8103B00F530634E692B
:10577000886806B148611E69012A46F400261E6148
:1057800004F1005600EA06001E6940EA06001861AE
:1057900012D1C8680EE026404FF0000E1E611E694F
:1057A00046F400261E611E6906EA0504012A1C61F2
:1057B00009D1086900B158614FF0044118680843E5
:1057C0001860002070BD1968BEF1000F41F004415F
:1057D0001960F6D00CF00F01012200F6340302FA32
:1057E00001F1EBE7FFFF07E00000F8FF10B5036CE5
:1057F000134CA34203D3D0F8003B002B1EDB002345
:105800000129C0F8103BD0F8103B43F40023C0F846
:10581000103BD0F8103B43F01803C0F8103BD0F811
:10582000103B43F0C043C0F8103B07D1C0F8142B25
:10583000D0F8001B41F08021C0F8001B002010BDF3
:105840000B30544F0A784B785201012B14BF00F5EE
:10585000306000F51060835823F400138350C9783A
:1058600001F0FE01022902BF115841F08051115090
:10587000002070470A784978012900EB421119BFCE
:1058800001F53060D1F8001B01F51060D1F8001966
:105890002AB1002903DB016821F080410160016821
:1058A00041F400110160002070470000BCB54B7846
:1058B00091F800C0012B2ED100EB4C14D1F814E06C
:1058C00004F51063D4F81049BEF1000F49D06FF30E
:1058D00012041C611C696FF3DC441C618C680EEBC4
:1058E0000405013DB5FBF4F44C4D05EAC4441D69C3
:1058F0002C4375461C616FF3DF451C692C431C610A
:10590000CC78012C38D11C6924F0C0441C611C697E
:1059100044F000542FE000EB4C13D3F8105B6FF30E
:105920001205C3F8105BD3F8105B6FF3DC45C3F8C6
:10593000105B03F530634C69D1F808C0D4B304EBB5
:105940000C05364C013DB5FBFCF504EAC54E1C695F
:10595000ADB205FB0CFC44EA0E046FF3DF4C1C6196
:1059600030E06FF3DC441C611C6944F400241C61CA
:105970001C696FF312041C61012A01D10A6928E035
:105980001C6844F004441C60CC78012C38D1D0F859
:105990000848E4054FF0805458BF4FF000541D688C
:1059A0002C431C601FFA8EF3C9680092624600F017
:1059B0007FF922E01D696FF3DF4C45EA0C054FF4D7
:1059C000002C1D611D69012A45EA0C051D6102D1EB
:1059D000CA6802B15A61C97801290AD1D0F8080809
:1059E000C0054FF0805058BF4FF000501968084371
:1059F0001860186840F004401860002002B0B0BD84
:105A0000BEF1000FF9D00CF00F01012202FA01F1F2
:105A1000D0F834281143C0F83418EEE70000F81F1E
:105A2000816841F0010181600020704781B0002150
:105A30000091102101611149009A01328A420092BD
:105A400004D80269D206F7D4002000E0032001B098
:105A5000704700BF81B089010022203100920161AE
:105A60000649009A01328A42009204D802699206DD
:105A7000F7D4002000E0032001B07047400D030080
:105A8000D0F8080810F0060004BF0020704740F06E
:105A900004010F20062908BF02207047406900F06A
:105AA00001007047D0F81818D0F81C08084080B2E0
:105AB0007047D0F81818D0F81C080840000C704740
:105AC000D0F810C8D0F8343801F00F0200EB4110C4
:105AD000D0F8080923FA02F2D201D2B242EA0C024B
