:020000040800F2
:1000000078D9002075020008B54700089932000829
:10001000B147000831060008D57100080000000053
:10002000000000000000000000000000C5530008B0
:100030005906000800000000C54700088154000868
:100040008F0200088F0200088F0200088F0200084C
:100050008F0200088F0200088F0200088F0200083C
:100060008F0200088F0200088F0200088F0200082C
:100070008F0200088F0200083506000841060008BC
:100080008F0200088F0200088F02000800000000A5
:100090000000000000000000000000008F020008C7
:1000A0008F0200084D5500088F0200088F020008DB
:1000B0008F0200088F0200088F0200088F020008DC
:1000C0008F0200088F0200088F0200088F020008CC
:1000D0008F0200088F0200088F0200080000000055
:1000E0008F0200088F0200088F0200080000000045
:1000F0000000000000000000000000008F02000867
:10010000000000008F0200088F0200088F02000824
:1001100000000000000000000000000000000000DF
:100120008F0200088F0200088F0200084D060008A9
:100130008F02000800000000000000000000000026
:10014000000000000000000000000000B9470008A7
:100150008F0200088F0200088F0200088F0200083B
:100160008F0200088F02000800000000000000005D
:10017000000000000000000000000000000000007F
:10018000000000008F0200080000000000000000D6
:100190008F02000800F002F800F05CF80AA090E876
:1001A000000C82448344AAF10107DA4501D100F032
:1001B00051F8AFF2090EBAE80F0013F0010F18BFA3
:1001C000FB1A43F00103184784940200A494020030
:1001D0000A444FF0000C10F8013B13F0070408BF6D
:1001E00010F8014B1D1108BF10F8015B641E05D00B
:1001F00010F8016B641E01F8016BF9D113F0080FC0
:100200001EBF10F8014BAD1C0C1B09D16D1E58BF51
:1002100001F801CBFAD505E014F8016B01F8016B88
:100220006D1EF9D59142D6D37047000000230024FB
:1002300000250026103A28BF78C1FBD8520728BFF6
:1002400030C148BF0B6070471FB525F07DFE1FBD54
:1002500010B510BD00F0B1F91146FFF7F5FF23F01E
:1002600029F800F0CFF903B4FFF7F2FF03BC00F068
:10027000D7F900000948804709480047FEE7FEE734
:10028000FEE7FEE7FEE7FEE7FEE7FEE7FEE7FEE746
:1002900004480549054A064B7047000039550008D7
:1002A0009501000878A5002078D9002078A90020C1
:1002B00078A9002053EA020C00F069802DE9F04B88
:1002C0004FF00006002B1FBFB3FA83F503FA05F4C5
:1002D00024FA05F65E4012BF1643B2FA82F502FA1E
:1002E00005F4C5F120051EBF22FA05FC44EA0C0402
:1002F000203556EA044C4FEA144418BF641C4FF0F2
:1003000000084FF00009904271EB030C39D300292B
:1003100019BFB1FA81F701FA07F6B0FA80F700FACF
:1003200007F6C7F120071EBF20FA07FC46EA0C06B5
:100330002037B6FBF4FCA7EB0507103F07F01F0BB7
:10034000CBF120062CFA06F60CFA0BFB44BFB346A1
:100350000026202FA4BF5E464FF0000B5BEA060C80
:1003600008BF4FF0010B19EB0B0948EB0608ABFB7C
:10037000027C06FB02CC0BFB03CCC01B71EB0C0117
:10038000C1E70B46024641464846BDE8F08B13B52F
:100390004FF000004FF00001AFF30080BDE81C40BB
:1003A000704740EA010310B59B070FD1042A0DD313
:1003B00010C808C9121F9C42F8D020BA19BA884246
:1003C00001D9012010BD4FF0FF3010BD1AB1D30785
:1003D00003D0521C07E0002010BD10F8013B11F8BB
:1003E000014B1B1B07D110F8013B11F8014B1B1BE4
:1003F00001D1921EF1D1184610BD40EA0103024618
:1004000030B59B0710D14FF0013400E008C208C995
:100410001D1B9D4315EAC41FF8D013F0FF0102F81D
:10042000011B0DD01B0AF8E711F8013B002B02F865
:10043000013B05D011F8013B002B02F8013BF3D141
:1004400030BD10B5431C02E010F8011B71B18107EB
:10045000FAD14FF0013202C88C1A8C4314EAC2114F
:10046000F9D0C01A0A0603D0C01E10BDC01A10BDB4
:100470000A0401D0801E10BD0902FCD0401E10BD30
:1004800002F0FF0343EA032242EA024200F00AB804
:1004900002F0FF0343EA032242EA024200F024B8DA
:1004A0004FF000020429C0F0128010F0030C00F09D
:1004B0001B80CCF1040CBCF1020F18BF00F8012B1B
:1004C000A8BF20F8022BA1EB0C0100F00DB85FEAE9
:1004D000C17C24BF00F8012B00F8012B48BF00F8B5
:1004E000012B70474FF0000200B513469446964624
:1004F000203922BFA0E80C50A0E80C50B1F1200137
:10050000BFF4F7AF090728BFA0E80C5048BF0CC0E4
:100510005DF804EB890028BF40F8042B08BF704742
:1005200048BF20F8022B11F0804F18BF00F8012BB4
:10053000704700000000000030B44FF0013C50F85C
:10054000042B51F8043BCCFA52F4D51A20D1FCB953
:1005500050F8042B51F8043BCCFA52F4D51A17D1B9
:10056000B4B950F8042B51F8043BCCFA52F4D51A24
:100570000ED16CB950F8042B51F8043BCCFA52F46C
:10058000D51A05D1002CDAD030BC4FF000007047EE
:1005900029BAB1FA81F111F01801D1F1200084409B
:1005A000F2D1CA40CB4012F0FF0213F0FF0330BC7F
:1005B000D01A7047704770477047754600F02CF8A6
:1005C000AE4605006946534620F00700854618B040
:1005D00020B5FFF75DFEBDE820404FF000064FF06C
:1005E00000074FF000084FF0000BAC46ACE8C00924
:1005F000ACE8C009ACE8C009ACE8C00921F00701CB
:100600008D46704710B50446AFF300802046BDE824
:100610001040FFF728BE000000487047E8010020A6
:1006200001491820ABBEFEE726000200704700001B
:10063000FEE7000048F6CC40C2F2000000F058B8D7
:1006400048F62C50C2F2000000F052B848F66C4058
:10065000C2F2000000F04CB870470000EFF31080C9
:1006600072B600BFFEE70000002200F001B80000F3
:1006700010B5844648F68404C2F20004607A00286B
:100680001CBF012010BD94F809E0002004F80E0002
:10069000637A04EB8303C3F804C0637A23441A72B9
:1006A000627A531C6372C87042F63A73A1F8013043
:1006B00030320A7010BD000047F61021C1F6FF71FC
:1006C00008688A68801808BF7047B0B54C6840F267
:1006D0006415C2F20005A91C082202F0DFFD05F135
:1006E000120120460422BDE8B04002F0D7BD000050
:1006F000F0B581B00446002048F2B51308210090FF
:1007000040F28400C1F64E33C2F200000268D4E920
:10071000166037688140A2FB032539420CD022685D
:1007200013685B0708D5136823F004031360B160F6
:10073000616D41F00101616501218140394208D0BC
:1007400022685269120604D5B160616D41F0020160
:10075000616504218140394208D0226812689207FD
:1007600004D5B160616D41F00401616510218140E3
:10077000394217D020680268120713D5B1600268A9
:100780000168520308D4C9055EBF016821F0080161
:100790000160216C21B905E0080344D4216C09B142
:1007A00020468847E16D202000FA01F23A4247D006
:1007B00020680368DB0643D5B26094F835300268E0
:1007C000052B1ED122F016020260426922F080023F
:1007D0004261226C0AB9A26C1AB1026822F00802C6
:1007E00002603F208840B060002084F8340001207F
:1007F00084F83500216D00295AD02046884701B081
:10080000F0BD0168520312D4C90515D4016821F066
:1008100010010160002084F83400012084F83500C4
:10082000E16B59B90CE0A16C0029B9D1BAE7080312
:1008300002D4616C11B903E0E16B09B1204688472D
:10084000606DA8B3606DC0072ED00521A80A84F89A
:10085000351021680A6822F001020A60009A01320C
:10086000824200921AD80A68D20717D0009A013241
:100870008242009212D80A68D2070FD0009A013241
:10088000824200920AD80A68D20707D0009A013241
:100890008242009202D80A68D207DFD1002084F891
:1008A0003400012084F83500E16C09B12046884706
:1008B00001B0F0BD2DE9F041044600F0B5F9002C7F
:1008C00004BF0120BDE8F0810546002084F8340013
:1008D000022084F835002168086820F001000860D3
:1008E0000868C00704D110E021680868C0070CD070
:1008F00000F09AF9401B0528F6D903252023032090
:10090000636584F83550BDE8F08148F23F0208681D
:10091000D4E9013504F10C08CFF2100200EA020C10
:1009200098E8C101D4E9072E43EA0C032B4318438E
:10093000636A30433843042B40EA080040EA02006F
:1009400040EA0E021DD1D4E90BE042EA0E02BEF1EC
:10095000000F40EA020008604869A26A20F0030024
:1009600040EA020040F0040C11D0B8F5005F34D02A
:10097000B8F1000F42D1022A43D0012A37D032B950
:100980003FE00A60486920F0070040EA030C6FF07E
:100990000F0040F2FF32C1F814C00023012550FAC5
:1009A00081F091434AF6AB22CAF6AA225F2888BF9B
:1009B0000431A165A0FB0202100946F23412C0F610
:1009C0000202105C3F22E06502FA00F0886000201D
:1009D000636584F83550BDE8F081032AD7D8012536
:1009E00040230120DFE802F0020D0203F0E7AEF140
:1009F000C070B0FA80F0400938B9C8E7032A04D3C0
:100A0000C5D1CEF300600028C1D0012540230120CC
:100A1000636584F83550BDE8F0810000B0B5044648
:100A200000F002F9054640F20000611CC2F200002D
:100A3000007818BF044400BF00F0F6F8401BA04245
:100A4000FAD3B0BD2DE9F04F82B041F20003072286
:100A50004FF0010E00264FF00008C4F20203984246
:100A600000F13E4308BF042203F1FF734FEAB327AE
:100A7000042F4FF0000738BF4FEAB32200920A68F4
:100A80000EFA08F912EA090F0FD100BF0236043737
:100A900008F10108202E04BF02B0BDE8F08F0A68FB
:100AA0000EFA08F912EA090FF0D0D1F804C00CF0E0
:100AB000030AAAF10102012A16D803228468CD682C
:100AC0004FEA480BB2409443B5406FEA020E25430B
:100AD0008560CCF30015446805FA08F524EA09049A
:100AE000254345600EE000BF0322BAF1030FB34671
:100AF00002FA06F26FEA020E04D1B3464FF0030A7F
:100B000021E000BFC2688C68BAF1020F02EA0E024F
:100B100004FA0BF442EA0402C26014D107F01C028A
:100B20000F2303FA02F56FF0030303EA58040444A9
:100B3000236AAB430D6905FA02F21A432262D1F827
:100B400004C00CF0030A03680AFA0BF21CF4403FDD
:100B500003EA0E034FF0010E42EA0302026095D051
:100B6000002207F00C050F24019243F64402AC402A
:100B7000C4F202021346126842F480421A601A68F4
:100B800043F60043C4F2010302F480429C46019202
:100B900028F003021A44019B4FF60843CFF6FF7377
:100BA0009A46D358A343009C04FA05F52B4342F818
:100BB0000A30DCF800204D6842EA0903EC0358BF14
:100BC00022EA0903CCF80030AC03DCF8042042EA46
:100BD000090358BF22EA0903CCF80430EC02DCF820
:100BE000082042EA090358BF22EA090343F60C42EF
:100BF000CCF80830AD02C4F201021446126842EA91
:100C0000090358BF22EA090323603FE7426902EA69
:100C10000103914341EA034181617047002A08BF03
:100C200009048161704700004AF27450C2F200006A
:100C30000068704740F200004AF27451C2F20000AE
:100C4000C2F2000100780A68104408607047000092
:100C500080B543F60040C4F20200016841F400711F
:100C60000160016841F480610160016841F48071B4
:100C70000160032000F084F80F2000F005F800F078
:100C800025F8002080BD000070B540F20006044643
:100C90004FF47A71C2F200063078B1FBF0F040F206
:100CA0008401C2F200010968B1FBF0F002F0C6F85D
:100CB00001250F2C08D838B94FF0FF30214600220B
:100CC000002500F02FF87460284670BD82B043F60E
:100CD000400100200190C4F202014A6842F48042BF
:100CE0004A604A6802F480420192019A00900868C2
:100CF00040F080500860086800F080500090009834
:100D000002B070470028B8BF704700F01F010122F1
:100D1000400902FA01F14EF20012CEF2000242F84E
:100D20002010704710B500F00F034EF60C5E00F176
:100D3000604CB0F1FF3FA3F10403CEF2000E734408
:100D400003F10C04C8BF0CF56444DEF800004FF05A
:100D5000FF3CC0F30220C31E80F0070038BF002311
:100D6000042828BF04200CFA00F021EA00000CFA45
:100D700003F1984022EA010108430001207010BDF0
:100D80004EF60C514FF6FF03CEF200010A681A40EE
:100D900060F30A2242F0806040F0FD700860704706
:100DA00070470000006841620020704780B5D0F8AD
:100DB00000E00029DEF824003BD0DEF82830B1F155
:100DC000010C00EB13432CD0002000210EEB80001F
:100DD000D0F8040103EB104341F00100C0B2844598
:100DE0001FD90EEB8000D0F8040103EB104341F053
:100DF0000200C0B2844514D90EEB8000D0F8040183
:100E000003EB104341F00300C0B2844509D90EEB57
:100E100080000431D0F8040103EB1043C8B28445CC
:100E2000D4D80EEB8C0043EA0241C0F80411002034
:100E300080BD40EA0240CEF82800002080BD0000BE
:100E4000D0F8040404F0F4BDC1EBC10200EB82024F
:100E5000926CD0F8040404F061BD0000C1EBC10243
:100E600000EB8202D2F80822D0F8040404F0AABDF4
:100E7000D0F8040404F0DEBD10B5044601F00F0004
:100E8000090609D4C0EBC001002204EB810181F8FE
:100E9000FD2101F5FE7107E0C0EBC001012204EB6A
:100EA000810181F83D203C31087094F8BC03012891
:100EB00004BF022010BD012084F8BC03206805F0A7
:100EC0001DFB002084F8BC0310BD0000B0B5044633
:100ED00001F00F006268904282BF01252846B0BD34
:100EE000090609D4C0EBC001002204EB810181F89E
:100EF000FD2101F5FE7107E0C0EBC001012204EB0A
:100F0000810181F83D203C31002508708D7094F8F6
:100F1000BC03012802BF02252846B0BD012084F889
:100F2000BC03206805F0D4FD284684F8BC53B0BD4E
:100F300010B5044690F8BC03012804BF022010BD80
:100F400001200A0684F8BC03206805D405F01CFFC4
:100F5000002084F8BC0310BD01F00F0105F044FF30
:100F6000002084F8BC0310BD01F00F01C1EBC101EA
:100F700000EB8100D0F814027047000010B5044661
:100F800001F00F00090609D4C0EBC00104EB810C8D
:100F900000218CF8FD110CF5FE7108E0C0EBC001DA
:100FA00004EB810C01218CF83D100CF13C018A60AE
:100FB000CB7008704A78002A18BFC880022B04BF83
:100FC0000020087194F8BC03012804BF022010BD62
:100FD000012084F8BC03206805F054F9002084F84F
:100FE000BC0310BD80B501F00F0CCCEBCC0100EBC5
:100FF000810E0021CEE98431CEF808228EF8FD1151
:101000008EF8FCC10EF5FE710369012B08BFCEF806
:101010000C22DAB20068BCF1000F03D005F0A8FD85
:10102000002080BD05F0A6FC002080BDB0B50446C0
:10103000406801F00F05854284BF0120B0BD08065D
:1010400009D4C1EBC100002104EB800080F8FD1140
:1010500000F5FE7108E0C5EBC500012104EB80003E
:1010600080F83D1000F13C0101200D70887094F86B
:10107000BC23012A04BF0220B0BD84F8BC03206851
:1010800005F04EFD1DB1002084F8BC03B0BD217CED
:10109000206804F5717205F0EDFC002084F8BC03B3
:1010A000B0BD000010B501F00F0C0024CCEBCC015A
:1010B00000EB810E714601F83CCFC1E905340123F4
:1010C000CA604B700369012B08BFCEF84C20DAB21E
:1010D0000068BCF1000F03D005F04AFD002010BDF0
:1010E00005F048FC002010BD2DE9F04F87B0D0F886
:1010F00000908346484605F0B5FE10B107B0BDE844
:10110000F08FDBF8000005F0DBFE0028F6D0DBF8FE
:10111000000005F0D5FE0146DBF80000890742BF5C
:10112000416901F00201416105F0CAFE0146DBF8A8
:101130000000C9063FD5816921F010018161D9F80D
:101140002040C4F3434004F00F0506281CD00228B9
:101150002BD147F6F070044027D0C5EBC50022091B
:101160000BEB80054846D5F8081205F0ADFED5F822
:101170000802D5F8141200EB1410C5F8080201EBB0
:101180001410C5F8140210E00BF5717148460822DE
:1011900005F09AFEC5EBC5000BEB8000D0F81412E9
:1011A000C4F30A121144C0F81412DBF8000081697C
:1011B00041F01001816105F083FE000340F1CF8012
:1011C000DBF8000005F05AFE002800F0C8800BF59F
:1011D00071710BF501754FF430644FF00008069102
:1011E000002100BF8246C00700F0AF805FFA88F69A
:1011F000DBF80000314605F05BFE0746C0074FD024
:1012000009EB040001218160DBF8000004EB000C15
:10121000036CDCF80820DBF81010012923D111073A
:1012200030D4910676D412F0280F39D143F20B0155
:10123000C4F654718B4202D312F400412BD1D5E98C
:101240000012DCF81030B8F1000F6FF3DF43A1EBB0
:10125000030311442B61696055D1DBF8101200299A
:1012600051D101214CE043F20B01C4F65471FF311E
:101270008B423ED110040ED4900644BF2020CCF8FF
:10128000080040E043F20B00C4F65470834207D3D9
:1012900012F4004004D04FF40040CCF8080000BF26
:1012A00038073DD509EB0400082143F20B038160A8
:1012B000C4F65473DBF80010013B0A6C60188168B7
:1012C0009A4212D9090444BF4FF400418160584644
:1012D00000F018FCDBF81000012821D1DBF8000039
:1012E000069A012105F0C6FB1AE0584600F00AFCF8
:1012F00016E0B8F1000F06D1DBF8101219B9002181
:10130000069A05F0B7FB58463146FFF7A7FD3807A8
:10131000C8D405E02020CCF808003807C2D400BFAC
:10132000F80642BF09EB040010218160B8064FF0B7
:10133000000142BF09EB040020228260B80442BFD2
:1013400009EB04004FF4005282601C3520344FEA50
:101350005A0008F10108B1EB5A0F7FF443AFDBF8F4
:101360000000CDF80C9005F0ABFD400340F1C680C5
:10137000DBF8000005F07AFD002800F0BF800BF5D7
:10138000717100274FF00008CDF810B0019103995A
:1013900001F51064029400BF8246C00700F0A680E9
:1013A000DBF800005FFA88F1069105F06FFD039A03
:1013B0000646C0072AD008F00F000123D2F83418DF
:1013C00003FA00F021EA0000C2F8340804EB4810E8
:1013D0008360DBF81000012814D1C8EBC800B8F115
:1013E000000F0BEB8000D0E911121144816409D188
:1013F000DBF8500030B9DBF80000019A012105F05C
:1014000039FB00BF06995846FFF71EFD300742BF63
:1014100004EB481008218160F00642BF04EB48103D
:1014200010218160700642BF04EB481040218160AA
:10143000B00742BF04EB481002218160300655D549
:10144000C8EBC8000BEB8001894659F8502F4D4678
:1014500055F8040F824249D30C46DBF80060131A9A
:1014600054F8447FBB4288BF3B4603F1030C05960A
:1014700006EB4813D3F81879BFB2B7EB9C0F22D311
:1014800003F5106B01F1480782421CD9049E2368C2
:101490003968367C0096161A9E4288BF1E46DDE9E2
:1014A0000502B3B205F05CFE3868F11C30443860C8
:1014B000286830442860DBF81830D9F800209BB247
:1014C000B3EB910FE0D2DDF810B0029C82424FF0F6
:1014D00000070BD8059A08F00F00012101FA00F06F
:1014E000D2F8341821EA0000C2F834084FEA5A0052
:1014F00008F10108B7EB5A0F7FF44EAFDBF800009C
:1015000005F0DEFC002828DBDBF80000039C05F07A
:10151000D7FC000541D4DBF8000005F0D1FCC00485
:101520004CD5D4F80408102120F00100C4F80408B8
:10153000DBF8000005F058FCDBF8042004F500603F
:10154000002A00F00A81531E02F00301032B38D257
:101550000022002940F0B180FFE0039CD4F8040889
:1015600020F00100C4F804089BF8F403012807D117
:10157000002000218BF8F4035846FFF711FC02E02D
:10158000584600F0A3FADBF80000416901F0004181
:10159000416105F095FC0005BDD5D4F80808C007E9
:1015A00002D0584600F0D6FADBF80000416901F499
:1015B0000061416105F084FCC004B2D4DBF8000096
:1015C000F8E08B1A00224FF67F3700BFA6180433CD
:1015D00002F18002C6F80879D6F8005925F4001502
:1015E000C6F80059D6F8005945F00065C6F800590C
:1015F000C6F8087BD6F8005B25F40015C6F8005B3A
:10160000D6F8005B45F00065C6F8005BC6F828799F
:10161000D6F8205925F40015C6F82059D6F82059D7
:1016200045F00065C6F82059C6F8287BD6F8205B3F
:1016300025F40015C6F8205BD6F8205B45F0006560
:10164000C6F8205BC6F84879D6F8405925F400154D
:10165000C6F84059D6F8405945F00065C6F84059DB
:10166000C6F8487BD6F8405B25F40015C6F8405B09
:10167000D6F8405B45F00065C6F8405BC6F868796F
:10168000D6F8605925F40015C6F86059D6F86059A7
:1016900045F00065C6F86059C6F8687BD6F8605B0F
:1016A00025F40015C6F8605BD6F8605B45F0006570
:1016B000C6F8605B8AD100294FD004F510674FF659
:1016C0007F3604F53063012907EB0205AE60BD5893
:1016D00025F40015BD50BD5845F00065BD5003EB25
:1016E0000205AE609D5825F400159D509D5845F0AB
:1016F00000659D5031D002F12005022907EB050459
:10170000A6607C5924F400147C517C5944F0006498
:101710007C5103EB0504A6605E5926F400165E5169
:101720005E5946F000665E5117D002F140014FF657
:101730007F367A1896607A5822F400127A507A58D6
:1017400042F000627A505A1896605A5822F40012F9
:101750005A505A5842F000625A50C16941F0011182
:10176000C161DBF8301041B1D0F8841041F00B01B9
:10177000C0F8841000F1440106E0416942F22B02F6
:101780001143416100F110010A6842F00B020A6046
:101790000BF57172016821F4FE6101609BF8101075
:1017A000DBF8000005F066F9DBF80000416901F4A0
:1017B0008051416105F084FB0146DBF8000089049B
:1017C0001AD504F0A7FDDBF8000005F03DFBCBF8CF
:1017D0000C00DBF8005000F035FB9BF80C200146B4
:1017E000284605F033FC584600F05EF9DBF80000AF
:1017F000416901F40051416105F062FB00073FD4EB
:10180000DBF8000005F05CFBC00246D5584600211D
:1018100000F058F8DBF80000416901F480114161E3
:1018200005F04EFB80023ED55846002100F04EF8F0
:10183000DBF80000416901F40011416105F040FB53
:10184000400036D55846FFF7FBFADBF80000416947
:1018500001F08041416105F033FB40077FF54EAC5C
:10186000DBF800004468610704D55846FFF700FB29
:10187000DBF8000041682143416007B0BDE8F08F0C
:10188000584600F027F9DBF80000416901F0080133
:10189000416105F015FBC002B8D4DBF8000005F08B
:1018A0000FFB8002C0D4DBF8000005F009FB40000C
:1018B000C8D4DBF8000005F003FB40077FF51EAC41
:1018C000CEE70000D0F8040404F01AB9D0F80404FC
:1018D00004F028B92DE9F04F8BB0A0B30446056899
:1018E00090F8BD0328B9002084F8BC03204600F01E
:1018F00097F8032084F8BD03E86BC0055CBF0020A7
:101900002061206805F030F8206804F1040E04F12D
:101910001C0A0A909EE80E589AE8C007D4E90C50B9
:10192000CDE9085003A88DE8005880E8C0070A9860
:1019300004F000FD60B10220012584F8BD032846B3
:101940000BB0BDE8F08F012528460BB0BDE8F08F45
:1019500020680021002505F037FB616861B3012094
:1019600000230022C3EBC303D7B204EB8303A3F825
:10197000427083F83C20013283F83D001D65C3E9C5
:10198000115583F83F50D3B29942EBD80020002381
:10199000002200BFC3EBC30304EB8303C3F81002B0
:1019A000C3E9810083F8FF0183F8FC21013283F849
:1019B000FD01D3B29942EDD8A06804F1140E04F1F0
:1019C000240A22680A90D4E903379EE840589AE82E
:1019D0000007D4E90C50CDE9085002A8CDE9007603
:1019E00080E8005805A880E8000710460A9A04F02D
:1019F000E7FD38B10220012584F8BD0328460BB06D
:101A0000BDE8F08F0025012084F8385084F8BD032C
:101A1000206804F0C7FD28460BB0BDE8F08F000039
:101A2000B0B586B000240594CDE90344CDE9014466
:101A30000068B0F1A04F01D006B0B0BD009443F6ED
:101A40003005C4F20205286840F0010028602868CB
:101A500000F00100009000980A2005900320CDE9D5
:101A60000340022002904FF4C05001900020C4F2C5
:101A7000020001A9FEF7E6FF686840F08000686098
:101A80000094686940F480406861686900F48040AF
:101A900000900098432000210022FFF743F94320E3
:101AA000FFF730F906B0B0BD10B50446C068022893
:101AB00018BFFEF7D3FDD4F80404012104F0A8F800
:101AC000D4F80404BDE8104004F054B8D0F804047D
:101AD00004F082B8D0F8040404F088B810B50446C5
:101AE00090F8BC03012804BF022010BD012084F837
:101AF000381084F8BC03206805F098FA002084F8B8
:101B0000BC0310BDD0F8042400F57171104604F038
:101B10008DB8000010B5044690F8BC03012804BF3E
:101B2000022010BD0121206884F8BC13A16A01299C
:101B300006D1A16901291EBF816B41F48031816307
:101B400005F01CF9206804F01FFD002084F8BC0398
:101B500010BD000010B50446D0F8040404F0AAF843
:101B60002068D0F8001E41F00101C0F8001E206A74
:101B7000002808BF10BD4EF61050CEF200000168DC
:101B800041F00601016010BDF0B581B00446006867
:101B900010F0050F2DD0682743F670060020C4F220
:101BA0004727C4F202063860FFF73EF8054600BF3B
:101BB00056F8700C000105D5FFF736F8401B0228D7
:101BC000F6D93DE0D4E90101090741EA80107061CE
:101BD00001203860FFF728F8054600BF56F8700C62
:101BE000000105D4FFF720F8401B0228F6D927E0B2
:101BF0002068810766D543F67006002047F200078B
:101C00000090C4F20206C4F2000756F8300C40F00F
:101C1000805046F8300C56F8300C00F080500090A0
:101C20000098386840F480703860FEF7FDFF054684
:101C30003868C00507D4FEF7F7FF401B0228F7D924
:101C4000032001B0F0BD306810F4407022D0E1688C
:101C500001F4407188421DD0306840F64061012295
:101C6000C4F247210A60002220F440700A6030600C
:101C70003068C0070ED0FEF7D7FF054641F288371F
:101C80003068800706D4FEF7CFFF411B0320B9421E
:101C9000F6D924E0E06856F8682C4FF6FF41C0F60C
:101CA000FF7100F4407322F4F81201406FF31F300B
:101CB000B3F5407F08BF0A4346F8682C31680843F3
:101CC0003060206800075EBF002001B0F0BD40F624
:101CD0004061207CC4F24721C1F8A003002001B07C
:101CE000F0BD00002DE9F041002800F0A88043F687
:101CF000080804460D46C4F20208D8F8F80300F0BC
:101D00000700884208D288F8F853D8F8F80300F0A2
:101D10000700A84240F093802068810717D541074B
:101D200042BFD8F8001041F4E051C8F80010010794
:101D300042BFD8F8001041F46041C8F80010D8F84C
:101D40000010A26821F0F0011143C8F80010C0078C
:101D500036D06068811E022907D258F8081C890114
:101D60005CBF0120BDE8F0810DE0012807D158F8E3
:101D7000081C89035CBF0120BDE8F08103E058F82E
:101D8000081C89075BD5D8F8001021F0030108432F
:101D9000C8F80000FEF748FF064641F2883707E022
:101DA000FEF742FF801BB84284BF0320BDE8F081EC
:101DB000D8F80000616800F00C00B0EB810FEFD1A3
:101DC000D8F8F80300F00700A84207D988F8F853BC
:101DD000D8F8F80300F00700A84230D12068410786
:101DE00007D5D8F80010E26821F4E0511143C8F893
:101DF0000010000708D5D8F80000216920F46040E1
:101E000040EAC100C8F8000000F022F8D8F800103D
:101E100045F66272C0F60202C1F30311515CC8407C
:101E200040F28401C2F20001086040F20400C2F2F4
:101E300000000068FEF728FF0020BDE8F0810120C7
:101E4000BDE8F08140F28400C2F2000000687047F3
:101E500010B543F60404C4F20204606800F00C00FC
:101E600008280AD0042819BF42F20040C0F2F4004A
:101E700047F64000C0F27D1010BD226820680023A4
:101E8000400202F03F0247F64000C0F27D105CBF06
:101E900042F20040C0F2F4002168C1F38811A0FBB7
:101EA0000101FEF707FA21680222C1F3014102EBAA
:101EB0004101B0FBF1F010BD2DE9F04182B00028E6
:101EC00000F051810446007843F60006C4F2020691
:101ED000C00744D0B06800F00C00042805D1306879
:101EE00080033CD56068D0BB3DE1B06800F00C00D9
:101EF000082802D170684002F1D46768B7F5803FC6
:101F000006D03068B7F5A02F13D140F480203060A0
:101F1000306840F480303060FEF786FE054600BF32
:101F2000306880031BD4FEF77FFE401B6428F7D97E
:101F3000B6E020F480303060306820F480203060DB
:101F4000FEF772FE0546002FEAD13068800306D501
:101F5000FEF76AFE411B03206429F6D949E1207887
:101F600080072FD5B06810F00C0F07D0B06800F0D4
:101F70000C0008280AD17068400207D43068800736
:101F800019D5E068012840F0EE8014E0E0680028F0
:101F900000F08A8000200121C4F247200160FEF792
:101FA00043FE05463068800705D4FEF73DFE401B22
:101FB0000228F7D974E03068216920F0F80040EA7F
:101FC000C10030602078000723D561690020C4F289
:101FD000472071B10121C0F8801EFEF725FE05469D
:101FE000706F800715D4FEF71FFE401B0228F7D93B
:101FF00056E00021C0F8801EFEF716FE054600BF21
:10200000706F800705D5FEF70FFE401B0228F7D939
:1020100046E02078400779D5306C4FF00008C000CA
:102020000CD4CDF804804FF00108306C40F08050A3
:102030003064306C00F080500190019847F2000746
:10204000C4F200073868C0050FD4386840F48070C7
:102050003860FEF7E9FD05463868C00505D4FEF78F
:10206000E3FD401B0228F7D91AE0A768012F05D02D
:10207000306F052F2BD140F004003067306F40F0F7
:1020800001003067FEF7D0FD054641F2883700BFFA
:10209000306F800733D4FEF7C7FD401BB842F7D935
:1020A000032002B0BDE8F08100200021C4F24720E7
:1020B0000160FEF7B9FD0546306880077FF582AF05
:1020C000FEF7B2FD411B03200229F5D991E020F073
:1020D00001003067306F20F004003067FEF7A4FD88
:1020E0000546002FD1D141F28837306F800706D5E1
:1020F000FEF79AFD411B0320B942F6D979E0B8F109
:10210000000F1EBF306C20F080503064A769002F94
:102110006ED0B06800F00C00082828D1012F22D022
:102120007068E16900F480028A421CD1216A00F0E3
:102130003F028A4217D147F6C071626A0140B1EB93
:10214000821F10D1A16A4FF6FF72C903914300F4B8
:102150004032A1F580318A4205D1E16A00F0706019
:10216000B0EB016F44D0012002B0BDE8F08140F235
:1021700000080020C4F24728C8F86000FEF754FDAC
:102180000546022F0AD100BF3068800110D5FEF746
:102190004BFD411B03200229F6D92AE0306880015B
:1021A00026D5FEF741FD411B03200229F6D920E088
:1021B00004F11C078FCF0843D90340EA82104FF681
:1021C000FF72914340EA0760A1F5803108437060D7
:1021D0000120C8F86000FEF727FD04463068800142
:1021E00006D4FEF721FD011B03200229F6D900E0E9
:1021F000002002B0BDE8F081002804BF0120704734
:10220000B0B50446407F20B900202077204600F07A
:1022100061F802206077CA20216848625320486232
:10222000C868400611D44FF0FF30C860FEF7FCFCD0
:10223000054600BF2168C868400606D4FEF7F4FCD6
:10224000401BB0F57A7FF5D92EE04FF6BF72886853
:10225000CFF68F72104088606068D4E90423104381
:102260008A68184310438860E0680861A0680A69BA
:1022700042EA00400861C86820F08000C8608868B1
:10228000800618D4C86820F0A000C860FEF7CCFC17
:10229000054600BF2168C86880060CD4FEF7C4FC60
:1022A000401BB0F57A7FF5D9216801200422FF2375
:1022B0004B626277B0BD086C20F480200864A0698E
:1022C0000A6C1043012208640020FF234B626277EE
:1022D000B0BD000080B586B000210591CDE90311A5
:1022E000CDE9011142F600010068C4F20001884204
:1022F00001D006B080BD4FF48070049002200190A0
:1023000001A8FFF741FC002818BFFEF7A7F940F627
:102310003C600121C4F24720016006B080BD00008E
:102320002DE9F041037F04460220012B08BFBDE8E0
:10233000F08160770120002A207706D04878CA789B
:102340008F78000240EA02484FE04878C20642BF58
:1023500000F0EF000A304870CA780A2A10D34CF611
:10236000CD470A3AD3B2CCF6CC47A3FB0737FF08D8
:10237000102303EB071307EB8707A2EB470200E0EC
:1023800000231A43C3B2D2B20A2B4FEA024210D33F
:102390004CF6CD470A38C3B2CCF6CC47A3FB07377F
:1023A000FF08102303EB071307EB8707A0EB470099
:1023B00000E000231843C0B242EA002888780A28C7
:1023C00010D34CF6CD430A38C2B2CCF6CC43A2FBB4
:1023D0000323DB08102202EB031203EB8303A0EBC1
:1023E000430000E0002242EA00070E782168CA207C
:1023F000486253204862C868400610D44FF0FF304E
:10240000C860FEF711FC05462168C868400606D47E
:10241000FEF70AFC401BB0F57A7FF5D920E0F8B250
:10242000720340EA080020F0C00010434860C8680A
:1024300020F08000C8608868800615D4C86820F045
:10244000A000C860FEF7F0FB054600BF2168C86821
:10245000800609D4FEF7E8FB401BB0F57A7FF5D97A
:1024600021680120042201E000200122FF234B62A9
:10247000002121776277BDE8F0810000F0B581B0DE
:102480000D46017F04460220012900F0B6806077E6
:102490000120002A20772168886800F040000FD0D2
:1024A000002807BF0020E870E87800046B782A78DD
:1024B000AF781B0243EA02423A4442EA00074FE087
:1024C000002804BF0020E87028780A2810D34CF6B2
:1024D000CD430A38C2B2CCF6CC43A2FB0323DB08BF
:1024E000102202EB031203EB8303A0EB430000E096
:1024F000002210436A78C0B200040A2A10D34CF6B6
:10250000CD470A3AD3B2CCF6CC47A3FB0737FF0836
:10251000102303EB071307EB8707A2EB470200E04A
:1025200000231A43D2B240EA0220AA780A2A10D322
:102530004CF6CD470A3AD3B2CCF6CC47A3FB0737CB
:10254000FF08102303EB071307EB8707A2EB4702F3
:1025500000E000231A43D2B21043EA7840EA02476F
:10256000CA20486253204862C868400611D44FF020
:10257000FF30C860FEF758FB064600BF2168C868F8
:10258000400606D4FEF750FB801BB0F57A7FF5D9E4
:1025900028E047F67F70C0F27F0038400860886806
:1025A00020F480208860D5E903028B68104318432B
:1025B0008860C86820F08000C8608868800615D4EC
:1025C000C86820F0A000C860FEF72EFB054600BFDB
:1025D0002168C868800609D4FEF726FB401BB0F5C9
:1025E0007A7FF5D921680120042201E00020012230
:1025F000FF234B6200212177627701B0F0BD00001C
:1026000070B550B1D0F824C00446BCF1000F07D01B
:102610000021216104F1140108E00125284670BD64
:102620006168B1F5827F03D004F11C0100220A60C9
:1026300000254FF0000EA56294F8511041B92046D4
:1026400084F8505000F040F8D4E909C101F4005E6C
:10265000022284F851202268136823F0400313609B
:10266000D4E90130D4E9031603F4827300F4044082
:1026700001F400611844084406F00201084461694D
:1026800001F001010844A16901F400731844E369F1
:1026900003F038031844236A03F08003184340EA28
:1026A0000E001060042000EA11400CF010010844F4
:1026B0005060D06920F40060D0610120656584F825
:1026C0005100284670BD00002DE9F04F87B000256D
:1026D00043F6000104460695CDE90455CDE90255BF
:1026E000C4F200010068884273D043F20001C4F2D2
:1026F0000101884240F0D18043F63000002740F2CB
:10270000004502AE4FF005094FF0030A4FF0020BEF
:102710004FF040080197C4F20200C4F2020541697B
:1027200041F480514161416901F480510191019965
:102730000197016841F001010160016801F00101A8
:10274000019101990197016841F002010160314650
:10275000006800F0020001900198CDF81890CDE9D2
:10276000047ACDF80CB0CDF80880A5F58060FEF7AE
:1027700069F92820CDE905A9CDE903B731460290D2
:102780002846FEF75FF948F66C4546F258024FF4CA
:1027900080304FF0C061C4F20202C2F20005C5E908
:1027A000080702F580624FF48060C5E90021C5E9A1
:1027B0000287C5E904072846C5E90677FEF77AF8D7
:1027C000002868D0FDF74AFF48F66C45C2F20005C4
:1027D00061E043F630000195C4F20200016941F462
:1027E00080410161016901F48041019101990195E4
:1027F000016841F00201016002A9006800F00200D6
:1028000001900198052006900320CDE90450022094
:1028100003904FF46040029040F20040C4F2020086
:10282000FEF710F948F6CC4646F258074FF4806898
:10283000C2F20006C4F202073046C6E90855C6E9EE
:102840000075C6E90255C6E90485C6E90655FEF7D6
:1028500031F8002818BFFDF701FF48F62C5500207D
:10286000402107F11802E664B463C2F20005C5E92D
:102870000800C5E90020C5E90210C5E90480C5E9E2
:1028800006002846FEF716F828B1FDF7E7FE48F6E1
:102890002C55C2F20005A564AC6307B0BDE8F08F0B
:1028A0002DE9F04383B0044690F85000012802BFA0
:1028B000022003B0BDE8F0834FF001091D46164623
:1028C0000F4684F85090FEF7AFF9804694F8510017
:1028D000012877D1002F4FF0010018BF002E00F023
:1028E000E480032084F8510000206065E686A68617
:1028F0002763A087A063C4E91000E087A16820686F
:10290000B1F5004F07D1016821F040010160016875
:1029100041F480410160016849065EBF016841F0F1
:10292000400101606268711EE368B1FA81F1B2FA98
:1029300082F24909B3F5006F4FEA521241EA0201EF
:1029400042D131B137F8021BC1602763E18E0139F2
:10295000E186E18E002979D0691C02D11DE000BF1B
:102960002068816889070BD4FEF75EF9A0EB0800A8
:10297000A84280F0CC80E08E0028F1D166E000BF54
:10298000216B31F8022BC2602163E08E0138E086B2
:10299000E08E0028E4D159E020688168890705D4D9
:1029A000FEF742F9E08E0028F6D14FE0216B31F8B6
:1029B000022BC2602163E08E0138E086E08E0028A1
:1029C000EAD143E0022070E039B139780173206B1D
:1029D00001302063E08E0138E086E08EB0B3681CE1
:1029E0001ED000BF2068816889070BD4FEF71CF950
:1029F000A0EB0800A84280F08C80E08E0028F1D186
:102A000024E000BF216B09780173206B0130206343
:102A1000E08E0138E086E08E0028E3D116E000BFAA
:102A200020688168890705D4FEF7FEF8E08E00284B
:102A3000F6D10BE0216B09780173206B0130206324
:102A4000E08E0138E086E08E0028E9D140F2840073
:102A500049F68171C2F20000C1F25E610068A0FB1C
:102A60000101480D4FF47A71484302906068B0F557
:102A7000827F23D1204680212A46434602F0F2FB82
:102A800028B1606D40F02000606520206065A0687E
:102A900038B9002001902068C168019180680190D8
:102AA0000198606D002818BF0120002184F85010A3
:102AB00084F8519003B0BDE8F08300BF029800286D
:102AC000E5D0029801380290206880680006DED5C3
:102AD00002980028DBD002980138029020688068B4
:102AE0000006D4D502980028D1D00298013802906F
:102AF000206880680006CAD502980028C7D00298CE
:102B000001380290206880680006D7D4BFE7032010
:102B1000CBE70320C9E700002DE9F04383B004466A
:102B200090F85000012802BF022003B0BDE8F083F6
:102B300001201E4615460F4684F85000FEF774F833
:102B400094F85110814601290CD06068B0F5827F5D
:102B500040F09F800220042940F09C80A168002959
:102B600040F09880002F4FF0010018BF002D00F0BA
:102B70009180002E00F08E8094F85100DDF82880BE
:102B800004281CBF052084F8510000206065E687FA
:102B9000A563A6872763C4E91000A686E686206899
:102BA000016849065EBF016841F04001016062684A
:102BB000711EE368B1FA81F1B2FA82F24909B3F504
:102BC000006F4FEA521241EA02016CD131B137F87D
:102BD000021BC1602763E08E0138E086012518F1F1
:102BE00001002FD0E08E18B9E08F002800F0C280DD
:102BF0002068816889070CD5E18E012D09D141B18A
:102C0000216B002531F8022BC2602163E18E01396E
:102C1000E1868168C9070AD0E18F41B1C068A16B24
:102C2000012521F8020BA163E08F0138E087FDF751
:102C3000FBFFA0EB09004045D4D303202AE000BFEE
:102C4000FDF7F2FFE08E18B9E08F002800F09280C7
:102C50002068816889070CD5E18E012D09D141B129
:102C6000216B002531F8022BC2602163E18E01390E
:102C7000E1868168C907E3D0E18F0029E0D0C06810
:102C8000A16B012521F8020BA163E08F0138E087D9
:102C9000D6E70220002184F85010012184F8511059
:102CA00003B0BDE8F08339B139780173206B01308E
:102CB0002063E08E0138E086012518F1010031D053
:102CC000E08E10B9E08F002854D020688168890711
:102CD0000ED5E18E012D0BD151B1216B0025097864
:102CE0000173216B206801312163E18E0139E18696
:102CF0008168C9070BD0E18F49B1C068A16B01257C
:102D00000870A06B0130A063E08F0138E087FDF709
:102D10008BFFA0EB09004045D2D30320BAE700BFE8
:102D2000FDF782FFE08E08B9E08F18B32068816854
:102D300089070ED5E18E012D0BD151B1216B0025F4
:102D400009780173216B206801312163E18E01391B
:102D5000E1868168C907E3D0E18F0029E0D0C0682F
:102D6000A16B01250870A06B0130A063E08F0138D2
:102D7000E087D5E740F2840049F68171C2F2000095
:102D8000C1F25E610068A0FB0101480D4FF47A7149
:102D9000484302906068B0F5827F0FD120468021C1
:102DA00042464B4602F05EFA60B3606D40F0200090
:102DB00060652020606501206CE700BF029808B3C1
:102DC0000298013802902068806800061AD502989F
:102DD000C0B102980138029020688068000611D5C1
:102DE000029878B102980138029020688068000645
:102DF00008D5029830B102980138029020688068A6
:102E00000006DBD4A168002000297FF443AF0190C5
:102E10002168CA6801928968019101993AE7000026
:102E20004EF210010428CEF200010A6822F00403D9
:102E300008BF42F004030B6070470000411E0020F1
:102E4000B0EB116F1CBF012070474EF21002F0234F
:102E5000CEF2000251604EF62351CEF200010B700B
:102E600007219060116070477047000070470000B4
:102E7000002804BF0120704710B5044690F83D00BB
:102E800028B9002084F83C00204600F075F80220A4
:102E90004FF6FF73002184F83D00C4F20003C4F232
:102EA00001012068026898420FDC40F2FF73C4F20F
:102EB0000003984218DCB0F1804F21D040F200436B
:102EC000C4F2000398421BD02FE044F2FF33C4F257
:102ED0000103984219DC884212D044F20003C4F284
:102EE000010398421DD020E040F60003C4F2000325
:102EF000984205D040F60043C4F20003984214D132
:102F0000A36822F070021A430BE044F20043C4F2BB
:102F10000103984205D044F60003C4F2010398422D
:102F200003D1236922F440721A43A36922F080027C
:102F3000884242EA03020260E268C2626268826218
:102F400004BF62690A6301214161002084F84610D0
:102F500084F83E1084F83F1084F8401084F8411043
:102F600084F8421084F8431084F8441084F8451023
:102F700084F83D1010BD000044F200410068C4F226
:102F80000101884218BF704780B582B0002000223E
:102F9000019043F64400C4F20200016841F400319C
:102FA00001600321006800F40030019001981920AD
:102FB000FDF7B8FE192002B0BDE88040FDF7A2BEC3
:102FC00090F83D1001291CBF01207047022180F8B4
:102FD0003D100068C16841F00101C16040F6FF3159
:102FE000C4F2000188420FDCB0F1804F1DD040F2E6
:102FF0000041C4F20001884217D040F60001C4F23B
:103000000001884211D017E040F60041C4F20001EF
:1030100088420AD044F20001C4F20101884204D07F
:103020000021C4F20101884206D1816801F0070144
:10303000062904BF00207047016841F001010160CA
:10304000002070477047000010B504460068016911
:10305000890744BFC1685FEA81713BD401694907B0
:1030600044BFC1685FEA417150D40169090744BF98
:10307000C1685FEA017166D40169C90644BFC168CD
:103080005FEAC1617CD40169C9071CBFC1685FEAFE
:10309000C17140F093800169090644BFC1685FEACD
:1030A000016100F19A800169490644BFC1685FEA85
:1030B000416100F1A1800169890646BFC1685FEAEC
:1030C000816110BD6FF0200101612046BDE8104014
:1030D000FFF7CCBE6FF00201016101212177806909
:1030E000800703D02046FFF7ADFF05E0204600F043
:1030F0008BF8204600F08AF80020207720680169CC
:10310000490744BFC1685FEA4171AED56FF0040161
:10311000016102212177806910F4407F03D02046AD
:10312000FFF790FF05E0204600F06EF8204600F023
:103130006DF80020207720680169090744BFC16845
:103140005FEA017198D56FF00801016104212177D0
:10315000C069800703D02046FFF774FF05E02046D2
:1031600000F052F8204600F051F800202077206847
:103170000169C90644BFC1685FEAC1617FF583AFD9
:103180006FF01001016108212177C06910F4407FC0
:1031900003D02046FFF756FF05E0204600F034F844
:1031A000204600F033F80020207720680169C90725
:1031B0001CBFC1685FEAC1713FF46DAF6FF00101E0
:1031C0000161204600F024F820680169090644BF27
:1031D000C1685FEA01617FF566AF6FF08001016150
:1031E0002046FFF741FE20680169490644BFC168D7
:1031F0005FEA41617FF55FAF6FF0400101612046FA
:1032000000F048F8206856E770470000704700005B
:1032100010B540F24824C2F2000404F108018842CB
:1032200018BF10BD20880130208001201FF01CFF36
:103230002088B0F57A7F13D10020208021790131D8
:103240002171C9B23C290BD12071607901306071C4
:10325000C0B23C2804D100206071A0790130A07177
:103260001BF0ACFE48F21F512088C5F2EB11A0FB09
:1032700001125109642201FB120000B110BD40F29D
:1032800000404FF48061C4F20200BDE81040FDF739
:10329000BDBC000070470000FEE7000010B5002A2A
:1032A00008BF10BD01314FF0000C4FF0370E00BFCA
:1032B00081F800C00EEB1073040FB0F1204F38BF3F
:1032C00004F1300301F8013C013A01F102014FEA37
:1032D0000010EDD110BD00002DE9F04383B040F2A5
:1032E0001446054649F2B4149846174689460DF12E
:1032F000010101224FF6FF73C4F20206C2F200047C
:10330000306820F4807030602A208DF80100306829
:1033100020F0400030602046FFF7C2FA30680DF11F
:10332000020101224FF6FF7340F040003060306828
:1033300040F480703060280A8DF80200306820F078
:10334000400030602046FFF7ABFA30680DF1030112
:1033500001224FF6FF7340F0400030608DF80350BB
:10336000306820F0400030602046FFF799FA30685E
:1033700001A901224FF6FF7340F040003060380A87
:103380008DF80400306820F0400030602046FFF7E0
:1033900087FA30680DF1050101224FF6FF7340F006
:1033A000400030608DF80570306820F040003060DB
:1033B0002046FFF775FA30680DF1060101224FF63D
:1033C000FF7340F040003060306820F4807030605F
:1033D0002B208DF80600306820F040003060204639
:1033E000FFF75EFA306809F150050DF1070101227F
:1033F0004FF6FF7340F040003060306840F480705A
:103400003060280A8DF80700306820F040003060F6
:103410002046FFF745FA306802A901224FF6FF73F4
:1034200040F0400030608DF80850306820F04000D7
:1034300030602046FFF734FA306808F150050DF18E
:10344000090101224FF6FF7340F040003060280A66
:103450008DF80900306820F0400030602046FFF70A
:103460001FFA30680DF10A0101224FF6FF7340F098
:10347000400030608DF80A50306820F04000306025
:103480002046FFF70DFA30680DF10B0101224FF6CF
:10349000FF7340F040003060306820F4807030608E
:1034A0002C208DF80B00306820F040003060204662
:1034B000FFF7F6F9306840F040003060306840F4C3
:1034C0008070306003B0BDE8F08300002DE9F04764
:1034D000994616468A468046FFF7FEFE40F2144C97
:1034E000CA45C4F2020CDCF8000020F04000CCF821
:1034F000000000F24281B04519D900BF0AF1010075
:1035000080B2484500F239810AF1020080B2484594
:1035100000F233810AF1030080B2484500F22D81A8
:103520000AF1040A1FFA8AF04845E7D925E108980C
:103530004FF6FF73010AC2B243F20800C4F2010061
:10354000474600BF00240568AD075FBF05685FEA16
:10355000857505685FEA857536D40568AD075CBF7B
:1035600005685FEA85752FD40568AD075CBF0568FF
:103570005FEA857528D40568AD075CBF05685FEA1A
:10358000857521D40568AD075CBF05685FEA857560
:103590001AD40568AD075CBF05685FEA857513D46A
:1035A0000568AD075CBF05685FEA85750CD40568E2
:1035B000AD075CBF05685FEA857505D41134A5B217
:1035C0009D42C0D143E000BF002441600568ED0783
:1035D00001BF05685FEAC57505685FEAC57535D145
:1035E0000568ED0704BF05685FEAC5752ED105685B
:1035F000ED0704BF05685FEAC57527D10568ED07CB
:1036000004BF05685FEAC57520D10568ED0704BFF2
:1036100005685FEAC57519D10568ED0704BF05683F
:103620005FEAC57512D10568ED0704BF05685FEA5A
:10363000C5750BD10568ED0704BF05685FEAC57560
:1036400004D11134A5B29D42C0D100E045680024E8
:103650000568AD075FBF05685FEA857505685FEAC5
:10366000857535D40568AD075CBF05685FEA85756B
:103670002ED40568AD075CBF05685FEA857527D461
:103680000568AD075CBF05685FEA857520D40568ED
:10369000AD075CBF05685FEA857519D40568AD079D
:1036A0005CBF05685FEA857512D40568AD075CBF2D
:1036B00005685FEA85750BD40568AD075CBF0568D2
:1036C0005FEA857504D41134A5B29D42C0D141E0B2
:1036D000002442600568ED0701BF05685FEAC57513
:1036E00005685FEAC5753BD10568ED0704BF05684D
:1036F0005FEAC57534D10568ED0704BF05685FEA68
:10370000C5752DD10568ED0704BF05685FEAC5756D
:1037100026D10568ED0704BF05685FEAC5751FD1AE
:103720000568ED0704BF05685FEAC57518D105682F
:10373000ED0704BF05685FEAC57511D10568ED079F
:1037400004BF05685FEAC5750AD11134A5B29D4270
:10375000C0D100BF0137BDB2B5427FF6F3AE05E080
:1037600045680137BDB2B5427FF6ECAE0AF1010AF9
:103770001FFA8AF74F457FF6E3AEDCF8000040F011
:103780004000CCF80000BDE8F08700002DE9F04FC4
:1037900081B040F214454FF4507101224FF00108FE
:1037A000C4F20205A5F11400FDF738FA286820F4E8
:1037B00000702860C820FDF731F9286840F40070D7
:1037C0002860C820FDF72AF9C820FDF727F92868E6
:1037D00049F2B4140DF1030101224FF6FF73C2F256
:1037E000000420F48070286011208DF80300286800
:1037F00020F0400028602046FFF752F8286840F08B
:1038000040002860286840F480702860DC20FDF7C4
:1038100005F928680DF1030101224FF6FF7320F42A
:103820008070286036208DF80300286820F0400062
:1038300028602046FFF734F828680DF103010122C3
:103840004FF6FF7340F040002860286840F4807015
:103850002860C0208DF80300286820F04000286010
:103860002046FFF71DF828680DF1030101224FF6ED
:10387000FF7340F040002860286820F480702860C2
:103880003A208DF80300286820F040002860204688
:10389000FFF706F8286805260DF1030101224FF60F
:1038A000FF7340F040002860286840F48070286072
:1038B0008DF80360286820F0400028602046FEF75D
:1038C000EFFF28680DF1030101224FF6FF7340F06E
:1038D00040002860286820F480702860B2208DF8AD
:1038E0000300286820F0400028602046FEF7D8FF3B
:1038F00028680C270DF1030101224FF6FF7340F0F9
:1039000040002860286840F4807028608DF80370BB
:10391000286820F0400028602046FEF7C1FF286894
:103920000DF1030101224FF6FF7340F040002860C3
:103930008DF80370286820F0400028602046FEF7CC
:10394000AFFF28680DF1030101224FF6FF7340F02D
:103950004000286000208DF80300286820F0400017
:1039600028602046FEF79CFF28680DF10301012224
:103970004FF6FF73332740F04000286033208DF866
:103980000300286820F0400028602046FEF788FFEA
:1039900028680DF1030101224FF6FF734FF0330940
:1039A00040F0400028608DF80370286820F0400047
:1039B00028602046FEF774FF28680DF103010122FC
:1039C0004FF6FF7340F040002860286820F48070B4
:1039D0002860B7208DF80300286820F04000286098
:1039E0002046FEF75DFF28680DF1030101224FF626
:1039F000FF7340F040002860286840F48070286021
:103A000035208DF80300286820F04000286020460B
:103A1000FEF746FF28680DF1030101224FF6FF7300
:103A200040F040002860286820F480702860BB20A7
:103A30008DF80300286820F0400028602046FEF73B
:103A40002FFF28680DF1030101224FF6FF7340F0AC
:103A500040002860286840F48070286032208DF88B
:103A60000300286820F0400028602046FEF718FF79
:103A700028680DF1030101224FF6FF7340F040006A
:103A80002860286820F480702860C2208DF8030028
:103A9000286820F0400028602046FEF701FF2868D3
:103AA0000DF1030101224FF6FF7340F04000286042
:103AB000286840F4807028608DF80380286820F022
:103AC000400028602046FEF7EBFE28680DF1030158
:103AD00001224FF6FF7340F040002860286820F470
:103AE00080702860C3208DF80300286820F0400013
:103AF00028602046FEF7D4FE28680DF1030101225C
:103B00004FF6FF7340F040002860286840F4807052
:103B1000286015208DF80300286820F040002860F8
:103B20002046FEF7BDFE28680DF1030101224FF685
:103B3000FF7340F040002860286820F480702860FF
:103B4000C4208DF80300286820F04000286020463B
:103B5000FEF7A6FE28680DF1030101224FF6FF7360
:103B600040F040002860286840F4807028602020E1
:103B70008DF80300286820F0400028602046FEF7FA
:103B80008FFE28680DF1030101224FF6FF7340F00C
:103B900040002860286820F480702860C6208DF8D6
:103BA0000300286820F0400028602046FEF778FED9
:103BB00028680DF1030101224FF6FF7340F0400029
:103BC0002860286840F4807028600F208DF803007A
:103BD000286820F0400028602046FEF761FE286833
:103BE0004FF0D00B0DF1030101224FF6FF7340F0AF
:103BF00040002860286820F4807028608DF803B0A9
:103C0000286820F0400028602046FEF749FE28681A
:103C10000DF1030101224FF6FF7340F040002860D0
:103C2000286840F480702860A4208DF8030028687C
:103C300020F0400028602046FEF732FE28680DF193
:103C4000030101224FF6FF7340F040002860A120DD
:103C50008DF80300286820F0400028602046FEF719
:103C60001FFE28680DF1030101224FF6FF7340F09B
:103C700040002860286820F480702860E0208DF8DB
:103C80000300286820F0400028602046FEF708FE68
:103C900028680DF1030101224FF6FF7340F0400048
:103CA0002860286840F4807028608DF803B0286888
:103CB00020F0400028602046FEF7F2FD28680DF154
:103CC000030101224FF6FF7340F0400028600820F6
:103CD0008DF80300286820F0400028602046FEF799
:103CE000DFFD28680DF1030101224FF6FF7340F05C
:103CF000400028600E208DF80300286820F0400066
:103D000028602046FEF7CCFD286809270DF1030145
:103D100001224FF6FF7340F0400028608DF80370D9
:103D2000286820F0400028602046FEF7B9FD28688A
:103D30000DF1030101224FF6FF7340F040002860AF
:103D40008DF80370286820F0400028602046FEF7B8
:103D5000A7FD28680DF1030101224FF6FF7340F023
:103D6000400028608DF80360286820F0400028603B
:103D70002046FEF795FD286831260DF1030101224A
:103D80004FF6FF7340F0400028608DF8036028680C
:103D900020F0400028602046FEF782FD28680DF1E3
:103DA000030101224FF6FF7340F0400028608DF8B8
:103DB0000390286820F0400028602046FEF770FD40
:103DC00028680DF1030101224FF6FF7340F0400017
:103DD000286048208DF80300286820F04000286003
:103DE0002046FEF75DFD28680DF1030101224FF624
:103DF000FF7340F04000286017208DF8030028680A
:103E000020F0400028602046FEF74AFD28684FF069
:103E100014090DF1030101224FF6FF7340F0400039
:103E200028608DF80390286820F040002860204624
:103E3000FEF736FD28684FF015080DF10301012249
:103E40004FF6FF7340F0400028608DF8038028682B
:103E500020F0400028602046FEF722FD28680DF182
:103E6000030101224FF6FF7340F0400028608DF8F7
:103E70000360286820F0400028602046FEF710FD0F
:103E800028684FF0340A0DF1030101224FF6FF7349
:103E900040F0400028608DF803A0286820F0400022
:103EA00028602046FEF7FCFC28680DF10301012282
:103EB0004FF6FF7340F040002860286820F48070BF
:103EC0002860E1208DF80300286820F04000286079
:103ED0002046FEF7E5FC28680DF1030101224FF6AC
:103EE000FF7340F040002860286840F4807028602C
:103EF0008DF803B0286820F0400028602046FEF7C7
:103F0000CFFC28680DF1030101224FF6FF7340F04A
:103F10004000286008208DF80300286820F0400049
:103F200028602046FEF7BCFC28680DF10301012241
:103F30004FF6FF7340F0400028600E208DF803001C
:103F4000286820F0400028602046FEF7A9FC286879
:103F50000DF1030101224FF6FF7340F0400028608D
:103F60008DF80370286820F0400028602046FEF796
:103F700097FC28680DF1030101224FF6FF7340F012
:103F8000400028608DF80370286820F04000286009
:103F90002046FEF785FC28680DF1030101224FF64B
:103FA000FF73152740F0400028608DF803802868D3
:103FB00020F0400028602046FEF772FC28680DF1D2
:103FC000030101224FF6FF7340F0400028608DF896
:103FD0000360286820F0400028602046FEF760FC5F
:103FE00028680DF1030101224FF6FF7340F04000F5
:103FF000286033208DF80300286820F040002860F6
:104000002046FEF74DFC28680DF1030101224FF612
:10401000FF7340F04000286048208DF803002868B6
:1040200020F0400028602046FEF73AFC28680DF199
:10403000030101224FF6FF7340F040002860172073
:104040008DF80300286820F0400028602046FEF725
:1040500027FC28680DF1030101224FF6FF7340F0A1
:10406000400028608DF80390286820F04000286008
:104070002046FEF715FC28680DF1030101224FF6DA
:10408000FF7340F0400028608DF80370286820F02E
:10409000400028602046FEF703FC28680DF103016C
:1040A00001224FF6FF7340F0400028608DF8036056
:1040B000286820F0400028602046FEF7F1FB2868C1
:1040C0000DF1030101224FF6FF7340F0400028601C
:1040D0008DF803A0286820F0400028602046FEF7F5
:1040E000DFFB28680DF1030101224FF6FF7340F05A
:1040F00040002860286820F48070286021208DF816
:104100000300286820F0400028602046FEF7C8FB26
:1041100028680DF1030101224FF6FF7340F04000C3
:104120002860286840F480702860286820F4807037
:10413000286029208DF80300286820F040002860BE
:104140002046FEF7ADFB286840F040002860286854
:1041500040F4807028606420FCF760FC01B0BDE88A
:10416000F08F0000B0B5D0F8BC52002D08BFB0BD34
:10417000044641F21C00285C88B12046812101F0F0
:1041800085FD687A022809D12046812101F07EFD53
:1041900020460121BDE8B04001F078BDB0BD41F23C
:1041A000180028580028E8D0687A0028E5D1204671
:1041B000012101F06BFDE0E7B0B5D0F8BC52ADB322
:1041C000044641F21400285841F23401685041F28B
:1041D0001800285841F2380168502046012101F0AA
:1041E00041FC1F2813D141F21000285845F25531E7
:1041F000C4F2423188420AD141F21D00295C0129F2
:1042000005D841F21E00285C013810280FD341F276
:104210001D00295C20460522202300F079FE0220A3
:1042200068722046BDE8B040FFF79CBFB0BD41F2C8
:104230001F002A18204600F05FFB297AB0F1FF3FEB
:104240000CDD481E032838BFB0BDEA6872B105F125
:1042500010012046BDE8B04000F0E6B80529E0D1E5
:1042600020460121BDE8B04000F0BAB82046002148
:10427000BDE8B04000F0B4B810B50446D0F8BC02B8
:10428000C8B1407A022809D12046812101F0FEFC04
:1042900020460121BDE8104001F0F8BC49B2B1F15F
:1042A000FF3FC8BF10BD012805D020460121BDE851
:1042B000104000F095B810BD10B50446D0F8BC020F
:1042C000F0B1017ACA1E022A05D220460021BDE8BB
:1042D000104000F085B8022912D141F21D01415C65
:1042E00041F21F020244204600F006FBB0F1FF3FFE
:1042F000C8BF10BD20460121BDE8104000F070B8D5
:1043000010BD000010B50446D0F8BC02B0B1017A6F
:10431000012907D0002918BF10BD2046BDE8104074
:10432000FFF74ABF41F21D01415C41F21F02024406
:10433000204600F0E1FAB0F1FF3F00DD10BD20465D
:104340000121BDE8104000F04BB80000D0F8BC02DD
:1043500000281CBF0021017270470000B0B5D0F8E2
:10436000BC52002D08BFB0BD044641F262000021DE
:1043700029544FF4835029522981D4F8C00201688E
:10438000002088472046012101F062FB2046812160
:1043900001F05EFB41F210002A18204601211F2384
:1043A000BDE8B04001F0DCBBB0B5D0F8BC52002D88
:1043B00008BFB0BD04464FF480702881204681219B
:1043C00001F098FA2046012101F094FA41F2100020
:1043D0002A18204601211F23BDE8B04001F0C0BBD0
:1043E000B0B5D0F8BC52002D08BFB0BD044641F2B4
:1043F0003C00295441F2300045F25531C5F24231BA
:104400002950002129722A18204681210D2301F00C
:104410005BFC41F210002A18204601211F23BDE851
:10442000B04001F09DBB00008C46D0F8BC120029C2
:1044300008BF704710B5134641F218028A5841F27E
:104440003C0E002401F80E4041F2380E51F80E40A7
:10445000E41A41F80E4004240C729A4238BF134605
:1044600081216246BDE8104001F02EBC80B582B0CB
:1044700043F6300100200190C4F202010A6842F4C0
:1044800080020A600A6802F480020192019A009098
:104490000868002240F4001008600868022100F457
:1044A0000010009000980E20FCF73CFC0E20FCF75A
:1044B00029FC0F2002210022FCF734FC0F20FCF71E
:1044C00021FC3B2002210022FCF72CFC3B2002B007
:1044D000BDE88040FCF716BC80B540F26C00C2F22B
:1044E000000041F22461C2F20001FCF7BDF84AF27B
:1044F0006C51C2F20001087080BD00002DE9F0434C
:1045000085B043F63000002640F2004400220096B9
:10451000C4F20200C4F20204016841F00401016027
:10452000016801F00401009100990096016841F0D2
:1045300080010160016801F08001009100990096FE
:10454000016841F001010160016801F00101009181
:1045500000990096016841F0020101604FF4A051FA
:10456000006800F00200009000982046FCF756FB1F
:1045700020464FF4707101220127FCF74FFB072002
:104580006D464FF003094FF0020804900C20CDE96E
:104590000269CDF8048029460090A4F58060FCF7FC
:1045A00051FA4FF480600396CDE9017629460090D8
:1045B0002046FCF747FA4FF49A50CDF80C90CDE91D
:1045C0000177294600902046FCF73CFA80200397AB
:1045D000CDE90178294600902046FCF733FA05B072
:1045E000BDE8F08310B586B049F2941042F600039E
:1045F0000024FF217F22C2F20000C4F200030594D0
:10460000CDE90344CDE90144C0E90034C0E9022109
:10461000C0E9044484610094FDF7EEFD002818BF52
:10462000FCF71CF849F2941001A90122CDE90444D9
:104630008DF80640ADF80440C2F20000FDF71EFF01
:10464000002818BFFCF70AF840F201106946012261
:10465000C0F20100009049F29410C2F20000FDF790
:104660005FFE002818BFFBF7F9FF06B010BD000081
:1046700080B549F2B41043F200024FF48271002376
:104680004FF4007CC2F20000C4F20102C0E9002134
:104690000A21C0E90233C0E90433C0E906C3C0E916
:1046A0000833C0E90A31FDF7ABFF002814BFBDE8AD
:1046B000804080BDFBF7D2BF80B549F20C2043F6A5
:1046C00000024FF4827100234FF4007CC2F200001C
:1046D000C4F20002C0E900210A21C0E90233C0E9A6
:1046E0000433C0E906C3C0E90833C0E90A31FDF765
:1046F00087FF002814BFBDE8804080BDFBF7AEBF38
:1047000080B540F2482044F2004140F2E7324723AE
:10471000C2F20000C4F2010140F8081F802181614B
:104720000021C0E90131C0E90321FEF7A1FB002807
:1047300014BFBDE8804080BDFBF790BF80B548F650
:104740009C10C2F2000040F21001C2F200010022EF
:1047500001F0BAF8002818BFFBF780FF48F69C105C
:10476000C2F2000040F2A001C2F2000101F0BEFB63
:10477000002818BFFBF772FF48F69C10C2F2000039
:1047800040F24411C2F2000101F026FB002818BFDC
:10479000FBF764FF48F69C10C2F2000001F04EFCEB
:1047A000002814BFBDE8804080BDFBF757BF000064
:1047B000FEE70000FEE7000048F68C50C2F2000061
:1047C000FCF792BC70470000D0F8BC0250B10979E8
:1047D000002918BF012141F2620281540021C16009
:1047E00048B27047FF2148B270470000D0F8BCC201
:1047F000BCF1000F14D041F268015CF801101A44BA
:104800008A429EBF002040B2704780B50021052239
:10481000212300F07DFBFF20BDE8804040B27047BF
:10482000FF2040B27047000080B58446D0F8BC023B
:1048300098B341F21803C35883B15378DB0712D100
:10484000DCF8C032DB6901EBC10103EB81010B79BC
:10485000053312799A4288BF1A4613E06046002158
:104860000522202317E09178802906D079B940F2FB
:104870005E01C2F20001062204E040F26401C2F2CD
:104880000001082200F0C0FB002040B280BD60465D
:1048900000210522242300F03BFBFF2040B280BD15
:1048A000D0F8BC0278B180B50A7A1B2A28BF1B2237
:1048B00040F22C01C2F2000100F0A6FB0020BDE88E
:1048C000804040B27047FF2040B27047D0F8BC0231
:1048D00078B180B50A79172A28BF172240F247011C
:1048E000C2F2000100F090FB0020BDE8804040B221
:1048F0007047FF2040B27047B0B5D0F8BC52002DD1
:1049000000F0848013789D2B00F337805A2B00F23F
:104910007680DFE803F02E74743C747474747474DD
:10492000747474747474747441747474747474747A
:10493000454A74744E7474747453745774745B740D
:104940005F7474747463747474747474747474744D
:104950007474747474747474747474747474747417
:104960007474747474747474747474747474747407
:104970006700BDE8B04000F01DBB9E2B37D0A82BD0
:1049800039D0AA2B3BD1BDE8B04000F0DDBB1146C9
:10499000BDE8B04000F070BABDE8B040FFF744BFDA
:1049A0001146BDE8B040FFF791BFBDE8B04000F050
:1049B000D1BA1146BDE8B040FFF706BFBDE8B04030
:1049C00000F022BABDE8B04000F0A6B9BDE8B040A2
:1049D00000F0DAB8BDE8B04000F048BBBDE8B04038
:1049E00000F026BB1146BDE8B040FFF759BFBDE857
:1049F000B04000F0C3B9BDE8B04000F029B90021D3
:104A00000522202300F084FA022068724FF0FF3064
:104A1000B0BD00002DE9F04F81B0D0F8BC72002F7E
:104A200043D0054641F2640A37F80A0041F2700BA0
:104A300057F80B2002FB00F441F26C02BA58B4F5AF
:104A4000805F28BF4FF480541FFA84F8B8FBF0F35E
:104A5000D5F8C002066907F1100908464946B04773
:104A6000B0F1FF3F23DDBA44BB4441F26C003E1875
:104A7000284681214A46234601F026F9BAF800006B
:104A8000B8FBF0F0316801443160DBF80010081A1F
:104A9000CBF8000041F238003958A1EB040139503D
:104AA00004BF03203872002008E0FF2006E02846FB
:104AB00000210422112300F02BFAFF2040B201B0A4
:104AC000BDE8F08F2DE9F04F81B0D0F8BC62002E28
:104AD00046D0044641F26400305A41F2700956F85B
:104AE000092002FB00F741F26C0A56F80A20B7F5DC
:104AF000805F28BF4FF480571FFA87F8B8FBF0F3A8
:104B0000D4F8C002456906F1100B08465946A8477B
:104B1000B0F1FF3F26DD41F26400304406EB0902AC
:104B200006EB0A010088B8FBF0F30D681D440D6028
:104B30001168C91A116041F23802B358A3EB070398
:104B4000B35017D001FB00F3B3F5805F28BF4FF4DB
:104B50008053204601215A4601F002F800250EE05C
:104B6000FF250CE0204600210422032300F0D0F9A9
:104B7000FF2504E0002520460021FFF731FC68B244
:104B800001B0BDE8F08F0000F0B581B0D0F8BC7284
:104B900097B30D460446387A48B14FF48050F86018
:104BA0002046294601B0BDE8F040FFF733BF41F28F
:104BB0001C003856002806DB204600210522202351
:104BC00000F0A6F918E041F26200385C022806D134
:104BD0002046002102223A2300F09AF90CE0164602
:104BE000D4F8C00281682846884748B12046002191
:104BF00002223A2300F08CF94FF0FF3001B0F0BDF3
:104C0000D6F8020002BA41F26C003A50F079317ADB
:104C100041EA002341F27006BB5120462946FFF7C6
:104C2000E5FD0028E8DBB81941F21801795841F296
:104C30006402BA5A00685043814202D1022038729D
:104C4000ABE7204600210522202300F061F9D3E7DD
:104C5000F0B581B0D0F8BC7297B30D460446387AEF
:104C600048B14FF48050F8602046294601B0BDE8B5
:104C7000F040FFF7CFBE41F21C003856002806DB9B
:104C8000204600210522202300F042F918E041F2DD
:104C90006200385C022806D12046002102223A2315
:104CA00000F036F90CE01646D4F8C00281682846B8
:104CB000884748B12046002102223A2300F028F913
:104CC0004FF0FF3001B0F0BDD6F8020002BA41F259
:104CD0006C003A50D6F8060003BA41F27006BB5198
:104CE00020462946FFF782FD0028E9DBB81941F28A
:104CF0001801795841F26402BA5A0068504381425F
:104D000002D102203872ACE7204600210522202380
:104D100000F0FEF8D4E7000070B5D0F8BC62BEB178
:104D2000054641F264003418D5F8C0024368221DDC
:104D3000084611462246984720B941F26200305C8D
:104D4000022808D12846002102223A2300F0E0F888
:104D5000FF2040B270BD61680020B0820139F1745B
:104D60000A0AB2740A0C7274090E3174218808227E
:104D7000F260F175090AB17540B270BDF0B581B04D
:104D8000D0F8BC72D7B11446064641F264003D1813
:104D9000D6F8C00243682A1D084611462A4698479D
:104DA00020B941F26200385C022809D13046002166
:104DB00002223A2300F0ACF8FF2022E0FF2020E09E
:104DC000D4F80A0000BAF86040B1002100230022A4
:104DD0003B4419740132D3B29842F9D86968002073
:104DE00038830139F9750A0ABA750A0C7A75090E01
:104DF00039752988F976090AB976D4F80A1009BAFA
:104E0000F96040B201B0F0BDB0B582B0D0F8BC528C
:104E1000BDB10446D0F8C0024368EC460DF106026D
:104E200008466146984720B941F26200285C022892
:104E300009D12046002102223A2300F069F8FF2020
:104E400017E0FF2015E04FF0006028610098022174
:104E500029830138E875010AA975010C6975000EEE
:104E60002875BDF806000C21E960E876000AA876EE
:104E7000002040B202B0B0BD80B5D0F8BC22002AFC
:104E800042D041F21803D358CBB30020C2F815002A
:104E900082F82100C2F81D00C2F81900C2F8110002
:104EA000702010740C20D0754FF48350105C41F2C8
:104EB0006103D35C984219D002F5835C02EBC00E0B
:104EC0004FF482531EF80330937441F244031EF8EA
:104ED0000330137741F245031EF803305377013056
:104EE000C3B2043B18BF03468CF800301220D060D8
:104EF0000879122898BFD060002040B280BD002100
:104F00000522202300F004F8FF2040B280BD0000FD
:104F1000D0F8BC02002808BF7047B0B541F2610C60
:104F200010F80CE000EBCE0141F2450400250D55D0
:104F300041F244040B554FF48253CA540EF101015F
:104F4000CAB2043A18BF0A4600F80C20BDE8B040C7
:104F500070470000D0F8BC1221B341F2620C11F886
:104F60000C30012B0FD1137903F00303022B0AD16C
:104F700080B5002105222423FFF7CAFFFF20BDE8EA
:104F8000804040B27047107900F003020020012AEF
:104F900018BF032A09D101EB0C0210700020C86071
:104FA00040B27047FF2040B27047022AF6D102207B
:104FB000F1E70000B0B5D0F8BC52F5B1044641F2BB
:104FC0001800285830B12046002105222023FFF781
:104FD0009FFF12E041F26200285C022805D0D4F85D
:104FE000C00282680846904750B120460021022244
:104FF0003A23FFF78DFF05202872FF2040B2B0BD95
:105000000020E86040B2B0BD80B578B1C260002A2F
:1050100008BF80BD013A1FFA82FE11F80EC010FAD7
:1050200082F383F810C0BEF1000FF3D180BD000001
:1050300010B5D0F8BC42ACB1527892070DD441F211
:105040007002A35841F26C02A258FFF7CFFB002870
:1050500008DB0020E06040B210BD002105222423BF
:10506000FFF756FFFF2040B210BD00002DE9F041D0
:10507000D0F8BC72002F62D00D460446387A28B1B1
:1050800020462946BDE8F041FFF71CBD41F218005B
:1050900007EB0008D8F8000000284AD041F21C00B5
:1050A0003856B0F1FF3F44DD1646D4F8C00281689F
:1050B0002846884720B12046002102223A233CE0BE
:1050C000D4F8C002C1682846884720B12046002194
:1050D0000222272331E0D6F8020002BA41F26C0026
:1050E0003A50F079317A41EA0023C8F85830204626
:1050F0002946FFF77BFB002821DB41F26400385A88
:10510000D8F80010D8F8582002FB00F3994210D1CB
:1051100001203872B3F5805F28BF4FF4805307F148
:1051200010022046012100F01BFD002040B2BDE826
:10513000F0812046002105222023FFF7E9FEFF2011
:1051400040B2BDE8F08100002DE9F041D0F8BC721A
:10515000002F65D00D460446387A28B120462946EE
:10516000BDE8F041FFF7AEBC41F2180007EB0008C4
:10517000D8F8000000284DD041F21C003856B0F19C
:10518000FF3F47DD1646D4F8C002816828468847AD
:1051900020B12046002102223A2309E0D4F8C002BF
:1051A000C1682846884740B12046002102222723B3
:1051B000FFF7AEFE0520387232E0D6F8020002BAE0
:1051C00041F26C003A50D6F8060003BAC8F85830DD
:1051D00020462946FFF70AFB002821DB41F2640044
:1051E000385AD8F80010D8F8582002FB00F399423A
:1051F00010D101203872B3F5805F28BF4FF480537F
:1052000007F110022046012100F0AAFC002040B264
:10521000BDE8F0812046002105222023FFF778FE1B
:10522000FF2040B2BDE8F08180B582B08DF8060065
:105230004FF6FF7000210DF107020123009049F2A3
:105240000C208DF807100DF10601C2F20000FDF7E9
:1052500063FC00280EBF9DF80700FF208DF80700B3
:1052600002B080BD2DE9F04182B01E4690460D4649
:105270000446FBF7D9FC301A00EB0807FBF7D4FC17
:10528000064640F28400C2F200000068C0F3CB3052
:1052900078430190206881682940A94224D118F1FF
:1052A000010111D0FBF7C0FC801BB84220D201984D
:1052B000019901390028019108BF074620688068DC
:1052C0002840A842EED00FE081682940A9420BD1C6
:1052D00081682940A94207D181682940A94203D1A8
:1052E00081682940A942EFD0002002B0BDE8F081DA
:1052F0002068416821F0E00141606168B1F5827F7A
:105300000AD1A168B1F5004F02D0B1F5806F03D189
:10531000016821F040010160A16AB1F5005F07D189
:10532000016821F400510160016841F400510160FD
:10533000002084F85000012084F85100032002B0BE
:10534000BDE8F0814FF4C06008604FF480501080D9
:1053500000207047002070470020704780B502F0A1
:1053600001F90021002808BF4FF0FF31084680BD39
:105370000020704770B57BB11C460D46160300BF78
:10538000284631464FF4805202F052F8013C05F5B0
:10539000805506F58056F3D1002070BD70B57BB105
:1053A0001C460D46160300BF284631464FF4805276
:1053B00002F076F9013C05F5805506F58056F3D1EB
:1053C000002070BD704700000088704710B540F2A3
:1053D0008004C2F200040120207002F0C3F800280B
:1053E0001EBF207800F0FE002070207810BD000065
:1053F000042906D80020DFE801F00306090C0300A9
:105400007047042070474FF4C06004E04FF48050B0
:1054100001E04FF4803010600020704770B57BB120
:105420001C460D46160300BF284631464FF48052F5
:1054300001F0FEFF05F5805506F58056013CF3D1DD
:10544000002070BD40F28000C2F20000017801F03F
:10545000FE0101700078704770B57BB11C460D46A7
:10546000160300BF284631464FF4805202F018F967
:1054700005F5805506F58056013CF3D1002070BD3E
:10548000FBF7D8BBB0B592B043F64000002402252C
:105490000B94CDE909440594CDE90344CDE90144D9
:1054A0000094C4F20200016841F08051016000687C
:1054B00000F0805000900098009447F20000C4F281
:1054C0000000016865F38F310160006800F440401E
:1054D0000090009807201190042010904FF4A870BD
:1054E0000F9019200E904FF48000CDE90C50012050
:1054F00008904FF4803007900520069006A8FCF72E
:10550000DBFC20B1EFF3108072B600BFFEE74FF472
:1055100080500594022104900F20CDE9025401909F
:1055200001A8FCF7DFFB002804BF12B0B0BDEFF309
:10553000108072B6FEE700004EF68850CEF20000F2
:10554000016841F4700101607047000040F2502092
:10555000C2F20000FDF778BDD0F8B82222B180B5C4
:1055600052689047BDE880400020704790F89C2228
:10557000013A022A88BF00F019B84988012918BFEA
:1055800070470021C0F8A41200F036B880B5134669
:105590000A46002100F0E4FA002080BD80B51346E1
:1055A0000A46002100F090FB002080BD10B50446A3
:1055B000802100F06BFB20460021BDE8104000F088
:1055C00065BB000080B50521C0F8941200210022BF
:1055D000002300F0C5FA002080BD000080B513460E
:1055E0000A46C0E906330221C0F89412002100F0F7
:1055F0006BFB002080BD000080B50421C0F8941230
:1056000000210022002300F05FFB002080BD00008D
:1056100010B50A4604A040F2AC34C2F200042146A0
:1056200000F022F9204610BD4D534320436F6E66B3
:10563000696700001220088040F28800C2F2000072
:105640007047000010B50A4604A040F2AC34C2F224
:105650000004214600F008F9204610BD4D534320B8
:10566000496E7465726661636500000004200880FD
:1056700040F29C00C2F200007047000010B50A46DC
:1056800004A040F2AC34C2F20004214600F0ECF871
:10569000204610BD53544D6963726F656C65637429
:1056A000726F6E696373000010B50A4604A040F281
:1056B000AC34C2F20004214600F0D6F8204610BDFA
:1056C00053544D3332204D6173732053746F7261A4
:1056D0006765000080B51A200880FAF7EDFF40F2F8
:1056E0006410C2F2000080BDC988012918BFFFF70D
:1056F0005DBF90F89C124A1E022A06D20022014683
:1057000041F8082F0122FFF769BF032903D1011DCA
:105710000122FFF763BFFFF749BF0000B0B582B0B9
:105720000D4604460020ADF8060048884FF0FF31D2
:1057300001EB1021062900F26680DFE801F0041673
:10574000096464232C00207CD4F8B4120A6847E072
:10575000C0B2052857D8DFE800F0032A2F34393EBD
:10576000D4F8B4024268D2BB4DE0D4F8B802217C30
:1057700000290CBF816AC16A0DF106008847014605
:10578000022012E0207CF0BBD4F8B802416B0DF18E
:105790000600884727E0207CA8BBD4F8B802016B3C
:1057A0000DF1060088470146072048701CE0D4F838
:1057B000B40282689AB926E0D4F8B402C26872B919
:1057C00021E0D4F8B40202694AB91CE0D4F8B4026A
:1057D000426922B917E0D4F8B40282699AB1207CF8
:1057E0000DF1060190470146EA888AB1BDF806002E
:1057F00048B1904238BF0246ADF806202046FFF778
:10580000EDFE02B0B0BD2046FFF7D0FE02B0B0BD45
:105810002046FFF7F1FE02B0B0BD0000017841B1B3
:10582000411C0020013011F8012B002AFAD1C0B22E
:1058300070470020C0B2704790F89C22013A022ABB
:1058400010D8C988022918BFFFF7B0BED0F8A4123B
:105850000322002908BF0122014641F80C2F022231
:10586000FFF7BCBEFFF7A2BE70B5E8B116460C4606
:105870000546FFF7D3FF022101EB400030800321F2
:10588000617020702878002808BF70BD691C022252
:10589000002300BFD6B2A05546F0010023540232C7
:1058A00011F8010B0028F5D170BD0000032884BF5A
:1058B00003207047C00040F20031C0F2013121FAEC
:1058C00000F0C0B270470000002804BF03207047FA
:1058D0000023C0F8CC32C0F8C032C0F8B83200297A
:1058E00018BFC0F8B4120270012180F89C1200F0B9
:1058F000BDB8000080B5D0F8C402FBF7E7FABDE8F8
:105900008040FFF7D3BF000080B5D0F8C402FBF79A
:10591000B3FABDE88040FFF7C9BF0000B0B5044648
:1059200071B194F89C02032849D1D4F8B8024269B5
:10593000002A44D020469047002808BF0020B0BD70
:10594000D4F89402022833D1D4E9071081420DD94A
:105950000B1AE361204611461A46FFF71FFE204648
:1059600000210022002300F0FBF821E00FD1A16903
:1059700081420CD3D4F89802814208D200252046F7
:1059800000210022FFF70AFEC4F89852E7E794F8D6
:105990009C02032805D1D4F8B802C16809B1204699
:1059A00088472046802100F071F92046FFF70AFE63
:1059B00094F8A002012804BF002084F8A00200206F
:1059C000B0BD000010B5044669B194F89C020328EC
:1059D0001CD1D4F8B8028269C2B120469047002891
:1059E00008BF002010BDD4F8940203280ED1D4E9DA
:1059F000570398420CD9C01AC4F85C01984238BFCA
:105A00000346204611461A46FFF7C0FD002010BD90
:105A100094F89C02032805D1D4F8B802016909B1B1
:105A2000204688472046FFF7E7FD002010BD000014
:105A300000207047012180F89C12D0F8B8222AB1CA
:105A400080B5017952689047BDE8804000207047DA
:105A500080B5D0F8C402FBF76BFABDE88040FFF7D1
:105A600025BF0000D0F8C402FBF77EBA017809B167
:105A70000020704710B548F68C51C2F20001C1F801
:105A80000404C0F8C4120020C1E90B000222C1E9DD
:105A90000620C1E90800C1E9032004204FF0A0421C
:105AA000C1E900200846FBF715FF002818BFFAF7E8
:105AB000D5FD48F68C54C2F2000420468021FBF745
:105AC00071F9204600214022FBF770F920460121A0
:105AD0008022FBF76BF9BDE8104000207047000002
